:1000000000800020BD01000025050000F104000073
:10001000F1040000F1040000F1040000F10400000C
:10002000F1040000F1040000F104000025050000C7
:1000300025050000F104000025050000E104000092
:100040002505000025050000250500002505000008
:1000500025050000250500002505000025050000F8
:1000600025050000250500002505000025050000E8
:1000700025050000250500002505000025050000D8
:1000800025050000250500002505000025050000C8
:1000900025050000250500002505000025050000B8
:1000A00025050000250500002505000025050000A8
:1000B0002505000025050000250500002505000098
:1000C0002505000025050000250500002505000088
:1000D0002505000025050000250500002505000078
:1000E0002505000025050000250500002505000068
:1000F000250500009119000025050000311E0000B3
:1001000025050000FD210000250500002505000053
:100110002505000025050000250500002505000037
:100120002505000025050000250500002505000027
:100130002505000025050000250500002505000017
:100140002505000025050000250500002505000007
:1001500025050000250500002505000025050000F7
:1001600025050000E1080000250500002505000028
:1001700025050000250500002505000025050000D7
:1001800025050000250500002505000025050000C7
:1001900025050000250500002505000025050000B7
:1001A00025050000250500002505000025050000A7
:1001B000250500002505000025050000574B4CF2E1
:1001C000205210B51A804DF628121A8000BF00BFC9
:1001D00000F0ACF9524B4FF010621A60514A9A602D
:1001E000514ADA60A3F53043203B1A6812F480725A
:1001F00004D14E490A604FF4A8521A604C4B1A7849
:10020000110703D51A7842F008021A70494B2A22C6
:100210001A700023484A49499818884204D248492C
:10022000595899500433F5E7464A474B9A424FF0E4
:10023000000302D242F8043BF7E74449444A5958C4
:1002400099500433B3F5DE7FF7D1424B802103F898
:10025000011B41498B42F9D1404B1A60404B0A22A5
:100260001A70A3F6FF7324221A70A02203F8012C3F
:100270003C4B1A789207FBD51A78D406FCD41A782E
:1002800002F00C02082AFAD1374B03221A704022DE
:100290005A70344B1A789006FBD51A785106FCD563
:1002A000324B334A1A6002225A60324B20221A70B3
:1002B0002C4B1B7803F00C030C2BF9D12E4B2F4A3F
:1002C0001A602F4B2F4A1A6000225A60072243F807
:1002D000042C2D4AC3F80C2D62B600F0E9F9134B3B
:1002E0001B68DA0705D5294800F064F9284B294A2C
:1002F0001A60294B1B785B0609D5254C254A2368D3
:10030000934204D1214800F055F90023236002F004
:1003100003F800F011F900F0CBF8FEE70E200540DD
:1003200030800440823F04000100002B14D00340C1
:1003300002D0074000E007406087FF1F0488FF1FCE
:10034000182600000488FF1FE48AFF1F0000000039
:100350000082FF1F00E400E05FE400E008ED00E041
:1003600000500640064006400440064044800440D9
:10037000000003010040064004800440C010050056
:1003800014E000E0FF7601000000202041BBA556EC
:100390001CE00340A5C3945A00F00740FFFFFFFF95
:1003A000FFFFFFFFFFFFFFFFFFFFFFFFFFFFFFFF5D
:1003B000FFFFFFFFFFFFFFFFFFFFFFFFFFFFFFFF4D
:1003C000FFFFFFFFFFFFFFFFFFFFFFFFFFFFFFFF3D
:1003D000FFFFFFFFFFFFFFFFFFFFFFFFFFFFFFFF2D
:1003E000FFFFFFFFFFFFFFFFFFFFFFFFFFFFFFFF1D
:1003F000FFFFFFFFFFFFFFFFFFFFFFFFFFFFFFFF0D
:10040000FFFFFFFFFFFFFFFFFFFFFFFFFEFFFFFFFD
:1004100010B5054C237833B9044B13B10448AFF33E
:1004200000800123237010BD0488FF1F000000001E
:100430001826000008B5064B1BB106480649AFF365
:1004400000800648036813B1054B03B1984708BD07
:1004500000000000182600000888FF1F0488FF1F06
:10046000000000000D20012100F0D4B810B50121DA
:100470000D4C0D2000F0AEF84FF4FA7000F004F9C6
:1004800023680A495B68022220469847204600F00C
:1004900017F80D20002100F09DF84FF4FA70BDE828
:1004A000104000F0F1B800BF0889FF1F742300005E
:1004B00008B5FFF7D7FFFFF7D9FF00F0BBFEFAE75B
:1004C00007B5064B1B88ADF80430036801A95B68CB
:1004D0000222984703B05DF804FB00BF77230000B9
:1004E000024B1A6801321A60704700BF2088FF1F54
:1004F00008B50B4C2368580301D500F0F1F92368C7
:10050000590501D501F044FA23681A0501D501F017
:100510008FFC2368DB04ECD501F070FEE9E700BF37
:100520003480044008B5FFF7E3FFFFFF014B1022C2
:100530001A807047002005407047FFFFEFF31383D8
:100540009BB9EFF3108098B9EFF3058323B10F2B1C
:1005500004D9084A985C01E04FF48070EFF31183EE
:100560003BB1834238BF184670474FF0FF307047A9
:1005700018467047F0E300E010B50023B0FBF2F43A
:1005800002FB1400092894BF30303730C0B2C85481
:1005900020460CB10133F1E7CA18547022469A4242
:1005A00006DA885CCC5C8C54C8540132013BF6E717
:1005B000084610BD044B054900221A600A60044A2F
:1005C000106010221A60704714D0034004D003401A
:1005D00000D00340212810B518D80D4A52F8303009
:1005E00093F880423CB1012211B183F8802010BD04
:1005F00083F8002110BD02EBC00043681A6811B1F6
:1006000042F0030201E022F002021A6010BD00BFB6
:100610007C230000212816D80B4A02EBC0030129D5
:100620005B6852F8302004D182F880124FF4A27235
:1006300008E0002082F8800211B94FF4807201E0D6
:1006400040F203121A6070477C23000072B60B4B15
:100650000B491A680B4B1B68096862B6490102D541
:10066000322A88BF0133C2F5BB326021FF32B2FBB0
:10067000F1F24FF47A7000FB0320704718E000E0BD
:1006800004ED00E02088FF1F38B50446FFF7DEFFC9
:10069000054664B1FFF7DAFF401BB0F57A7F03D35C
:1006A000013C04D005F57A7500F0C4FDF2E738BDD1
:1006B0001F4B4FF4000210B51A604FF080721A60A1
:1006C0004FF000721A604FF080621A604FF00062C3
:1006D0001A60184B184A194C00204BF6FF7118602D
:1006E00059602823136093601361936113629362CE
:1006F000136393630922226004F58054043420605C
:100700006160A360236144F8042C04F5FE2420609A
:100710000B4801600B490B608B600B4B1A6000F0BB
:10072000FFFE0420FFF7B0FFBDE8104000F0CEBB95
:1007300008E100E0048003400C8003400080034097
:1007400008800B400C800B4000800B40F0B50C4B38
:100750000C4C1A7842F0020504EBC50682F0010247
:10076000706009481A700678002E0CBF8827C827C9
:1007700086F0010647EA0141067044F83510F0BDE5
:100780008C88FF1F0080FF1F0489FF1F431E032B5F
:1007900010B510D872B6094A52F8230048B1416822
:1007A00042F82310064A018832F81340611A22F8F1
:1007B000131062B610BD002010BD00BF7C88FF1F63
:1007C000D28AFF1F013803280AD872B6054B53F8A6
:1007D0002030002013B101305B68FBE762B6704740
:1007E00000207047D088FF1F10B572B60123174A4A
:1007F0001A4412F8012C12071CD59900144A52F819
:1008000031402CB902EB431308305860114B09E01A
:1008100041F0010152F8314064B902EBC1030830E4
:1008200058600D4B42F831300C4B1A78013A1A706F
:1008300062B610BD0133052BD9D162B6074B002239
:100840001A70BDE8104000F0BDBB00BFA02500003D
:100850000080FF1F88004000C8004000FA88FF1F8A
:10086000431E032B30B532D8194A400140F0100026
:10087000104472B6174CE25C032A09D8DFE802F094
:10088000160218050830022213E00830042210E096
:100890001148124A50F8234014B940F8231002E0DE
:1008A00052F82300416042F823100FE0032200E0D9
:1008B0000522E25410F0080F01F108030A88436092
:1008C0000CBF8823C82343EA0243036062B630BDED
:1008D0000080FF1F3888FF1FD088FF1FE088FF1FA0
:1008E0002DE9F84FAB4F3C78E4B214F0040F3D46CD
:1008F00019D0A94B1B78A3B1A84A117801F0FF03C6
:1009000021B1013BDBB2137003B900BEA44A1178D8
:1009100001F0FF0329B1013BDBB213700BB900F00A
:1009200065FC04233B7004F0080303F0FF02002B76
:1009300000F063829B4B9C4C1A78D2B215094FEAA7
:10094000920840F0E08104EBC803596854F838304D
:10095000C3F38303013B0C2B00F2D281DFE813F0D9
:1009600091019101D001D001D001D001D001D0017D
:10097000AC01D001D001D0010D008C4D0A684B684C
:100980008B486B6001218B4B44F838302A60DFF8CC
:100990005082017092B240F2816000238242C8F816
:1009A00000302361A36117D8B2F5D06F80F01E81AB
:1009B000B2F5817F00F0CF8006D8802A00F0BA809F
:1009C000822A00F0BB802DE140F202339A4200F00F
:1009D000D180B2F5A06F1CE042F22100824200F00B
:1009E0004D810ED8B2F5086F00F09E80B2F5106F01
:1009F00040F01881684B6C4EAA781A7006F1800995
:100A00000AE042F221218A4200F0088142F22133B9
:100A10009A4200F00B8105E1336A1B0603D5706A28
:100A2000083800F0CFFA08364E45F5D10026B14619
:100A3000DFF8B0A156F80A0028B1D0F804B000F0F1
:100A4000C1FA5846F8E74AF806005B4BDFF898A170
:100A5000F05056F80A0028B1D0F804B000F0B2FA0D
:100A60005846F8E7554B4AF80600F050544B23F827
:100A70001900544B19F80320023A032A08D8DFE87A
:100A800002F002040204002200E0012203F809201F
:100A900009F10109B9F1040F06F10406C8D14A4B66
:100AA00000221A7001269A46484A494B3244334480
:100AB00012F8012C9B0012F0080F1A704FEA8609F9
:100AC00025D000F061FA38B104EB461308305860C5
:100AD000404B44F8393006E09AF8003044F83900C9
:100AE00001338AF8003000F04FFA49F0010338B1C1
:100AF00004EBC302083050602E4A44F8332006E06D
:100B000044F833009AF8003001338AF8003049F095
:100B10000202013649F003090023052E44F8323061
:100B200044F83930C0D182E01B4B2B4C1B7823702A
:100B30000B467FE0284C237063707AE0AA88042A71
:100B400070D8254C920023706370244B9B5C9E07E9
:100B50006FD521706DE0AA8802F07F03042B61DC61
:100B60006B88002B5ED191001C4A0A44117821F059
:100B7000020155E0AA8802F07F03042B52DC6B8847
:100B8000002B4FD19100154A0A44117841F002011F
:100B900046E000BF802007400389FF1F8D88FF1FAC
:100BA0001889FF1F902007400080FF1FF088FF1F5B
:100BB0000489FF1FC80040002888FF1FE088FF1F2E
:100BC000D28AFF1F3888FF1FFA88FF1FA025000068
:100BD00030C8011088004000FB88FF1FC02007407C
:100BE0002488FF1F7C88FF1FD088FF1F6A88A98880
:100BF0009D4B53F8084CA3F10C009CB133F80C6CDE
:100C0000964209D133F80A6C8E4205D1120A032AA2
:100C10000CBF237803890DE00C33EAE7A978934AE7
:100C2000117004E0924B0F221A7027E000231C463B
:100C300000E00223EE88B34238BF1E46402E34BF88
:100C40003546402520462946FFF780FD761B2C447B
:100C500003D1402D12D1354603E0402E34BF354636
:100C6000402520462946FFF771FD761B2C4401D113
:100C7000402D03D17F4AC8F80040168001227E4BE8
:100C80003DE07E4B1A8842F221039A4210D10023A4
:100C90007B4AC85C98540133072BF9D11368862B23
:100CA00002D1784B0F221A7000200146FFF74EFD4B
:100CB000754B44F8383023E0744E3568B5B1DFF831
:100CC000B481B8F80090B9F1400F34BF4C464024CD
:100CD00028462146FFF73AFDC4EB09039BB2A8F86A
:100CE00000300BB9402C00D12B193360634B1A88AC
:100CF000B2F5A06F04D100225A709A78644B1A7032
:100D000001225D4B6CE004EBC806013D736802F004
:100D10000802A3F10800EDB202F0FF01002A36D06C
:100D200000F050F95B485C4B50F82520EAB151685F
:100D300040F8251002F108017160595D03290BD8B4
:100D4000DFE801F002040608032104E0022102E0CA
:100D5000052100E00421595516F0080F12880CBF38
:100D60008823C82343EA024342E05A5D032A07D896
:100D7000DFE802F040400204002206E0012204E025
:100D800016F0080F0CBF022203225A5532E054F825
:100D90003820120C23F8082C22B3DFF82CE123F8BA
:100DA000061C43F8041C5EF825303C4913B94EF884
:100DB000250002E051F825305860394B41F82500F4
:100DC00033F815100A4423F8152000F0DDF810B1AF
:100DD0000830706006E0334B44F838001A7801326E
:100DE0001A7007E0284B304A16F0080F08BF134668
:100DF00044F8383008233B7074E5E0071FD51E49DE
:100E000029482A4C02230B70294B1A70294B186071
:100E100098602948D8601A619A615C60144B0D2073
:100E200018702648FF2303702B700274244A137035
:100E3000244B9F221A7001230B70BDE8F88F210606
:100E400004D50B4B0D221A7080232B70A20705D5F9
:100E50001A4B1A78D2B21A7002232B70E30644BFE1
:100E600010232B70BDE8F88FB02500002889FF1FE4
:100E7000C0200740F888FF1F94200740F088FF1F1C
:100E8000DC8AFF1F8D88FF1FC80040002488FF1FD9
:100E900098200740D088FF1F3888FF1F2888FF1F31
:100EA000D28AFF1FFA88FF1F880040003C88FF1F7E
:100EB0008C88FF1F0080FF1F9088FF1F882007403D
:100EC0008C200740842007407C88FF1F08B501F074
:100ED000EBF900221A4B0021D15098180832882AC9
:100EE0004160F7D1174A106840F48020106002F585
:100EF00028326832C3F307201070C3F307401B0E7B
:100F000010751376FF2302F81C3C02F8143C02F81B
:100F10008C3C012302F8083C82F8641002F8183C6B
:100F2000094B70226FF450711A700B444FF4007229
:100F30001A6003F1C04303F5C82310221A7008BDDC
:100F40000080FF1F3480044049E400E000F09EB8B8
:100F500000F05AB800F07EB800F01AB9084600F068
:100F60000BB90846114600F09FB87047044B0022A9
:100F70001A714FF47A711A73024A99601A607047B5
:100F80000889FF1F9824000072B60C4A1168B1FA54
:100F900081F30B2B02D962B6002070474FF000405E
:100FA000D84021EA0001116062B605494822534346
:100FB000C8180022CA504260704700BF6087FF1FF8
:100FC0000084FF1F0C4B4822C31AB3FBF2F30B2B18
:100FD00011D80A4A127822B1094A12780AB1FFF7E9
:100FE00003BC72B6074A4FF0004121FA03F31168BF
:100FF0001943116062B670470084FF1FFA88FF1F13
:101000000389FF1F6087FF1F10B5104C23686BB169
:1010100020684288531C0244147A0288934212D3F7
:10102000FFF7D0FF094B00221A600DE0084B1B7838
:1010300013B94FF0FF3010BD0320FFF7A7FB20606E
:101040000028E5D1F5E74380204610BD2489FF1F25
:101050000389FF1F10B50B4C236813B123686BB9CC
:1010600002E0094B1B7813B94FF0FF3010BD03208D
:10107000FFF78CFB20600028F0D1F5E75A88134475
:10108000187A10BD2489FF1F0389FF1F044B98881D
:10109000044B1B681BB11A885B88D31A184470472D
:1010A000D28AFF1F2489FF1F2DE9F8432D4E01230B
:1010B00007460C463370002C4FD02B4D2B68A946A9
:1010C0002BBB4AF2F928294B1B7803F0FF020BB91E
:1010D000327015E00420FFF775FB072808D80123BC
:1010E0003370FFF751FFC9F8000080B91D4B18702D
:1010F000B8F101081E4B01D01A782AB101221A70EA
:101100004FF0FF30BDE8F88300F094F8DBE7296882
:10111000174A488800231370C0F14002944238BF38
:10112000224600F1080C10448C444880A41A9342D3
:1011300004D0F85C0CF803000133F8E71F444B8837
:101140003F2B06D940230B800420FFF789FB0023A7
:101150002B60084B05221A70ADE734702046BDE8BD
:10116000F88300BF1989FF1F1C89FF1F0389FF1F18
:101170002089FF1F1889FF1F07B502AB012103F863
:10118000010D1846FFF790FF03B05DF804FBFFFF69
:101190002DE9F041114B1B78F3B1114E114B34681E
:1011A000114D01271F7098464CB1002763882F709E
:1011B000042023802146FFF753FB376009E0FFF747
:1011C000E3FE014620B104202C70FFF749FB00E04C
:1011D0002F70002388F80030BDE8F0810389FF1FDD
:1011E0001C89FF1F1989FF1F1889FF1F38B50E4B77
:1011F0001B7803F0FF05ABB90C4C216831B14B886B
:101200000B800420FFF72CFB256038BDFFF7BCFEE8
:10121000014620B10420BDE83840FFF721BB044B54
:1012200001221A7038BD00BF1989FF1F1C89FF1FDA
:101230001889FF1F10B50E4C2378BBB9012323700A
:10124000FFF724FF08B1FFF790FE00F041FB08B163
:1012500000F072F800F08CFD08B100F0DFF800F04B
:1012600081FF08B100F04CF90023237010BD00BFCE
:101270002989FF1F08B50368C9B21B68984708BDD4
:1012800008B50368C9B21B68984708BD08B503686C
:10129000C9B21B68984708BD08B50368C9B21B6886
:1012A000984708BD4B0803F1376000F5D830B0FB14
:1012B000F1F000F091B910B54B0803F1376000F57B
:1012C000D8301446B0FBF1F000F086F92046BDE8B6
:1012D000104000F0C7B900F0EFB9084600F018BAA6
:1012E00000F0F6BA00F01EBB00F002BB00F0D4BA6A
:1012F00000F030BB00F0DABA08B5084600F024FA76
:10130000012008BD08B5084600F01EFA012008BDFE
:1013100010B508461446114600F060FA204610BD8C
:1013200038B508460D4601F01DF80446214628460A
:1013300000F054FA204638BD7047FFFF044B0022EE
:101340001A714FF47A711A73024A99601A607047E1
:101350002C89FF1FB824000008B50368C9B21B68B8
:10136000984708BD08B50368C9B21B68984708BD0F
:1013700008B50368C9B21B68984708BD08B503687B
:10138000C9B21B68984708BD4B0803F1376000F5E8
:10139000D830B0FBF1F000F06FBB10B54B0803F193
:1013A000376000F5D8301446B0FBF1F000F064FB74
:1013B0002046BDE8104000F0A5BB00F0CDBB0846BC
:1013C00000F0F6BB00F0D4BC00F0FCBC00F0E0BCC8
:1013D00000F0B2BC00F00EBD00F0B8BC08B5084685
:1013E00000F002FC012008BD08B5084600F0FCFB37
:1013F000012008BD10B508461446114600F03EFC19
:10140000204610BD38B508460D4600F0ABFF044637
:101410002146284600F032FC204638BD7047FFFFC9
:10142000044B00221A714FF47A711A73024A9960C0
:101430001A6070473C89FF1F0825000008B5036843
:10144000C9B21B68984708BD08B50368C9B21B68D4
:10145000984708BD08B50368C9B21B68984708BD1E
:1014600008B50368C9B21B68984708BD4B0803F16B
:10147000B76000F55840B0FBF1F000F04DBD10B57D
:101480004B0803F1B76000F558401446B0FBF1F08B
:1014900000F042FD2046BDE8104000F07FBD00F0A6
:1014A000A7BD084600F0D0BD00F05CBE00F084BED1
:1014B00000F068BE00F03ABE00F096BE00F040BEFC
:1014C00008B5084600F0DCFD012008BD08B5084657
:1014D00000F0D6FD012008BD10B50846144611469F
:1014E00000F018FE204610BD38B508460D4600F045
:1014F00039FF04462146284600F00CFE204638BD40
:101500007047FFFF044B00221A714FF47A711A736F
:10151000024A99601A6070474C89FF1F58250000E5
:1015200010B5204B2048214960221A70E1225A70E0
:101530001F4B204A1C78204B082C01D1012402E0CB
:101540000A2C03D139240460132005E00C2C0CBFB5
:1015500035243D2404601220086014601860174B85
:1015600017491B78174A03B101230B601360164B10
:10157000164A1978164B012901D880210BE004295D
:1015800001D8842107E0082901D8852103E010292A
:1015900094BF86218721116019600E4B01221A70B9
:1015A00010BD00BF0040074008B003400CB003402E
:1015B0006487FF1F08B00B400CB00B405D89FF1F14
:1015C00020B0034020B00B406587FF1F24B00340CC
:1015D00024B00B405C89FF1F194B1A6842F48062EB
:1015E0001A60184A00231370174A1370174A1370B1
:1015F000174A1370174A1370174B40F213321A60D0
:101600004FF451725A60154BC0F344321A70C0F354
:1016100047125A700221042200F01F0098729A703B
:10162000D9745A7588221A743C22DA700C4B402205
:101630006FF44A711A700B444FF400521A607047ED
:1016400034800440E089FF1F5F89FF1FE889FF1F86
:10165000E189FF1F5E89FF1F40A0044000A00640F3
:101660002DE400E0134A937800F0030103F0EC034B
:101670000B43410748BF43F01003937000F00F0382
:10168000042B0C4903D18B7943F040038B715379C0
:10169000C20603F0EF03074A48BF43F0100353713B
:1016A0009379810603F0EF0348BF43F01003937171
:1016B000704700BF00A0064008B50E4B1B685B05D5
:1016C00000D408BD0C4B1A7802F0FF0312B1FFF7EB
:1016D000B1FDF7E7094A4FF400511160084A094982
:1016E000D37040F203120A604A60074A1370074A37
:1016F000137008BD348004405E89FF1F84E100E060
:1017000000A0064040A00440E089FF1F5F89FF1F42
:1017100038B50446094B1B7803F0FF05002BF9D1BF
:1017200020460121FEF776FF20462946FEF752FFAC
:10173000034B53F83420034B1A6038BD5E89FF1FFA
:101740007C230000E489FF1FF8B51D4B1B685A0578
:10175000064633D51B4B1B680BB101221A701A4B7E
:101760001C780134402C1F4628BF0024174D2B78CD
:10177000A34218D1FEF7E2FE40280FDC144A137989
:101780001B06F3D52B7813490133402B28BF0023C8
:10179000C95CDBB2C9B2D1712B70E7E7FF28E5DD88
:1017A000FFF748FDE2E70B4BF6B21E550A4B01224C
:1017B0001A70074BE4B2BC223C70DA70F8BD00BF6F
:1017C00034800440E489FF1FE889FF1FE189FF1F7F
:1017D00000A006406089FF1F5E89FF1F274B1B6822
:1017E0005A052DE9F04707468A4644D5244B1B6825
:1017F0000BB101221A703D4607EB0A039D4237D216
:10180000DFF890801F4E98F8004096F80090013461
:10181000402C28BF00245FFA89F9A1451DD11A4B3D
:10182000BC22DA70FEF78AFE40280FDC164A1379D4
:101830001B060FD5337815490133402B28BF0023F1
:10184000C95CDBB2C9B2D171337003E0FF2801DD9E
:10185000FFF7F0FC33784B45E4D00C4B15F8012B27
:101860001A550B4B0122E4B21A7088F80040C3E706
:10187000054BBC22DA70BDE8F08700BF348004401D
:10188000E489FF1FE189FF1F00A006406089FF1F58
:101890005E89FF1FE889FF1F08B5034B1B7813B152
:1018A000FFF7C8FCF9E708BD5E89FF1F064A074B32
:1018B0001B781078DBB2C0B283422CBF3F3000F1FE
:1018C000FF30C01A704700BFE189FF1FE889FF1F82
:1018D000054B1878054B1B78C0B2DBB2984238BF75
:1018E0004030C01A704700BFE089FF1F5F89FF1FAB
:1018F000094B0A4A19781378DBB2994208D00133B0
:10190000402B28BF00230649C85CDBB21370704728
:101910004FF0FF30704700BFE089FF1F5F89FF1F56
:10192000A089FF1F084B1A78084B1B78DBB29A423C
:1019300007D00133402B28BF0023054AD05CC0B23A
:1019400070474FF0FF307047E089FF1F5F89FF1F2E
:10195000A089FF1F0A4B1B685B050FD5094BDA787E
:1019600002F0CB02DA7040225A74DA7842F0340284
:10197000DA70054B1A78054BD2B21A70704700BF67
:101980003480044000A006405F89FF1FE089FF1FEC
:1019900030B5304B1A7912F0300F23D072B69A7DE1
:1019A00002F0FF0122B9DA7940225A7462B619E0D6
:1019B00062B6294B29481A780478D2B2E4B21846A4
:1019C000244BDD79531C402B28BF0023A342EDB2EA
:1019D00002D0234AD5541A464B1E13F0FF01EFD113
:1019E000D2B202701B4BD978C9B20C0620D51B7934
:1019F00018061DD51B4B1C4A1D781378EDB2DBB2BF
:101A00001046AB420CD0134A0133402B1479174CCB
:101A100028BF0023E45CE4B2D471127D072AF0D918
:101A2000DBB203700B4B1A79120644BF7C22DA70CA
:101A30004B060ED5074B1A7912F0400F194608D005
:101A40000B4B00221A700B4B1B6803B11A703C231E
:101A5000CB7030BD00A00640E089FF1F5F89FF1FEB
:101A6000A089FF1FE889FF1FE189FF1F6089FF1F11
:101A70005E89FF1FE489FF1F194B1A6842F4006258
:101A80001A60184A00231370174A1370174A13700C
:101A9000174A1370174A1370174B40F213321A602B
:101AA0004FF451725A60154BC0F344321A70C0F3B0
:101AB00047125A7000F01F000422022198729A7097
:101AC000D9745A7588221A743C22DA700C4B402261
:101AD0001A70A3F22B334FF400421A60704700BF14
:101AE00034800440538AFF1FEA89FF1F5C8AFF1F6E
:101AF000548AFF1FE989FF1F0CB0044000B0064064
:101B00002FE400E0134A937800F0030103F0EC03A4
:101B10000B43410748BF43F01003937000F00F03DD
:101B2000042B0C4903D18B7943F040038B7153791B
:101B3000C20603F0EF03074A48BF43F01003537196
:101B40009379810603F0EF0348BF43F010039371CC
:101B5000704700BF00B0064008B50E4B1B681B0560
:101B600000D408BD0C4B1A7802F0FF0312B1FFF746
:101B700061FBF7E7094A4FF400411160084A09493F
:101B8000D37040F203120A604A60074A1370074A92
:101B9000137008BD34800440E989FF1F84E100E030
:101BA00000B006400CB00440538AFF1FEA89FF1FB3
:101BB00038B50446094B1B7803F0FF05002BF9D11B
:101BC00020460121FEF726FD20462946FEF702FDAC
:101BD000034B53F83420034B1A6038BDE989FF1FCB
:101BE0007C230000588AFF1FF8B51D4B1B681A059F
:101BF000064633D51B4B1B680BB101221A701A4BDA
:101C00001C780134282C1F4628BF0024174D2B7840
:101C1000A34218D1FEF792FC40280FDC144A137936
:101C20001B06F3D52B7813490133282B28BF00233B
:101C3000C95CDBB2C9B2D1712B70E7E7FF28E5DDE3
:101C4000FFF7F8FAE2E70B4BF6B21E550A4B0122FA
:101C50001A70074BE4B2BC223C70DA70F8BD00BFCA
:101C600034800440588AFF1F5C8AFF1F548AFF1F7C
:101C700000B00640EB89FF1FE989FF1F274B1B6857
:101C80001A052DE9F04707468A4644D5244B1B68C0
:101C90000BB101221A703D4607EB0A039D4237D271
:101CA000DFF890801F4E98F8004096F800900134BD
:101CB000282C28BF00245FFA89F9A1451DD11A4BB1
:101CC000BC22DA70FEF73AFC40280FDC164A137982
:101CD0001B060FD5337815490133282B28BF002365
:101CE000C95CDBB2C9B2D171337003E0FF2801DDFA
:101CF000FFF7A0FA33784B45E4D00C4B15F8012BD5
:101D00001A550B4B0122E4B21A7088F80040C3E761
:101D1000054BBC22DA70BDE8F08700BF3480044078
:101D2000588AFF1F548AFF1F00B00640EB89FF1F2F
:101D3000E989FF1F5C8AFF1F08B5034B1B7813B1AD
:101D4000FFF778FAF9E708BDE989FF1F064A074B54
:101D50001B781078DBB2C0B283422CBF273000F171
:101D6000FF30C01A704700BF548AFF1F5C8AFF1FF4
:101D7000054B1878054B1B78C0B2DBB2984238BFD0
:101D80004030C01A704700BF538AFF1FEA89FF1F07
:101D9000094B0A4A19781378DBB2994208D001330B
:101DA000402B28BF00230649C85CDBB21370704784
:101DB0004FF0FF30704700BF538AFF1FEA89FF1FB3
:101DC000138AFF1F084B1A78084B1B78DBB29A4224
:101DD00007D00133402B28BF0023054AD05CC0B296
:101DE00070474FF0FF307047538AFF1FEA89FF1F8B
:101DF000138AFF1F0A4B1B681B050FD5094BDA78A6
:101E000002F0CB02DA7040225A74DA7842F03402DF
:101E1000DA70054B1A78054BD2B21A70704700BFC2
:101E20003480044000B00640EA89FF1F538AFF1F38
:101E300030B5304B1A7912F0300F23D072B69A7D3C
:101E400002F0FF0122B9DA7940225A7462B619E031
:101E500062B6294B29481A780478D2B2E4B21846FF
:101E6000244BDD79531C402B28BF0023A342EDB245
:101E700002D0234AD5541A464B1E13F0FF01EFD16E
:101E8000D2B202701B4BD978C9B20C0620D51B798F
:101E900018061DD51B4B1C4A1D781378EDB2DBB21A
:101EA0001046AB420CD0134A0133282B1479174C3F
:101EB00028BF0023E45CE4B2D471127D072AF0D974
:101EC000DBB203700B4B1A79120644BF7C22DA7026
:101ED0004B060ED5074B1A7912F0400F194608D061
:101EE0000B4B00221A700B4B1B6803B11A703C237A
:101EF000CB7030BD00B00640538AFF1FEA89FF1F38
:101F0000138AFF1F5C8AFF1F548AFF1FEB89FF1F84
:101F1000E989FF1F588AFF1F174B1A6842F4805245
:101F20001A60164A00231370154A1370154A13706D
:101F3000154A1370154A1370154A40F21331116097
:101F40004FF451715160134AC0F344311170C0F322
:101F5000471100F01F0051709072937013742C237E
:101F6000D3700D4B40226FF44B711A700B444FF439
:101F700000321A60704700BF34800440C78AFF1FD8
:101F80005E8AFF1FD08AFF1FC88AFF1F5D8AFF1F5E
:101F900008C0044000C0064031E400E0134A9378D2
:101FA00000F0030103F0EC030B43410748BF43F08B
:101FB0001003937000F00F03042B0C4903D18B79AD
:101FC00043F040038B715379C20603F0EF03074AD5
:101FD00048BF43F0100353719379810603F0EF0378
:101FE00048BF43F010039371704700BF00C0064024
:101FF00008B50E4B1B68DB0400D408BD0C4B1A78E7
:1020000002F0FF0312B1FFF715F9F7E7094A4FF4A1
:1020100000311160084A0949D37040F203120A6086
:102020004A60074A1370074A137008BD34800440A1
:102030005D8AFF1F84E100E000C0064008C0044044
:10204000C78AFF1F5E8AFF1F38B50446094B1B78FD
:1020500003F0FF05002BF9D120460121FEF7DAFA43
:1020600020462946FEF7B6FA034B53F83420034BBB
:102070001A6038BD5D8AFF1F7C230000CC8AFF1FD9
:10208000F8B51D4B1B68DA04064633D51B4B1B689D
:102090000BB101221A701A4B1C780134282C1F46F0
:1020A00028BF0024174D2B78A34218D1FEF746FA1B
:1020B00040280FDC144A13791B06F3D52B781349FB
:1020C0000133282B28BF0023C95CDBB2C9B2D17110
:1020D0002B70E7E7FF28E5DDFFF7ACF8E2E70B4BF5
:1020E000F6B21E550A4B01221A70074BE4B2AC221D
:1020F0003C70DA70F8BD00BF34800440CC8AFF1F0A
:10210000D08AFF1FC88AFF1F00C006405F8AFF1FDA
:102110005D8AFF1F38B504464518AC4204D014F858
:10212000010BFFF7ADFFF8E738BDFFFF08B5034B24
:102130001B7813B1FFF77EF8F9E708BD5D8AFF1F32
:10214000064A074B1B781078DBB2C0B283422CBF23
:10215000273000F1FF30C01A704700BFC88AFF1F48
:10216000D08AFF1F054B1878054B1B78C0B2DBB235
:10217000984238BF4030C01A704700BFC78AFF1F5F
:102180005E8AFF1F094B0A4A19781378DBB299421D
:1021900008D00133402B28BF00230649C85CDBB2BE
:1021A000137070474FF0FF30704700BFC78AFF1FA2
:1021B0005E8AFF1F878AFF1F084B1A78084B1B781F
:1021C000DBB29A4207D00133402B28BF0023054AD7
:1021D000D05CC0B270474FF0FF307047C78AFF1F16
:1021E0005E8AFF1F878AFF1F024B1A78024BD2B20A
:1021F0001A7070475E8AFF1FC78AFF1F10B5214BF8
:102200001A7992060FD5204AD87913781F490133DD
:10221000402B097828BF00238B42C0B203D01C4951
:10222000C854DBB21370174AD178C9B20C0616D560
:102230001379180613D5174B17481C780378DBB2AF
:102240009C4202D16C23D37009E00133282B28BFB4
:102250000023124CE45CDBB2E4B2D47103704B0691
:102260000ED5084B1A7912F0400F194608D00C4BC6
:1022700000221A700B4B1B6803B11A702C23CB7011
:1022800010BD00BF00C00640C78AFF1F5E8AFF1F47
:10229000878AFF1FD08AFF1FC88AFF1F5F8AFF1F20
:1022A0005D8AFF1FCC8AFF1F1FB572B6154B7022C7
:1022B0001A70154A412111700F2102F8011C802269
:1022C0001A701A781206FCD5104B186862B6104BBB
:1022D000984298BF0A2301AC98BF584321460A226E
:1022E000FEF74AF90023E15C0A4A29B102EB4300F8
:1022F00001330A2B4180F6D101335B00137004B027
:1023000010BD00BF0000024007000240080002406C
:102310007F969800EE87FF1F70B50E4B0E4DED1A9D
:10232000AD1000241E46AC4204D056F8242090473D
:102330000134F8E700F060F9084D094BED1AAD10D3
:1023400000241E46AC4204D056F8242090470134A5
:10235000F8E770BD042600000426000018260000DF
:1023600004260000034613F8012B002AFBD1181A9B
:10237000013870476869000D0AFFFFFF4008FE43FF
:1023800040A004404408FE4344A004400018FE431B
:1023900000C004403000FE43309004403400FE434F
:1023A000349004401C18FE431CC004401018FE4327
:1023B00010C004400818FE4308C004400C18FE4337
:1023C0000CC004400C10FE430CB004401010FE433F
:1023D00010B004401810FE4318B004401C10FE4317
:1023E0001CB004401410FE4314B004400418FE4313
:1023F00004C004400010FE4300B004400008FE4347
:1024000000A004400408FE4304A004400C08FE435E
:102410000CA004400808FE4308A004401418FE4322
:1024200014C004401818FE4318C004400410FE43B2
:1024300004B004400810FE4308B004401400FE43FA
:10244000149004404C08FE434CA004400420FE437A
:1024500004D004402410FE4324B004402010FE4366
:1024600020B004402810FE4328B004402C10FE4346
:102470002CB004400020FE4300D004404808FE4336
:1024800048A004401000FE4310900440FFFFFFFFEF
:1024900000000000000000005D0F0000630F00005E
:1024A0004D0F0000510F0000550F0000590F0000A4
:1024B0000000000000000000F912000011130000ED
:1024C000E1120000E9120000E5120000ED12000028
:1024D000A5120000B7120000D7120000DB120000A6
:1024E000F1120000F51200007512000081120000C8
:1024F0008D12000099120000211300000513000046
:102500000000000000000000DD130000F5130000D3
:10251000C5130000CD130000C9130000D113000043
:10252000891300009B130000BB130000BF130000C1
:10253000D5130000D91300005913000065130000E3
:10254000711300007D13000005140000E913000062
:102550000000000000000000C1140000D9140000B9
:10256000A9140000B1140000AD140000B51400005F
:102570006D1400007F1400009F140000A3140000DD
:10258000B9140000BD1400003D14000049140000FF
:102590005514000061140000E9140000CD1400007F
:1025A00000151915000100006687FF1F12000000CA
:1025B000000200009087FF1F43000000000300009E
:1025C000EA87FF1F00000000010309047887FF1F4E
:1025D0000000000002030904D487FF1F0000000070
:1025E00003030904EE87FF1F000000000000000045
:1025F0000000000000000000F8B500BFF8BC08BCF7
:102600009E467047350400006D0F00003D1300002A
:08261000211400000515000073
:10261800FFFFFFFF0A041201000202000040C0167B
:1026280083040001010203011803540065006500DA
:102638006E00730079006400750069006E006F0019
:1026480009024300020100C032090400000102022D
:1026580001000524001001052401010104240206DB
:102668000524060001070582031000400904010043
:10267800020A000000070503024000000705840263
:10268800400000001603550053004200200053008C
:1026980065007200690061006C00040309040C0302
:1026A8000000000000000000000000000000000022
:0426B800000000001E
:00000001FF
