:1000000000800020BD0100005D20000029200000CC
:1000100029200000292000002920000029200000BC
:100020002920000029200000292000005D20000078
:100030005D200000292000005D2000001920000044
:100040005D2000005D2000005D2000005D200000BC
:100050005D2000005D2000005D2000005D200000AC
:100060005D2000005D2000005D2000005D2000009C
:100070005D2000005D2000005D2000005D2000008C
:100080005D2000005D2000005D2000005D2000007C
:100090005D2000005D2000005D2000005D2000006C
:1000A00069500000755000005D2000005D200000D8
:1000B0005D2000005D2000005D2000005D2000004C
:1000C0005D2000005D2000005D2000005D2000003C
:1000D0005D2000005D2000005D2000005D2000002C
:1000E0005D2000005D2000005D2000005D2000001C
:1000F0005D200000E15A00005D2000003961000031
:100100005D200000E96500005D2000005D2000002A
:100110005D2000005D2000005D2000005D200000EB
:100120005D2000005D2000005D2000005D200000DB
:100130005D2000005D2000005D2000005D200000CB
:100140005D2000005D2000005D2000005D200000BB
:100150005D2000005D2000005D2000005D200000AB
:100160005D200000A52700005D2000005D2000004C
:100170005D2000005D2000005D2000005D2000008B
:100180005D2000005D2000005D2000005D2000007B
:100190005D2000005D2000005D2000005D2000006B
:1001A0005D2000005D2000005D2000005D2000005B
:1001B0005D2000005D2000005D200000564B4CF2E9
:1001C000205210B51A804DF628121A8000BF00BFC9
:1001D00001F048FF514B4FF010621A60504A9A608C
:1001E000504ADA60A3F53043203B1A6812F480725B
:1001F00004D14D490A604FF4A8521A604B4B1A784B
:10020000110703D51A7842F008021A70484B2A22C7
:100210001A700023474A48499818884204D247492F
:10022000595899500433F5E7454A464B9A424FF0E6
:10023000000302D242F8043BF7E74349434A5958C6
:1002400099500433B3F5DE7FF7D1414B802103F899
:10025000011B40498B42F9D13F4B1A603F4B0A22A8
:100260001A70A3F5805324225A70A0221A709A792A
:100270009207FCD59A79D406FCD4394B9A7902F0CE
:100280000C02082AF9D103221A7140225A719A7974
:100290009006FCD5324B9A795106FBD5314A32494A
:1002A00011600221516020221A702D4B9B7903F0BE
:1002B0000C030C2BF9D12D4B2D4A1A602D4B2E4AD5
:1002C0001A6000225A60072243F8042C2B4AC3F814
:1002D0000C2D62B602F04EF9134B1B68DA0705D5F8
:1002E000274802F097F8274B274A1A60274B1B78BC
:1002F0005B0609D5234C244A2368934204D1204845
:1003000002F088F80023236008F0DCF901F0B0FE69
:1003100001F0F0FAFEE700BF0E20054030800440F7
:10032000823F04000100002B14D0034002D007409C
:1003300000E007406087FF1F588DFF1F108E0000F0
:10034000588DFF1F9494FF1F000000000082FF1FC4
:1003500000E400E05FE400E008ED00E0005006404B
:100360000040064044800440000003010480044033
:10037000C010050014E000E0FF760100000020201E
:10038000A691BA571CE00340A5C3945A00F0074059
:10039000FFFFFFFFFFFFFFFFFFFFFFFFFFFFFFFF6D
:1003A000FFFFFFFFFFFFFFFFFFFFFFFFFFFFFFFF5D
:1003B000FFFFFFFFFFFFFFFFFFFFFFFFFFFFFFFF4D
:1003C000FFFFFFFFFFFFFFFFFFFFFFFFFFFFFFFF3D
:1003D000FFFFFFFFFFFFFFFFFFFFFFFFFFFFFFFF2D
:1003E000FFFFFFFFFFFFFFFFFFFFFFFFFFFFFFFF1D
:1003F000FFFFFFFFFFFFFFFFFFFFFFFFFFFFFFFF0D
:10040000FFFFFFFFFFFFFFFFFFFFFFFFFEFFFFFFFD
:1004100010B5054C237833B9044B13B10448AFF33E
:1004200000800123237010BD588DFF1F00000000C5
:10043000108E000008B5064B1BB106480649AFF305
:1004400000800648036813B1054B03B1984708BD07
:1004500000000000108E00005C8DFF1F588DFF1FF4
:100460000000000038B5044608460D4608F008FABA
:10047000236802465B6820462946984738BD08B580
:10048000FFF7F0FF08BD9DF80010009101F0E8BCF7
:1004900038B50446FFF7E6FF0546204601F08EFC1E
:1004A000284438BD38B5044601F0D0FC0546204646
:1004B00001F084FC284438BD13B50B460021427B73
:1004C0000091016904F015FB02B010BD08B5036886
:1004D000C9B21B68984708BD2DE9F74F8346084607
:1004E00014468A4607F0ECFE07F07EFA06F0A2FCFE
:1004F000804689462046214607F0E2FE07F074FA5E
:10050000044658460D4607F06FFA224606460F4647
:100510002B464046494607F009F902460B4630464D
:10052000394606F085FC07F06DFDDFF8BC805946C2
:10053000C8F80000584607F0C3FE07F055FA06F069
:1005400079FC064650460F4607F04EFA2246824690
:100550008B462B463046394607F0E8F802460B46F4
:100560005046594606F064FC04460D46D8F8000093
:100570001849194E07F0A4FE2946C8F80000204685
:1005800007F040FD1349154C07F09AFE14493060FE
:100590002046FFF774FFD8F8000007F025FA02257F
:1005A00002460B4600952046FFF76DFF20460D4999
:1005B000FFF765FF306807F017FA009502460B4613
:1005C000204601F04DFC204603B0BDE8F04F01F09D
:1005D000F5BB00BFE02E6542308EFF1F5492FF1F17
:1005E000AC8800009B880000808DFF1FFFFFFFFF8D
:1005F0002DE9F04F99B011922B4A109312682A4BB3
:100600000492294A5B680A9101460393D2F808B024
:10061000D2F80CA00B9007F053FE07460A98249ED0
:10062000259D269C014607F04BFE0146384607F003
:100630003FFD07461198014607F042FE0146384645
:1006400007F036FD07F0D0F906F0F4FB07F0DAFC0E
:100650000021804607F0C8FF002840F0D7843146CB
:10066000304607F02DFE29460746284607F028FEAB
:100670000146384607F01CFD21460746204607F094
:100680001FFE0146384607F013FD07F0ADF906F0EE
:10069000D1FB07F0B7FC0021074607F0A5FF0028B3
:1006A00040F0B48402E000BF6487FF1F0498014655
:1006B00007F0FEFC05900398014607F0F9FC594647
:1006C0000C90584607F0F4FC51460D90504607F048
:1006D000EFFC13900498014607F0F2FD039909908E
:1006E000049807F0EDFD594603460498009307F07F
:1006F000E7FD14900398014607F0E2FD51460E9085
:10070000039807F0DDFD59460790584607F0D8FDDD
:1007100051460690504607F0D3FD414608904FF0F1
:100720007E5007F081FE394612904FF07E5007F060
:100730007BFE07463946304607F0C2FD3946804603
:10074000284607F0BDFD39460546204607F0B8FDAE
:1007500041460746059807F0B3FD29460F900598D6
:1007600007F0AEFD39468146059807F0A9FD4146E0
:1007700004460C9807F0A4FD09990646404607F088
:100780009FFD514602464846029207F099FD029AA3
:100790000146104607F08AFC59460246204602925E
:1007A00007F08EFD029A0146104607F081FC0E9973
:1007B00002464046029207F083FD029A0146104627
:1007C00007F076FC294602460C98029207F078FD65
:1007D000594607F075FD029A0146104607F068FC7D
:1007E000394602460C98029207F06AFD514607F01E
:1007F00067FD029A0146104607F05AFC0699024628
:100800004046029207F05CFD029A0146104607F04E
:100810004DFC089902464046029207F051FD029AAB
:100820000146104607F042FC514684460F98CDF829
:1008300004C007F045FD099902462846029207F0D8
:100840003FFD029A0146104607F032FC039902462A
:100850002046029207F034FD029A0146104607F046
:1008600025FC59460446304607F02AFD014620463D
:1008700007F01EFC0E990446284607F021FD0146AC
:10088000204607F013FC06990446284607F018FD99
:100890000146204607F00CFC394604460D9807F047
:1008A0000FFD514607F00CFD0146204607F000FC05
:1008B00008990446284607F003FD0146204607F044
:1008C000F5FBDDF804C0024661466046029207F07F
:1008D000F7FC029A04461146104607F0F1FC014667
:1008E000204607F0E5FB07F07FF806F0A3FA07F0D3
:1008F00089FB0F9A0446594602F1004007F0E0FCDC
:10090000039902464846029207F0DAFC029A014631
:10091000104607F0CDFB09998146384607F0D0FC18
:100920000146484607F0C4FB51468146304607F071
:10093000C7FC0146484607F0BBFB0E990646384601
:1009400007F0BEFC0146304607F0B0FB29460646DC
:100950000D9807F0B5FC514607F0B2FC0146304651
:1009600007F0A6FB06990646384607F0A9FC0146A3
:10097000304607F09BFB08990646384607F0A0FC76
:100980000146304607F094FB0146064607F090FB0F
:1009900015900798014607F08BFB5946814605984C
:1009A00007F08EFC0146484607F080FB129981460D
:1009B0000B9807F085FC0146484607F077FB099045
:1009C000009B1946184607F073FB514681460D9867
:1009D00007F076FC0146484607F06AFB129981460B
:1009E0000A9807F06DFC0146484607F05FFB594640
:1009F0000A90304607F064FC069916904FF07C5040
:100A000007F054FB089907F051FB0146204607F018
:100A100057FC14998146079807F048FB0146304679
:100A200007F04EFC0146484607F042FB414607F0FE
:100A30003DFB04F100420399089030460F9207F005
:100A40003FFC59461790039807F03AFC5146804600
:100A5000049807F035FC0146404607F027FB0146A5
:100A6000204607F02DFC51468046584607F028FCEA
:100A7000009B0146184607F01BFB0146304607F075
:100A80001FFC0146404607F013FB294607F00EFB0A
:100A900059460B90204607F013FC07990546149819
:100AA00007F006FB0146204607F00AFC0E99804637
:100AB0004FF07C5007F0FAFA069907F0F7FA014672
:100AC000304607F0FDFB0146404607F0F1FA394693
:100AD00007F0ECFA0D9B0999079003F1004007F02D
:100AE000EFFB0A9907460C9807F0EAFB01463846E7
:100AF00007F0DEFA08990746169807F0E1FB014671
:100B0000384607F0D3FA514607460F9807F0D8FB4E
:100B1000179907F0CDFA0B9907F0D2FB014638463A
:100B200007F0C6FA07990746284607F0C9FB0146B1
:100B3000384607F0BDFA03460E980093014607F0C9
:100B4000B7FA01464FF07E5007F0B0FA0746069814
:100B5000014607F0ADFA0146384607F0A7FA1299A8
:100B60000746119807F0ACFB0146384607F09EFA9D
:100B700051468146304607F0A3FB049907463046AC
:100B800007F09EFB09998046139807F099FB0A9994
:100B90000646059807F094FB0146304607F088FAB0
:100BA0004FF081410646039807F08AFB494607F05B
:100BB00087FB0146304607F079FA08990646384621
:100BC00007F07EFB0146304607F072FA41460646C2
:100BD000284607F06DFA0B9907F072FB0146304684
:100BE00007F066FA51460546204607F069FB03996F
:100BF0000646159807F064FB0146304607F056FAA2
:100C0000079907F05DFB0146284607F051FA214697
:100C10000690204607F04CFA039900F10046204662
:100C200007F04EFB059A0999054602F1004007F0CE
:100C300047FB0A9902461398029207F041FB029A79
:100C40000146104607F034FA4FF0814102465846FB
:100C5000029207F035FB494607F032FB029A014643
:100C6000104607F023FA59468146304607F028FB24
:100C7000414607F01BFA089907F022FB0146484657
:100C800007F016FA39468046284607F011FA0B9904
:100C900007F016FB0146404607F00AFA049907469A
:100CA000204607F00DFB59460446159807F008FB4F
:100CB0000146204607F0FAF9079907F001FB0146C3
:100CC000384607F0F5F9099984460C98CDF804C028
:100CD00007F0F6FA0A9904460D9807F0F1FA014672
:100CE000204607F0E5F951460446304607F0E8FA99
:100CF000179907F0DDF9089907F0E2FA0146204656
:100D000007F0D6F9049904460F9807F0D9FA169916
:100D100007F0CEF90B9907F0D3FA0146204607F009
:100D2000C7F907990446284607F0CAFA0146204643
:100D300007F0BEF9009B81461946184607F0C0FA35
:100D400004460698014607F0BBFA0146204607F024
:100D5000AFF9DDF804C004466146604607F0B0FA1A
:100D60000146204607F0A4F949460446484607F0E4
:100D7000A7FA0146204607F09BF906F035FE06F07B
:100D800059F807F03FF901464FF07E5007F04CFB51
:100D9000A34A10991668039A074602F1004007F02B
:100DA0008FFA22990446584607F08AFA01462046EF
:100DB00007F07CF923990446504607F081FA014672
:100DC000204607F073F94FF07C5107F079FA06F0EE
:100DD0000BFE009B04460D461846394607F070FA94
:100DE00006F002FE8CA3D3E9002306F051FE024672
:100DF0000B462046294606F097FC07F003F93146DA
:100E000007F05EFA0146049807F052F910998046FF
:100E1000049807F055FA23990446584607F050FA0B
:100E20000146204607F044F922990446504607F04F
:100E300047FA0146204607F039F94FF07C5107F098
:100E40003FFA06F0D1FD04460D460698394607F0F4
:100E500037FA06F0C9FD70A3D3E9002306F018FEA7
:100E600002460B462046294606F05EFC07F0CAF80B
:100E7000314607F025FA0146039807F019F9059065
:100E80002299049807F01CFA23990446039807F066
:100E900017FA0146204607F009F910990446504612
:100EA00007F00EFA0146204607F002F94FF07C5198
:100EB00007F006FA06F098FDDDF804C004460D467A
:100EC0006046394607F0FCF906F08EFD52A3D3E9DF
:100ED000002306F0DDFD02460B462046294606F0BB
:100EE00023FC07F08FF8314607F0EAF9014658462F
:100EF00007F0DEF8239984460498CDF804C007F083
:100F0000DFF922990446039807F0DAF901462046F2
:100F100007F0CEF810990446584607F0D1F901467B
:100F2000204607F0C3F84FF07C5107F0C9F906F0EE
:100F30005BFD04460D464846394607F0C1F906F008
:100F400053FD35A3D3E9002306F0A2FD02460B466C
:100F50002046294606F0E8FB07F054F8314607F032
:100F6000AFF90146504607F0A3F841460546404612
:100F700007F0A6F904460598014607F0A1F90146D5
:100F8000204607F095F8DDF804C004466146604647
:100F900007F096F90146204607F08AF829460446EC
:100FA000284607F08DF90146204607F081F806F043
:100FB0001BFD05F03FFF07F025F801464FF07E507E
:100FC00007F032FA04462146404607F079F9154BFE
:100FD000804618602146059807F072F9DDF804C0D4
:100FE000104A074650602146604607F069F90D4BEC
:100FF000064698602146284607F062F90A4B094ADE
:10100000C3F82480D0609F62DE62186319B0BDE827
:10101000F08F00BFAFF30080544C12B3E158E33FB0
:10102000848DFF1F6487FF1FE88DFF1FAFF30080D3
:101030002DE9F04FB349B448B44E87B0FFF728FA12
:10104000182001F017FA00283ED0B14CB14D2046CF
:1010500002F093FBB4F90010204602F061FA29680F
:1010600007F024F8B4F90210F060204602F058FAB4
:10107000696807F01BF8B4F904103061204602F0EB
:101080004FFAA96807F012F8B4F900107061204611
:1010900002F046FA296807F009F8B4F90210804610
:1010A000204602F03DFA696807F000F8B4F9041030
:1010B0000746204602F034FAA96806F0F7FF3946E1
:1010C00002464046FFF708FA1B2001F0D3F900283A
:1010D0003DD08F4C904D204602F086FBB4F90610AF
:1010E000204602F026FA296806F0E0FFB4F908105D
:1010F0003060204602F01DFA696806F0D7FFB4F9A7
:101100000A107060204602F014FAA96806F0CEFFBB
:10111000B4F90610B0607C4800F098FE7F497A4828
:10112000FFF7ADF9B4F90810774800F08FFE7B495E
:101130007548FFF7A4F9B4F90A10734800F086FE69
:1011400071487649FFF79BF96F4800F037FE202081
:1011500001F090F9002833D06D4C204602F062FB7C
:10116000B4F90C10204602F0EDF9B4F90E10B0619C
:10117000204602F0E7F9B4F91010F061204602F0C1
:10118000E1F9B4F90C1030625F4800F05FFE63498A
:101190005D48FFF774F9B4F90E105B4800F056FE95
:1011A0005E495948FFF76BF9B4F91010564800F042
:1011B0004DFE55485949FFF762F9534800F0FEFDCE
:1011C000F0685749574F07F07BF8574907F02CF95B
:1011D00053490446306907F073F8534907F024F97E
:1011E0004F490090706907F06BF84F4907F01CF900
:1011F000B3690293F3690393336AB268019004936D
:10120000306871682346FFF7F3F9D7F804B0D7F8D0
:1012100008A0D7F80090D7F80C805146584607F040
:101220004FF841460446484607F04AF80146204632
:1012300006F03EFF014606F03BFF06F0D5FB0446F4
:101240000D464846494607F03BF859468146584600
:1012500007F036F80146484606F02AFF5146814617
:10126000504607F02DF80146484606F01FFF41465C
:101270008146404607F024F80146484606F016FF2E
:1012800006F0B2FB02460B462046294605F0D0FD8B
:1012900006F0B8FEF968B063786807F011F8B9682D
:1012A0000446386807F00CF80146204606F0FEFEBA
:1012B000014606F0FDFE06F097FB05F065FD06F021
:1012C000A1FED7F800A0D7F80490D7F80880FF68EF
:1012D00000F1004070634946504606F0F1FF394680
:1012E0000446404606F0ECFF0146204606F0E0FECC
:1012F000014606F0DDFE06F077FB04460D4650463B
:1013000014E000BFD38800005492FF1FE88DFF1F38
:10131000888DFF1FDC8DFF1F748DFF1FD18800009B
:10132000DB0F49406487FF1F00003443514606F03D
:10133000C7FF49468246484606F0C2FF014650466E
:1013400006F0B4FE41468146404606F0B9FF01462C
:10135000484606F0ABFE39468046384606F0B0FFF8
:101360000146404606F0A4FE06F03EFB02460B4650
:101370002046294605F05CFD04460D46706B0A497F
:1013800006F09EFF08497063B06B06F099FF29468E
:10139000B063204606F036FE034906F091FFF06385
:1013A000024807B0BDE8F08FE02E6542E88DFF1FD0
:1013B00013B5094C7621204603F032F920461E2150
:1013C000FFF784F800230093627B21692046012304
:1013D00003F08FFB02B010BD9492FF1F2DE9F04384
:1013E00085B0002580468DF80C508DF80D501C4CB2
:1013F000762120466F0003F013F947F0A001204644
:10140000FFF764F800212046FFF756F80026012375
:101410008DE84800617B20697622022303F07EFB81
:101420002069D0F83811D0F83421914206F1010931
:1014300008D003F08BFB04AB53FA86F606F8040CD5
:101440004E46EDE79DF80C209DF80D30013543EA3E
:101450000223072D28F80730C9D105B0BDE8F08375
:101460009492FF1F0388C3F30B0303800023C381FF
:101470001A46511012F0010F15BF10F8111030F874
:1014800011104B4083EA1123082113F4004F01F19E
:10149000FF314FEA430318BF83F4405311F0FF01BB
:1014A000F3D10132102AE4D1C3F303307047FFFFB8
:1014B0002DE9FF415E4C5F4E4FF47A7001F044F825
:1014C00020465D490025FEF7E3FF042705232A4651
:1014D000019302972B4629460095304602F05EFCA8
:1014E000564980462046FEF7CAFF2B461022414649
:1014F000204600F073FC204600F060FC5049204676
:10150000FEF7C6FF204600F059FC41F2883001F09A
:101510001BF83046294602F0E2FB3046294602F02D
:10152000ACFA3046294602F0F0FB3046072102F0C3
:1015300002FC3046032102F00FFC3046394602F02F
:10154000B2FA3046022102F018FC3E4A3E493046CB
:1015500002F0C9FA3D4EFFF72BFF642000F0F4FFC4
:101560003B492046FEF794FF3046FFF737FF204601
:101570003849FEF78DFF20463749FEF780FF318856
:101580002046FEF78FFF204634493788FEF777FF65
:1015900071882046FEF786FF20463149FEF76FFF2F
:1015A000B1882046FEF77EFF20462E49FEF767FFF2
:1015B000F1882046FEF776FF20462B49FEF75FFFB5
:1015C00031892046FEF76EFF20462849FEF757FF77
:1015D00071892046FEF766FF20462549FEF74FFF3A
:1015E000B1892046FEF75EFF3046FFF73BFF214EF4
:1015F000214930702046FEF742FF2B4631780A22FF
:10160000204600F0EBFB3F1320461C49FEF737FF56
:1016100039460A222B46204600F0E0FB204600F027
:10162000CDFB4FF4FA7004B0BDE8F04100F08CBF80
:101630005492FF1F888DFF1FE2880000F988000088
:1016400019890000748DFF1FDC8DFF1FC88DFF1FDF
:101650002A8900004A8900005A8900006089000038
:10166000668900006C89000072890000788900009A
:101670007E890000D88DFF1F8489000090890000BA
:1016800008B56B221D230648012101F041FF054BDF
:101690004FF07E525A6200229A62DA621A6308BDE3
:1016A000888DFF1FE88DFF1F0020704713B503686A
:1016B0001C6800230A468DF800308DF801308DF843
:1016C00002308DF804308DF805308DF8063069460B
:1016D00001ABA04702B010BD074BDA6A5104FBD43E
:1016E0004FF080525A63DA6A5204FCD4024B4FF036
:1016F00080525A63704700BF00C00240202390FB15
:10170000F3F00F4BDA6A12F4804F1A46F9D1FF2139
:101710005963D36A13F48043FBD1094A5363084ADF
:10172000D36A13F48043FAD15363D36A13F480432A
:10173000FBD1034A10F1FF305363E2D2704700BF80
:1017400000C0024008B50720012100F0A1FE0121E0
:101750000E2000F09DFE0B4A0B4B116811F4805FC8
:1017600004D141F480511160084ADA601A6842F0ED
:1017700000421A601A6822F4804222F001021A60C4
:1017800008BD00BF3C80044000C002400100013899
:1017900010B50D20012100F07BFE2248046814F0F2
:1017A00001041FD100F06EFCE0B11F4BFF221A7341
:1017B0005A739A73DA731A745A7401229A741B4A10
:1017C0005C6011685C619C6001B9136018490A682B
:1017D00002B19360174A1A6000229A6111480B60A7
:1017E00000F056FC144C15490F48CD22002301F09F
:1017F00037FD2046012101F0BDFC0A2323700121A1
:101800000D2000F017FEC82000F09EFE0D200021E4
:1018100000F010FEC82000F097FEBDE81040FFF772
:1018200047BE00BF6C8EFF1F388EFF1F8092FF1FC8
:101830009092FF1FA88900007892FF1F748EFF1FEF
:1018400073B5234E234C32682368D31AB3F5FA7F5D
:101850002CD9FFF7EDFB054633681F491F4823606D
:10186000FEF70DFEA86B06F0BFF8022402460B46F9
:1018700000941A4800F0F4FA19491848FEF7FFFDE1
:10188000686B06F0B1F8009402460B46134800F06E
:10189000E7FA14491148FEF7F2FDE86B06F0A4F8E8
:1018A000009402460B460D4800F0DAFA0E4B0F4842
:1018B0001A68511C1960D2B2CD21052301F0F6FC43
:1018C0000B48017802B0BDE8704001F07BBC00BF5E
:1018D0006C91FF1F708EFF1FA48800005492FF1FA1
:1018E000AB8800009B880000DC90FF1F748EFF1FF8
:1018F0007892FF1F08B5FFF74BFFFFF7A1FF01F03C
:1019000003FCFAE7104AD368B3F1605F04D11369AE
:10191000B3F1F04F00D1704712680B4B12F4804FB7
:101920004FF0605004D04FF0F042D8601A61704719
:1019300042F4804141F0010119604FF0F041D8605C
:1019400019611A60704700BF00C0024010B5164B05
:101950001A78013202F0070212F0010F1A7014BF58
:1019600080230023910744BF43F04003DBB25207BA
:1019700048BF43F020031033D9B20022837B2BB140
:101980004FF4807494FBF3F30133DBB211FB03F4E7
:101990002412C37204720BB1013BC3720132032AD9
:1019A00000F10100EAD110BD348EFF1F2DE9F04F88
:1019B0008BB01546827C059119788DF82210012A8A
:1019C00059789B78069504468DF823108DF82430BD
:1019D00003D105A8FFF7BAFF0CE000238DF82130F2
:1019E0008DF820308DF81F308DF81E308DF81D30A9
:1019F0008DF81C3000238DF82530674B6749DA6875
:101A0000E2611B6923620B68654A63621368654E75
:101A1000A3623368644FE362A0693B68236304F107
:101A2000180A8946904610B10268126890475046DD
:101A3000FFF768FF4FF410724FF4A273C9F800204B
:101A4000C8F800303A603360FFF746FE9DF8233057
:101A50009DF822C00093CDF804C09DF824309DF875
:101A60001FC0059A9DF820009DF821E00293CDF853
:101A70000CC00023AB4253DA517821B19DF81DA070
:101A800081FA5AF1C9B2DDF800C011FB0CF14FEA3E
:101A9000212C4CF47F4C4049D1F82CA01AF4804FF3
:101AA000F9D14CF0805CC1F834C0117821B19DF8B7
:101AB0001CC081FA5CF1C9B2DDF804C011FB0CF165
:101AC00001F47F4A917821B19DF81EB081FA5BF153
:101AD000C9B2DDF808C011FB0CF14FEA212C2E49E8
:101AE000D1F82CB01BF4804FF9D14AF0805A4AEA61
:101AF0000C0AC1F834A09DF81C10DDF80CC0C1EB35
:101B00000C018DF81C109DF81D10411A8DF81D1048
:101B10009DF81E10C1EB0E018DF81E100133A9E7D0
:101B20002846FFF7EBFD1C4BDA6A12F4704F19469A
:101B3000F9D1CA6A184B002AFBDADA6AA06942F0C6
:101B40001042DA624FF4A273C9F80030A26AC8F8F2
:101B500000203B60E36A336010B103685B6898471C
:101B60000D48E269C368216A934202D103698B423E
:101B70000ED00068084B440402D5DA60196107E012
:101B800040F4804444F001041C60DA60196118607C
:101B90000BB0BDE8F08F00BF00C0024008C0044099
:101BA00018B0044014B0044004C004402DE9F04FC4
:101BB0008DB01546827C079119788DF82A10012A7C
:101BC00059789B78089504468DF82B108DF82C30A9
:101BD00003D107A8FFF7BAFE0CE000238DF82930E7
:101BE0008DF828308DF827308DF826308DF8253087
:101BF0008DF8243003238DF82D306B4B6B49DA6858
:101C0000E2611B6923620B68694A63621368694E6B
:101C1000A3623368684FE362A0693B68236304F101
:101C2000180A8946904610B10268126890475046DB
:101C3000FFF768FE4FF410724FF4A273C9F800204A
:101C4000C8F800303A603360FFF746FD9DF82B106E
:101C50009DF82A30019102939DF82CC09DF82D101B
:101C60009DF827309DF828009DF829E0CDF80CC09C
:101C7000049105930022AA425ADA079B597821B1B0
:101C80009DF825A081FA5AF1C9B2DDF804C011FB14
:101C90000CF14FEA212C4CF47F4C4349D1F82CA095
:101CA0001AF4804FF9D14CF0805CC1F834C0197837
:101CB00021B19DF824C081FA5CF1C9B2DDF808C0F9
:101CC00011FB0CF101F47F4A997821B19DF826B0FF
:101CD00081FA5BF1C9B2DDF80CC011FB0CF14FEADF
:101CE000212C3149D1F82CB01BF4804FF9D14AF0A6
:101CF000805A4AEA0C0AC1F834A00499DDF814C0ED
:101D00000B440793089B013B08939DF82430C3EBD9
:101D10000C038DF824309DF82530C31A8DF825303A
:101D20009DF82630C3EB0E038DF826300132A2E772
:101D30002846FFF7E3FC1C4BDA6A12F4704F194691
:101D4000F9D1CA6A184B002AFBDADA6AA06942F0B4
:101D50001042DA624FF4A273C9F80030A26AC8F8E0
:101D600000203B60E36A336010B103685B6898470A
:101D70000D48E269C368216A934202D103698B422C
:101D80000ED00068084B440402D5DA60196107E000
:101D900040F4804444F001041C60DA60196118606A
:101DA0000DB0BDE8F08F00BF00C0024008C0044085
:101DB00018B0044014B0044004C0044007B5064BFA
:101DC0001B88ADF80430036801A95B6802229847BC
:101DD00003B05DF804FB00BFC089000070B5054684
:101DE0008AB022B90368C9B21B6898472CE0012A5F
:101DF00008BF0A2221B930228DF82520212413E0C2
:101E00002124B1FBF2F002FB1011C9B209290AAE7C
:101E100094BF303137312644C9B206F8241C01463C
:101E200010B1013CE4B2ECE733B1013CE4B20AABDF
:101E300023442D2203F8242C2B6801A95B68284633
:101E40002144C4F1220298470AB070BD0029BABFEC
:101E500049422D2300230A22FFF7C0BFFFFFFFFFE7
:101E60002DE9FF47804614461D46104619460022BC
:101E700000239DF8309006F07DF820B105F1004771
:101E80003D46012600E00646334B00270022F9B20A
:101E900049450AD2104619462DA3D3E9002305F07F
:101EA000F7FD013702460B46F1E72046294605F0CB
:101EB0003DFC0D46044606F085F80746334640468D
:101EC00039460A22FFF78AFF0646B9F1000F3BD0D8
:101ED000384605F067FDB9F10F0F28BF4FF00F0925
:101EE0000B4602462946204605F01EFC09F1010971
:101EF0002E238DF800305FFA89F94FF0010A002295
:101F0000164B05F0C5FD0D46044606F05BF804AB24
:101F10005344C0B200F1300203F8102C05F052FD1A
:101F20000AF1010702460B46FFB22046294605F09A
:101F3000FBFB4F4501D0BA46E1E7D8F800304046F8
:101F40005B6869464A469847304604B0BDE8F0876A
:101F5000000000A09999B93F0000E03F0000244034
:101F600010B5204B2048214960221A70E1225A7096
:101F70001F4B204A1C78204B082C01D1012402E081
:101F80000A2C03D139240460132005E00C2C0CBF6B
:101F900035243D2404601220086014601860174B3B
:101FA00017491B78174A03B101230B601360164BC6
:101FB000164A1978164B012901D880210BE0042913
:101FC00001D8842107E0082901D8852103E01029E0
:101FD00094BF86218721116019600E4B01221A706F
:101FE00010BD00BF0040074008B003400CB00340E4
:101FF0007487FF1F08B00B400CB00B40E190FF1F2F
:1020000020B0034020B00B407587FF1F24B0034071
:1020100024B00B40E090FF1F024B1A6801321A6097
:10202000704700BF6C91FF1F08B50B4C2368580325
:1020300001D500F0B7FB2368590501D503F050FD29
:1020400023681A0501D504F077F82368DB04ECD582
:1020500004F0CAFAE9E700BF3480044008B5FFF78E
:10206000E3FFFFFF014B10221A807047002005405C
:102070007047FFFF024A1368184410601846704703
:102080007887FF1F0078D0F1010038BF002070472B
:10209000012303707047FFFFEFF313839BB9EFF346
:1020A000108098B9EFF3058323B10F2B04D9084AA8
:1020B000985C01E04FF48070EFF311833BB18342F1
:1020C00038BF184670474FF0FF30704718467047CA
:1020D000F0E300E010B50023B0FBF2F402FB1400C3
:1020E000092894BF30303730C0B2C85420460CB1F4
:1020F0000133F1E7CA18547022469A4206DA885C26
:10210000CC5C8C54C8540132013BF6E7084610BD44
:102110001F4B10B51C681C60E00304D51D4B1A68EA
:102120000AB11B689847A10304D51A4B5A680AB133
:102130005B689847E20704D5164B1A6C0AB11B6C12
:102140009847A30704D5134B5A6C0AB15B6C9847A8
:10215000200704D50F4B9A6C0AB19B6C9847610716
:1021600004D50C4BDA6C0AB1DB6C9847220304D51A
:10217000084B5A6E0AB15B6E9847630306D5054B50
:10218000D3F8802012B1D3F88030984710BD00BF3B
:10219000A0A00440E490FF1F2C4B10B51C681C60ED
:1021A000200704D52A4B5A6A0AB15B6A9847E106B0
:1021B00004D5274B9A6A0AB19B6A9847620604D5F0
:1021C000234BDA6A0AB1DB6A9847230604D5204B11
:1021D0001A6B0AB11B6B9847A00604D51C4B5A6BAF
:1021E0000AB15B6B9847E10704D5194BDA6B0AB16A
:1021F000DB6B9847A20704D5154B9A6D0AB19B6D0E
:102200009847630704D5124BDA6D0AB1DB6D984726
:10221000A00504D50E4BDA6E0AB1DB6E9847E105D6
:1022200004D50B4B1A6F0AB11B6F9847620504D592
:10223000074B5A6F0AB15B6F9847230504D5044BCF
:102240009A6F0AB19B6F984710BD00BFA0B00440C1
:10225000E490FF1F1E4B10B51C681C60E00704D5FE
:102260001C4B9A680AB19B689847210604D5194B04
:102270005A690AB15B699847E20604D5154B9A6919
:102280000AB19B699847630704D5124BDA690AB112
:10229000DB699847200704D50E4B1A6A0AB11B6AFE
:1022A0009847A10704D50B4B9A6B0AB19B6B9847D3
:1022B000A20604D5074B1A6D0AB11B6D9847630639
:1022C00004D5044B5A6D0AB15B6D984710BD00BF31
:1022D000A0C00440E490FF1F114B10B51C681C60A7
:1022E000E00404D50F4BDA680AB1DB689847A10413
:1022F00004D50C4B1A690AB11B699847A20604D58C
:10230000084B1A6E0AB11B6E9847E30606D5054BBB
:10231000D3F8842012B1D3F88430984710BD00BFA1
:10232000A0900440E490FF1F094B10B51C681C608E
:10233000A20704D5074B9A6E0AB19B6E9847E30734
:1023400004D5044BDA6F0AB1DB6F984710BD00BFAC
:10235000A0D00440E490FF1F212830B531D8042AD2
:102360002FD8DFE802F00709050B03000B2306E076
:102370000A2304E0082302E00C2300E00923114AA9
:10238000114D02EBC0025468104AC2F89C51104D26
:10239000C2F8A0510F4DC2F8A4510F4DC2F8A85178
:1023A0000E4DC2F8AC5172B622680D4D22F4702267
:1023B000226042F0807242EA034345F82010236015
:1023C00062B630BDC4890000D92200000082FF1F20
:1023D000112100009921000055220000292300004E
:1023E000E490FF1F094B03EBC0035A6872B61368F1
:1023F00023F0877323F4803343F080731360044B1E
:10240000002243F8202062B6704700BFC489000054
:10241000E490FF1F044B054900221A600A60044A39
:10242000106010221A60704714D0034004D003409B
:1024300000D00340212810B518D80D4A52F830308A
:1024400093F880423CB1012211B183F8802010BD85
:1024500083F8002110BD02EBC00043681A6811B177
:1024600042F0030201E022F002021A6010BD00BF38
:10247000C4890000212806D8044B53F8303093F863
:102480000002C0B270470020704700BFC48900003E
:10249000212810B537D81C4A02EBC00301295B681C
:1024A000144601D004290FD154F83020012082F8BD
:1024B00080024FF4A2721A601A6804290CBF42F01D
:1024C000200222F020021DE052F83020002082F885
:1024D000800211B18A1E012A12D84FF4807202299B
:1024E0001A6003D11A6842F003020BE003290AD1F3
:1024F0001A6842F002021A601A6822F0010201E032
:1025000040F203121A6010BDC489000072B60B4B72
:102510000B491A680B4B1B68096862B6490102D562
:10252000322A88BF0133C2F5BB326021FF32B2FBD1
:10253000F1F24FF47A7000FB0320704718E000E0DE
:1025400004ED00E06C91FF1F38B50446FFF7DEFF95
:10255000054624B938BD013C0AD005F57A75FFF768
:10256000D5FF401BB0F57A7FF5D200F0CDFDF6E740
:1025700038BDFFFF1F4B4FF4000210B51A604FF03B
:1025800080721A604FF000721A604FF080621A6019
:102590004FF000621A60184B184A194C00204BF695
:1025A000FF71186059602823136093601361936171
:1025B00013629362136393630922226004F58054CB
:1025C000043420606160A360236144F8042C04F5A6
:1025D000FE2420600B4801600B490B608B600B4BA5
:1025E0001A60FFF7BDFCFA20FFF7AEFFBDE8104010
:1025F00000F0D6BB08E100E0048003400C800340FB
:102600000080034008800B400C800B4000800B4092
:10261000F0B50C4B0C4C1A7842F0020504EBC506E1
:1026200082F00102706009481A700678002E0CBF13
:102630008827C82786F0010647EA0141067044F85A
:102640003510F0BDD891FF1F0080FF1F5092FF1F73
:10265000431E032B10B510D872B6094A52F8230056
:1026600048B1416842F82310064A018832F8134005
:10267000611A22F8131062B610BD002010BD00BF11
:10268000C891FF1F7C94FF1F013803280AD872B637
:10269000054B53F82030002013B101305B68FBE795
:1026A00062B67047002070471C92FF1F10B572B6CB
:1026B0000123174A1A4412F8012C12071CD599005D
:1026C000144A52F831402CB902EB431308305860D9
:1026D000114B09E041F0010152F8314064B902EBBD
:1026E000C103083058600D4B42F831300C4B1A785A
:1026F000013A1A7062B610BD0133052BD9D162B60A
:10270000074B00221A70BDE8104000F0C5BB00BFA7
:10271000488C00000080FF1F88004000C800400077
:102720004692FF1F431E032B30B532D8194A400191
:1027300040F01000104472B6174CE25C032A09D82E
:10274000DFE802F0160218050830022213E0083014
:10275000042210E01148124A50F8234014B940F8FE
:10276000231002E052F82300416042F823100FE0EA
:10277000032200E00522E25410F0080F01F10803E3
:102780000A8843600CBF8823C82343EA02430360DE
:1027900062B630BD0080FF1F8491FF1F1C92FF1F97
:1027A0002C92FF1F2DE9F84FAB4F3C78E4B214F0A8
:1027B000040F3D4619D0A94B1B78A3B1A84A117844
:1027C00001F0FF0321B1013BDBB2137003B900BE7E
:1027D000A44A117801F0FF0329B1013BDBB2137069
:1027E0000BB900F06DFC04233B7004F0080303F008
:1027F000FF02002B00F067829B4B9C4C1A78D2B2F0
:1028000015094FEA920840F0E48104EBC8035968C7
:1028100054F83830C3F38303013B0C2B00F2D6810C
:10282000DFE813F095019501D401D401D401D4015E
:10283000D401D401B001D401D401D4010D008C4DD8
:102840000A684B688B486B6001218B4B44F8383029
:102850002A60DFF85082017092B240F2816000235A
:102860008242C8F800302361A36117D8B2F5D06F57
:1028700080F01E81B2F5817F00F0CF8006D8802ADB
:1028800000F0BA80822A00F0BB8031E140F20233CE
:102890009A4200F0D180B2F5A06F1CE042F2210014
:1028A000824200F051810ED8B2F5086F00F09E8090
:1028B000B2F5106F40F01C81684B6C4EAA781A700C
:1028C00006F180090AE042F221218A4200F00881E3
:1028D00042F221339A4200F00F8109E1336A1B066C
:1028E00003D5706A083800F0D7FA08364E45F5D19E
:1028F0000026B146DFF8B0A156F80A0028B1D0F89A
:1029000004B000F0C9FA5846F8E74AF806005B4BF5
:10291000DFF898A1F05056F80A0028B1D0F804B0BA
:1029200000F0BAFA5846F8E7554B4AF80600F0505E
:10293000544B23F81900544B19F80320023A032A88
:1029400008D8DFE802F002040204002200E00122BD
:1029500003F8092009F10109B9F1040F06F1040691
:10296000C8D14A4B00221A7001269A46484A494B60
:102970003244334412F8012C9B0012F0080F1A70F5
:102980004FEA860925D000F069FA38B104EB461306
:1029900008305860404B44F8393006E09AF800306F
:1029A00044F8390001338AF8003000F057FA49F052
:1029B000010338B104EBC302083050602E4A44F8DA
:1029C000332006E044F833009AF8003001338AF8E7
:1029D000003049F00202013649F003090023052EB8
:1029E00044F8323044F83930C0D186E01B4B2B4CD0
:1029F0001B7823700B4683E0284C237063707EE0C5
:102A0000AA88042A74D8254C920023706370244B42
:102A10009B5C9E0773D5217071E0AA8802F07F024B
:102A2000042A65DC6B88002B62D191001C4A0A44A1
:102A3000117821F0020159E0AA8802F07F02042AED
:102A400056DC6B88002B53D19100154A0A4411784B
:102A500041F002014AE000BF802007404F92FF1F73
:102A6000D991FF1F6492FF1F902007400080FF1F35
:102A70003C92FF1F5092FF1FC80040007491FF1F3F
:102A80002C92FF1F7C94FF1F8491FF1F4692FF1F13
:102A9000488C000030C80110880040004792FF1F9A
:102AA000C02007407091FF1FC891FF1F1C92FF1F9D
:102AB0006A88A9889F4B53F8084CA3F10C00BCB15D
:102AC00033F80C6C964209D133F80A6C8E4205D16A
:102AD000120A032A0CBF2378038911E00C33EAE7BA
:102AE000954A1168954A1160A978954A117004E0D9
:102AF000944B0F221A7027E000231C4600E00223AB
:102B0000EE88B34238BF1E46402E34BF35464025BE
:102B100020462946FFF77CFD761B2C4403D1402D2F
:102B200012D1354603E0402E34BF354640252046BD
:102B30002946FFF76DFD761B2C4401D1402D03D1B2
:102B4000814AC8F8004016800122804B3DE0804B4E
:102B50001A8842F221039A4210D100237D4AC85CB0
:102B600098540133072BF9D11368862B02D17A4B85
:102B70000F221A7000200146FFF74AFD774B44F8F8
:102B8000383023E0764E3568B5B1DFF8BC81B8F84F
:102B90000090B9F1400F34BF4C46402428462146EE
:102BA000FFF736FDC4EB09039BB2A8F800300BB960
:102BB000402C00D12B193360654B1A88B2F5A06FF9
:102BC00004D100225A709A78664B1A7001225F4B2A
:102BD0006CE004EBC806013D736802F00802A3F143
:102BE0000800EDB202F0FF01002A36D000F054F9DF
:102BF0005D485E4B50F82520EAB1516840F8251039
:102C000002F108017160595D03290BD8DFE801F07A
:102C100002040608032104E0022102E0052100E08D
:102C20000421595516F0080F12880CBF8823C823B9
:102C300043EA024342E05A5D032A07D8DFE802F084
:102C400040400204002206E0012204E016F0080FD2
:102C50000CBF022203225A5532E054F83820120CDD
:102C600023F8082C22B3DFF834E123F8061C43F8DC
:102C7000041C5EF825303E4913B94EF8250002E0E9
:102C800051F8253058603B4B41F8250033F81510BA
:102C90000A4423F8152000F0E1F810B10830706004
:102CA00006E0354B44F838001A7801321A7007E014
:102CB0002A4B324A16F0080F08BF134644F8383042
:102CC00008233B7070E5E0071FD520492B482C4CAA
:102CD00002230B702B4B1A702B4B186098602B48FB
:102CE000D8601A619A615C60164B0D2018702848F4
:102CF000FF2303702B700274264A1370264B9F2209
:102D00001A7001230B70BDE8F88F210604D50D4B16
:102D10000D221A7080232B70A20705D51C4B1A7840
:102D2000D2B21A7002232B70E30644BF10232B701B
:102D3000BDE8F88F588C00006C91FF1F8C94FF1F2A
:102D40007492FF1FC02007404492FF1F9420074049
:102D50003C92FF1F8494FF1FD991FF1FC8004000C1
:102D60007091FF1F982007401C92FF1F8491FF1F46
:102D70007491FF1F7C94FF1F4692FF1F8800400044
:102D80008891FF1FD891FF1F0080FF1FDC91FF1F5C
:102D9000882007408C20074084200740C891FF1FEF
:102DA00008B503F089FC00221A4B0021D150981875
:102DB0000832882A4160F7D1174A106840F4802011
:102DC000106002F528326832C3F307201070C3F395
:102DD00007401B0E10751376FF2302F81C3C02F807
:102DE000143C02F88C3C012302F8083C82F8641081
:102DF00002F8183C094B70226FF450711A700B44A2
:102E00004FF400721A6003F1C04303F5C823102287
:102E10001A7008BD0080FF1F3480044049E400E0C0
:102E200000F09EB800F05AB800F07EB800F01AB971
:102E3000084600F00BB90846114600F09FB87047ED
:102E4000044B00221A714FF47A711A73024A996086
:102E50001A6070475492FF1FE08A000072B60C4A55
:102E60001168B1FA81F30B2B02D962B600207047CA
:102E70004FF00040D84021EA0001116062B60549D8
:102E800048225343C8180022CA504260704700BF0E
:102E90007C87FF1F0084FF1F0C4B4822C31AB3FB23
:102EA000F2F30B2B11D80A4A127822B1094A127890
:102EB0000AB1FFF7FBBB72B6074A4FF0004121FA97
:102EC00003F311681943116062B670470084FF1F55
:102ED0004692FF1F4F92FF1F7C87FF1F10B5104CBB
:102EE00023686BB120684288531C0244147A02881C
:102EF000934212D3FFF7D0FF094B00221A600DE076
:102F0000084B1B7813B94FF0FF3010BD0320FFF7BB
:102F10009FFB20600028E5D1F5E74380204610BDE7
:102F20007092FF1F4F92FF1F10B50B4C236813B117
:102F300023686BB902E0094B1B7813B94FF0FF30DF
:102F400010BD0320FFF784FB20600028F0D1F5E7D7
:102F50005A881344187A10BD7092FF1F4F92FF1FBA
:102F6000044B9888044B1B681BB11A885B88D31AE2
:102F7000184470477C94FF1F7092FF1F2DE9F8439F
:102F80002D4E012307460C463370002C4FD02B4D9D
:102F90002B68A9462BBB4AF2F928294B1B7803F072
:102FA000FF020BB9327015E00420FFF76DFB072814
:102FB00008D801233370FFF751FFC9F8000080B92A
:102FC0001D4B1870B8F101081E4B01D01A782AB1B8
:102FD00001221A704FF0FF30BDE8F88300F094F83A
:102FE000DBE72968174A488800231370C0F14002C4
:102FF000944238BF224600F1080C10448C444880AB
:10300000A41A934204D0F85C0CF803000133F8E7EB
:103010001F444B883F2B06D940230B800420FFF729
:1030200081FB00232B60084B05221A70ADE734703A
:103030002046BDE8F88300BF6592FF1F6892FF1F1E
:103040004F92FF1F6C92FF1F6492FF1F07B502ABE8
:10305000012103F8010D1846FFF790FF03B05DF85A
:1030600004FBFFFF2DE9F041114B1B78F3B1114E2A
:10307000114B3468114D01271F7098464CB1002741
:1030800063882F70042023802146FFF74BFB3760B5
:1030900009E0FFF7E3FE014620B104202C70FFF7A2
:1030A00041FB00E02F70002388F80030BDE8F0817C
:1030B0004F92FF1F6892FF1F6592FF1F6492FF1FD0
:1030C00038B50E4B1B7803F0FF05ABB90C4C2168EB
:1030D00031B14B880B800420FFF724FB256038BDFD
:1030E000FFF7BCFE014620B10420BDE83840FFF7E1
:1030F00019BB044B01221A7038BD00BF6592FF1F37
:103100006892FF1F6492FF1F10B50E4C2378BBB965
:1031100001232370FFF724FF08B1FFF790FE02F0B0
:1031200069FC08B102F00AF902F090FF08B102F060
:103130008DF903F0F5F908B102F010FA00232370BD
:1031400010BD00BF7592FF1F002330B503704370A0
:10315000837072B10D7BCC7B35B12CB1013405FB92
:1031600004445443240CC4540133032B01F10101E2
:10317000F0D130BD034B1B6813B199749B68FBE71A
:10318000704700BF8092FF1F0B4B70B51C68621C1C
:103190008C421A600EDB094C094926684FF47A7597
:1031A0006A430D68751BB2FBF5F2428000221A607B
:1031B00023680B6070BD00BF8492FF1F6C91FF1FDE
:1031C0008C92FF1F2DE9F34705460E466B68184C9D
:1031D00033B1FFF79BF923686A68C01A9042F5D3B0
:1031E000FFF794F9134B20601C68D4B16B8894F8F6
:1031F0001280D4F804A0D4F81490632B9CBF002351
:10320000A3742368214601A832465F68FFF79CFF3C
:10321000204651464A4601ABB84784F81280A4685C
:10322000E3E728461921FFF7AFFF02B0BDE8F087BA
:103230008892FF1F8092FF1F4AB169B1074B93FB31
:10324000F1F143688B422CBF43604160704711B17C
:10325000024B93FBF1F14160704700BF40420F0009
:10326000F8B51E1E036804461546D8BF00250F4654
:103270009B6805EB4505D8BF16462F449847236841
:1032800067601B6966612046984701220146024833
:10329000FFF7D2FF2046F8BD7892FF1F024BFF22B6
:1032A0001A7000225A8070477892FF1FF7B51F46A8
:1032B000FF238DF80630F02306460D468DF80420D6
:1032C0008DF805300024AC420CDA04EB440101A86F
:1032D000314400F026F89DF804303B448DF804306A
:1032E0000134F0E703B0F0BD30B505781C1C18BF01
:1032F000012425B115FB03F504EB1525EDB205708E
:10330000087820B110FB03F004EB1020C0B2087065
:10331000117821B111FB03F104EB1121C9B2117035
:1033200030BD2DE9F743077890F80190847807F0D5
:103330001F05ED0005EB850202EB021207F04006C7
:1033400017F0800F8846C2F3072207F0200006F02E
:10335000FF0328D17EB900F0FF0138B9D3438DF8BF
:1033600005308DF806208DF807104BE0AB218DF865
:10337000051055320BE000F0FF0368B9AA2115FBD8
:1033800001F52D12C5F1AB058DF80550553A8DF8B4
:1033900006208DF8073035E000238DF80530D34343
:1033A0008DF806302CE0B6B900F0FF0168B98DF851
:1033B0000510AA2315FB03F52D0AC5F1AB035535FE
:1033C0008DF806308DF807501CE08DF805208DF83B
:1033D0000630D24314E000F0FF0340B902F155017A
:1033E0008DF805108DF80630C2F1AB0208E0A2F1AD
:1033F00055038DF8053000238DF80630C2F15502D3
:103400008DF80720B9F1FF0F1FD04B466FEA09096D
:103410000DF105000DF106010DF107025FFA89F9C2
:10342000FFF762FF19FB09F99DF805304FEA1929EA
:103430004B448DF805309DF806304B448DF806302E
:103440009DF8073099448DF80790FF2C0FD014FB9E
:1034500004F3003418BF012404EB13230DF105001D
:103460000DF106010DF10702DBB2FFF73DFF9DF8FC
:10347000053088F800309DF8063088F801309DF856
:10348000073088F8023003B0BDE8F083002AF0B5B9
:103490000CBF4FF064524FF0605200240F4E104F9B
:1034A000A65B104D97FBF6F6B14255F8145004D3C5
:1034B000190706D542F0806203E002342E2CEDD1CC
:1034C000F6E75B0707D525F4704305F4704542F035
:1034D000007243EA15152A430260F0BDA08C00007B
:1034E000006CDC02D08C000010B50446FFF7CEFF64
:1034F000204610BD054B4FF00042DA625863DA6A8D
:10350000002AFCDA014B986BC0B2704700C0024041
:1035100010B580F82E1080F82C3080F82D2010BDCA
:1035200010B50446084604F077FE616B04F0C8FE4F
:1035300010BD10B50446084604F06EFEA16B04F001
:10354000BFFE10BD10B50446084604F065FEE16BF1
:1035500004F0B6FE10BDFFFF90F82F30012B05D010
:1035600002D3022B04D07047034B02E0034B00E070
:10357000034B4363704700BF0000F53B00007A3CFB
:1035800000007A3D10B5044690F8300004280DD0B4
:1035900004F03EFE4FF07E5104F08AFD014604F037
:1035A00087FD4FF0605104F08BFE01E04FF0685052
:1035B000A06310BD10B5044690F8310038B180000A
:1035C00004F02AFE4FF0605104F07AFE01E04FF063
:1035D0006250E06310BDFFFF13B50446012190F86F
:1035E0002D00FEF755FF94F82D000121FEF722FF74
:1035F00094F82C000121FEF74BFF94F82C000121D8
:10360000FEF718FF03F0A8F808490122002301A8DB
:10361000FFF76AFF019803F0EBF9012003F0E2F8ED
:10362000042003F0F3F802B010BD00BF00093D0014
:1036300070B5084615460C4600211E46FEF7FAFEF8
:1036400005F03F00FFF756FF3046FFF753FF2046D7
:103650000121BDE87040FEF7EDBEF8B508469DF8C3
:1036600018600D46002114461F46FEF7E3FE012EAA
:1036700096BF04F03F0044F0C00040F08000FFF728
:1036800039FF0024B44205DA0020FFF733FF385534
:103690000134F7E728460121BDE8F840FEF7CABE2D
:1036A0001FB5012300930DF10F03FFF7D6FF9DF81F
:1036B0000F0005B05DF804FB7FB5084B0320597B74
:1036C0000190002203900120009202920490186958
:1036D000134600F085FE07B05DF804FB9492FF1FCF
:1036E000F7B5184C204615460F461E4600F098FFC9
:1036F000236845F080011B68002520469847627BBF
:10370000216900952B46204601F0F3F901238DE84D
:103710002800617B20699DF820303A4601F0FEF9CF
:103720002069D0F83821D0F834319A4205F10107E8
:1037300005D001F00BFAEDB270553D46F0E703B04D
:10374000F0BD00BF9492FF1F73B5154690F82E2070
:10375000012A0E4607D1009390F82D1032462B46D1
:10376000FFF7BEFF07E032B9009390F82D10324604
:103770002B46FFF772FF02B070BD13B506236A46F1
:1037800028210446FFF7E0FF9DF801209DF8003056
:1037900043EA022323809DF803209DF8023043EA88
:1037A000022363809DF805209DF8043043EA02233C
:1037B000A38002B010BD73B5154690F82E20012AE3
:1037C0000E4607D1009390F82C1032462B46FFF797
:1037D00087FF07E032B9009390F82C1032462B4651
:1037E000FFF73BFF02B070BD13B506236A462821E0
:1037F0000446FFF7E0FF9DF801209DF8003043EA02
:103800000223E3809DF803209DF8023043EA02235F
:1038100023819DF805209DF8043043EA022363814B
:1038200002B010BD13B506236A4608210446FFF70F
:10383000C2FF9DF801209DF8003043EA0223A381D6
:103840009DF803209DF8023043EA0223E3819DF8AE
:1038500005209DF8043043EA0223238202B010BD04
:1038600073B50C4C154620461E4600F0D9FE29467D
:10387000204600F0ECFA3146204600F0E8FA00233A
:103880000093627B21692046012301F032F902B0E6
:1038900070BD00BF9492FF1F134690F82E20012A9E
:1038A00030B50D4606D12A4690F82D10BDE83040BF
:1038B000FFF7D6BF32B92A4690F82D10BDE8304048
:1038C000FFF7B6BE30BD2DE9F0418E460446904666
:1038D000302172461F46BDF818609DF81C50FFF756
:1038E000DBFF204632214FEA1822FFF7D5FF2046A2
:1038F00033215FFA88F2FFF7CFFF204634213A0ADE
:10390000FFF7CAFF20463521FAB2FFF7C5FF204670
:103910003621320AFFF7C0FF20463721F2B2FFF707
:10392000BBFF2046382115B145F0800200E02A4651
:10393000BDE8F041FFF7B0BF13B50F2204462021C8
:10394000FFF7AAFF204621210022FFF7A5FF20460E
:1039500022218822FFF7A0FF204623210022FFF723
:103960009BFF204624210022FFF796FF00220092B1
:10397000019220462A211346FFF7A5FF02B010BD91
:10398000134690F82E20012A30B50D4606D12A465E
:1039900090F82C10BDE83040FFF762BF32B92A46DC
:1039A00090F82C10BDE83040FFF742BE30BD10B596
:1039B0001F2104460022FFF7E3FF20462021572263
:1039C000FFF7DEFF204621210022FFF7D9FF204626
:1039D00022210422BDE81040FFF7D2BF10B52421F8
:1039E00004469422FFF7CCFF204625210022FFF752
:1039F000C7FF204626210022FFF7C2FF20462321D1
:103A00000422FFF7BDFF204612210922BDE8104025
:103A1000FFF7B6BF73B5104C154620460E4600F0B2
:103A2000FFFD29462046002500F011FA627B21693E
:103A300000952B46204601F05CF80123617B20694C
:103A40008DE82800324601F069F8206901F07EF81F
:103A5000C0B202B070BD00BF9492FF1F0A4690F83A
:103A60002E10012903D190F82D10FFF7D3BF19B9FB
:103A700090F82D10FFF714BE704738B50D4623217E
:103A80000446FFF7EBFF20F0300040EA0512232147
:103A90002046D2B2FFF700FF84F82F502046BDE841
:103AA0003840FFF759BD38B50D4620210446FFF7D1
:103AB000D5FF00F00F0040EA051220212046D2B2C7
:103AC000BDE83840FFF7E8BE0A4690F82E100129FD
:103AD00003D190F82C10FFF79DBF19B990F82C1066
:103AE000FFF7DEBD70472DE9F74F002588462421FA
:103AF000044617460095ADF80450FFF7AFFF40F0BD
:103B000040022421D2B22046FFF7C6FE1420FEF761
:103B10001BFD2E213F222046FFF7BEFE4FF47A7098
:103B2000FEF712FD20462F21FFF798FFA94600F06F
:103B30001F06AA46AB46ABB2B3421FD26A46062363
:103B400020462821FFF700FE9DF801209DF8003057
:103B500043EA02230BFA83FB9DF803209DF8023011
:103B600043EA02230AFA83FA9DF805209DF80430FF
:103B700043EA022309FA83F90135DCE79BFBF6F0FF
:103B800004F04AFB616B04F09BFBC8F800009AFB51
:103B9000F6F004F041FB616B04F092FBC8F80400FE
:103BA00099FBF6F004F038FB616B04F089FB2421EB
:103BB000C8F808002046FFF751FF242100F0BF029B
:103BC0002046FFF769FE1420FEF7BEFC00222046C7
:103BD0002E21FFF761FE1F212046FFF775FF40F001
:103BE00040021F21D2B22046FFF7CAFE1420FEF782
:103BF000ABFC2E213F222046FFF7C2FE4FF47A7025
:103C0000FEF7A2FC20462F21FFF75EFF002500F003
:103C10001F06A846A946AA46ABB2B3421FD26A46BF
:103C2000062320462821FFF7C6FD9DF801209DF8B8
:103C3000003043EA02230AFA83FA9DF803209DF834
:103C4000023043EA022309FA83F99DF805209DF822
:103C5000043043EA022308FA83F80135DCE79AFBD3
:103C6000F6FA99FBF6F998FBF6F6002E4FF07E5027
:103C7000A16B05DD04F0D8FB04F0E8FC361A04E083
:103C800004F0D2FB04F0E2FC0644504604F0C4FA0F
:103C9000A16B04F015FB3860484604F0BDFAA16B37
:103CA00004F00EFB7860304604F0B6FAA16B04F025
:103CB00007FB1F21B8602046FFF706FF1F2100F019
:103CC000BF022046FFF75CFE1420FEF73DFC2046B5
:103CD0002E210022FFF754FE03B0BDE8F08F38B567
:103CE0000D4621210446FFF7EFFE20F0180040EAC0
:103CF000C50221212046D2B2FFF742FE84F830509F
:103D00002046BDE83840FFF73DBC38B50D462521BB
:103D10000446FFF7D9FE20F0600040EA4512252155
:103D20002046D2B2FFF72CFE84F831502046BDE881
:103D30003840FFF73FBC38B50D4620210446FFF759
:103D4000C3FE00F00F0040EA051220212046D2B247
:103D5000BDE83840FFF714BE38B50D4621210446B2
:103D6000FFF7B2FE00F07F0040EAC5122121204695
:103D7000D2B2BDE83840FFF703BE38B50D46242166
:103D80000446FFF7A1FE20F01C0040EA8502242132
:103D90002046D2B2BDE83840FFF7F2BD70B580F8DA
:103DA0003130044680F82F1080F83020FFF7D4FB24
:103DB0002046FFF7FFFB2046FFF7E4FB94F82E3088
:103DC000012B03D12046FFF777FC03E013B920460F
:103DD000FFF702FC20460F21FFF740FE0F210546AA
:103DE0002046FFF771FE06462046FFF7A5FD204658
:103DF0009DF81010FFF757FE94F82F102046FFF79C
:103E00003CFE2046FFF7D3FD20469DF81410FFF737
:103E100092FF94F830102046FFF761FF2046FFF72D
:103E2000DDFD20469DF81810FFF7A7FF204694F807
:103E30003110FFF76AFF45EA062080B270BD0369C2
:103E4000D3F83801D3F83431C01A7047704703698A
:103E5000D3F84422B2F5817F09D8D3F84422501C0C
:103E6000C3F844021344012083F83C117047012336
:103E700003710020704730B50469D4F84432B3F5BB
:103E8000817F1DD8D4F84432D4F84452C3F58173ED
:103E900001332C449A4204F59E7402D90122027126
:103EA0001A460023934203D0CD5CE5540133F9E771
:103EB0000269D2F844121944C2F84412184630BDBF
:103EC00001230371002030BD38B5094B036003693D
:103ED00093F84822022A044608D1D3F860522DB143
:103EE000284601F099F9284601F04AFB204638BDE2
:103EF000008B0000C3681A789207FCD502221A7062
:103F00007047FFFF002210B502710273064A02607B
:103F10004FF47A74054A84604FF41A74417304FBB9
:103F20000121016110BD00BF008B00008087FF1FD1
:103F3000F8B5C3681B789B0604460E4600F19A80CC
:103F4000836880211970C3681221197090F8493272
:103F5000012B03D01AB980F8482200E01A46531EFC
:103F6000012B00F2898016B94FF0807103E0012E19
:103F700003D14FF00071414B1960022A76D1D4F879
:103F8000605245B9082001F0F9FA2946074601F0C8
:103F9000EFF8C4F86072D4F8605265B12B79102B39
:103FA00009D1284601F038F9284601F0E9FA002342
:103FB000C4F860325AE046BB2B6831489A8B998B23
:103FC00092B242F008029A832A792E4B02F1100134
:103FD00043F8210053119B0003F1604303F5614353
:103FE000012102F01F0201FA02F21A602B689A8B7B
:103FF000998B92B242F002029A832B7903F18043AB
:1040000003F5043396221E7028E0012E27D12B6879
:104010001D489A8B998B92B242F008029A832A79B2
:10402000184B02F1100143F8210053119B0003F1DA
:10403000604303F5614302F01F0296401E602B6847
:104040009A8B998B92B242F002029A832B7903F1F8
:10405000804303F5043300221A7097221A7000235C
:1040600084F85632022384F8483205E0012084F8AF
:104070004802F8BD0020F8BD0120F8BD00E100E0D5
:10408000695000000082FF1F755000008C4B994260
:1040900010B5436804461BD10D2A15D8DFE802F09D
:1040A0002628072C090B57595B0D0F611163552109
:1040B00044E0192142E0132140E006213EE00521C1
:1040C0003CE00120187053E0002018700D224FE0F2
:1040D0007C48814222D10C2A1CD8DFE802F0070973
:1040E0000B0D0F111315173E194244002C2125E02A
:1040F000242123E01E2121E04F211FE015211DE096
:104100000F211BE00E2119E00C2117E00A2115E018
:10411000042113E0002018700C2229E06A48814233
:1041200029D10B2A21D8DFE802F006080C0E101264
:104130001416181A1C1E272100E05A21197001209C
:1041400016E01C21FAE78521F8E71421F6E745215E
:10415000F4E70D21F2E70B21F0E70921EEE7032157
:10416000ECE70221EAE70021E8E7002018700B22C3
:10417000A36904218EE05548814224D1092A1CD824
:10418000DFE802F005070B0D0F1113151719952124
:1041900000E055211970012012E08521FAE7152170
:1041A000F8E74521F6E70C21F4E70A21F2E70521BB
:1041B000F0E70221EEE70021ECE700201870092269
:1041C000A369032166E0424881421FD1072A17D81C
:1041D000DFE802F004060A0C0E1012141F2100E0A2
:1041E0008521197001200EE01421FAE74521F8E736
:1041F0000B21F6E70521F4E70221F2E70021F0E7C1
:10420000002018700722A369022143E0314881424F
:1042100010D1052A0AD8DFE802F00305071D212383
:104220001D2118E0142116E0432114E0002018702D
:1042300005221AE0284881421AD1032A12D801A186
:1042400051F822F025420000554200005D42000076
:10425000614200000B211970012006E00321FAE7FA
:104260000021F8E7002018700322A369012111E062
:104270001A48814210D122B1012A4FF0000101D029
:1042800003E00B211970012002E0197000200122C7
:10429000A369002119700FE0114881424FF000001E
:1042A000187007D10AB9012000E00020A36900229C
:1042B0001A7001E0A369187084F84C2210BD00BF89
:1042C00000879303007E5603006CDC020051250238
:1042D00000366E010024F40000127A0000093D004F
:1042E00080841E00F8B51C469DF8183005462BB199
:1042F000C0680078800601D50020F8BD002C40F28F
:10430000032640F2646040F2036708BF4FF4197659
:1043100008BF074685F84B4271BB012A14D173B11F
:10432000002C14BF022100211220FEF7B1F8002C4E
:104330004FF0130014BF02210021FEF7A9F801235A
:1043400085F84A32224B13E073B1002C14BF0221CE
:1043500000211120FEF79CF8002C4FF0100014BF34
:1043600002210021FEF794F8002385F84A32194B08
:104370001E6043F8046C29E0012927D1042A13D1D7
:104380005BB1002C14BF022400241E202146FEF73E
:104390007FF81D202146FEF77BF8042385F84A327A
:1043A0000D4B1F605F6011E05BB1002C14BF022455
:1043B00000241F202146FEF76BF81A202146FEF745
:1043C00067F8032385F84A32044BD1E70120F8BD92
:1043D00004A004400CA0044000D004402CB00440D1
:1043E000F7B5044616469DF820009DF82C700D4642
:1043F00021B92A4A116841F0400105E0012904D1A0
:10440000264A116841F080011160002284F84E2292
:1044100084F84962626936B92023137023681E70DC
:10442000E3691E7015E000280CBF202128211170BF
:10443000216801D0834201D25A0000E04200D2B28A
:104440000A70E26920B1834234BF40005800C0B214
:1044500010700023294600939DF824209DF82830F1
:104460002046FFF73FFF94F84A32022B0CBF0C495D
:104470000C493A462046FFF709FE9DF830202046B9
:104480002946FFF755FD94F84922A3680AB980220E
:1044900000E0C0221A7003B0F0BD00BF34800440B9
:1044A00000D8B805006CDC0290F84A32042B2DE9E4
:1044B000F7430446894641D8224AD55C224AD65C55
:1044C000002E3BD0002D39D090F84B32002B14BF7A
:1044D000022100213046FDF7DBFF28460121FDF7D0
:1044E000A9FF28460121FDF7D3FF0B273046FDF732
:1044F000C1FF014618B9013F17F0FF070CD1002199
:1045000084F84E12009194F84A2294F84B322046D7
:104510004946FFF7E7FE11E028464FF0A008FDF7F7
:1045200089FF4346013B7FF4FDAF01212846FDF79B
:1045300081FFB8F101087FF4FCAFD7E703B0BDE815
:10454000F08300BF1D8B0000188B00002DE9F041A7
:10455000044616461F460D46FDF7D8FFA3681A7895
:104560009206804602D5B4221A7027E0002E45D06C
:10457000FDF7CCFFC8EB0000B0423FD3A3681B7827
:104580009B060FD420462946FFF78EFFE3681B7871
:1045900003F0200303F0FF0223B9A36884F8492243
:1045A000B0221A70A3681B7803F0200303F0FF0009
:1045B00023B9042384F84E32BDE8F08194F84832E0
:1045C000013B012B17D8FDF767FD134B134A002D54
:1045D00014BF19461146097888420CDC0F2803DC09
:1045E00001203870BDE8F081002D14BF1D4615462E
:1045F0001038C0B228700120BDE8F081E3681A7855
:1046000002F0200202F0FF03002AAFD184F8493201
:10461000A368B0221A70B1E719E400E018E400E0E2
:104620000369490083F83C1103690122C3F844225D
:104630000022027183F84E227047F7B51E46002310
:104640008DF80730D0F8443204461546002B00F0B0
:10465000AF800EB9D0F86462E36812221A70204667
:1046600032460DF10703FFF771FF002800F0A0802C
:1046700094F8483213B19DF8071021B3FDF746FFB7
:10468000012384F84D52074684F84E320025D4F8B1
:1046900044329D4206D2002E5FD0FDF737FFC01B8B
:1046A000B0425AD3D4F844329D4234BF042300238D
:1046B00084F84E3294F84D32012B08BF8022A36853
:1046C00018BFB02247E05A1E012A71D80120022BE0
:1046D00084F84E0284F84D52C4F8401235D1D4F813
:1046E0004432042B31D9D4F8602284F8560213687E
:1046F000D4F84452D97104F59F761F6818711E6072
:1047000059711368187259729972D9721368033DFE
:104710006842D860A8B2DD8BD8831368DA8AD88261
:10472000D4F8602220691368B0F1804F99711D6937
:10473000197518615975136833D3996889B313686B
:1047400000221A765A769A76DA76A368F0221A70E0
:10475000236994F83C211A702AE06219236992F8BF
:104760003C211A702046FFF7C5FBE3681B78DBB2DB
:10477000DA0608D5072384F84E32A36880221A701F
:10478000E368102209E0D90709D50DB9052300E037
:10479000062384F84E32A36880221A7082E701351E
:1047A00075E700210120187259729972D972C6E713
:1047B00003B0F0BD2DE9F3411646002204469DF8F2
:1047C0002070099D8DF80720002B00F01581B3F5AE
:1047D000827F03D3082380F84E320DE1C0F83421E4
:1047E000C0F85032C0F838210DB9D0F86452E368EF
:1047F00012221A7020462A460DF10703FFF7A6FE83
:10480000002800F0F98094F848321BB19DF8072089
:10481000002A40D0FDF77AFE7600022384F84E325B
:1048200046F00106236984F84D72F6B21E70804688
:104830002046FFF75FFBE3681A78A368D2B212F054
:10484000100F07D0072284F84E2280221A70E368E6
:10485000102205E0D20705D5052284F84E228022D9
:104860001A70C9E0032284F84E22D4F85022012A9B
:104870000CBFA822A0221A7023691B78D4F8382113
:10488000D4F850329A4280F0B78094F84E32032B1D
:1048900040F0B28052E0591E012900F2AD800221A1
:1048A0008B4284F84E1284F84D723DD1D4F85032C8
:1048B000042B39D9D4F860122069012384F85632C8
:1048C0000B68B0F1804FDA711D681A7118605A7167
:1048D0000B6801D39A682AB90022012018725A7213
:1048E0009A72DA72D4F860020A680168D4F85052F9
:1048F0000F690023137353739373D3738B7104F194
:1049000030020A6102684B7501270F7517725372E6
:104910009372D3720368013D6A429A61AAB2D98B3D
:10492000DA830368D98ADA82A368F0221A707600E3
:10493000236946F00106F6B21E705DE02046FFF7DF
:10494000D9FA002D56D0FDF7E1FDC8EB0000A842D2
:1049500034BF00230123D4F83811D4F85022023197
:1049600091420FD013B194F855225AB1D4F83811AE
:10497000D4F850220131914219D23BB194F855221A
:10498000AAB903E0A268A8211170EFE722691178A3
:10499000D4F83821501C2244C4F8380182F8301071
:1049A000002B3FF46BAF012384F8553266E70022F9
:1049B00084F85522A268B021117022691178D4F8C8
:1049C0003821501C2244C4F8380182F830101BB141
:1049D000042284F84E2201E084F84E3294F84D22ED
:1049E000012ADDD12022013A7FF4FDAFA2688021A7
:1049F0001170D5E72B46AEE702B0BDE8F081036940
:104A000093F84E32043B042B0AD8DFE803F0070E7C
:104A100005070300012070470320704704207047FA
:104A20000079003018BF012070470220704790F8CD
:104A30004E32B3B190F84E32052B12D090F84E3270
:104A4000062B0ED090F84E32072B0AD090F84E323B
:104A5000042B06D090F84E02B0F10803584258419A
:104A600070470120704770B5044615460AB9D0F862
:104A70006452FDF74BFD06462046FFF7D8FF88BB82
:104A8000002DF9D0FDF742FD801BA842F4D3FDF7BD
:104A90003DFD801BA8420ED394F84832022B0AD168
:104AA00094F856323BB12046FFF7C1FF0028FAD0F8
:104AB000042384F84E3294F84E32012B15D094F82A
:104AC0004E32022B11D094F84E32032B0DD080239E
:104AD000013B7FF4FDAF94F84E02D0F1010038BFE6
:104AE000002070BD002DE6D0D1E7042384F84E32BB
:104AF000EDE7F8B5069C07460E46154608461146F2
:104B00001A462346FFF799FD304629462246FFF70D
:104B1000AAFF3846BDE8F840FFF771BFF7B5099D19
:104B200004460E460BB900200EE09DF82070009759
:104B30000195FFF73FFE204631462A46FFF793FFD7
:104B40000028F0D0D4F8380103B0F0BDD0F83421FB
:104B5000D0F838319A4208D2D0F834315A1CC0F813
:104B60003421184490F8300070474FF0FF30704700
:104B70000069FFF7EBBFD0F83421D0F838319A4202
:104B80003DBFD0F83431C01890F830004FF0FF30FE
:104B900070470069FFF7EFBF38B5C26883681578C2
:104BA0001978C9B204468806EDB217D5C9060AD5E8
:104BB00094F85612022900F0C38094F85612032983
:104BC00040F0C580BCE094F85622022A00F09D8196
:104BD00094F85622032A40F0788196E115F0100FE0
:104BE00005F0400304D010201070002B00F0A480CA
:104BF00003F0FF02002B53D094F84E320A2B04D15D
:104C0000D4F85832002B40F0208205F0040505F05E
:104C1000FF03F5B1092384F84E320023C4F844326F
:104C2000A368D0221A7023691B785B0884F84F327E
:104C3000D4F85C3203B19847D4F844320BB984F805
:104C40003C31236994F83C211A700123C4F84032A6
:104C500072E094F84A2284F854320AB9122002E031
:104C6000012A02D11120B34908E0032A02D11E20F3
:104C7000B14904E0042A04D1AF491F200322FDF703
:104C80006BFB0A2384F84E320023C4F83831A36842
:104C9000C0221A7023691B785B0884F84F324BE0FE
:104CA00001F0100101F0FF03F1B115F0010513D17E
:104CB000D4F84022D4F844329A4207D2D4F8403291
:104CC0005A1C2344C4F8402293F83C5123691D70B8
:104CD000A368D0221A702FE0A368C021197023693D
:104CE0001B7884F84E2227E094F84A2284F8543244
:104CF0000AB9122002E0012A02D111208D4908E0F0
:104D0000032A02D11E208C4904E0042A04D18A49D6
:104D10001F200322FDF720FB23691A78D4F83831CD
:104D2000B3F5817FD2B207D8D4F83831591C234467
:104D3000C4F8381183F83020E36802221A7038BDB5
:104D4000D4F860321968898B090643D592E094F84B
:104D50004E22012A57D105F0100202F0FF016AB17C
:104D60000022072184F8562284F84E1280211970FF
:104D7000E36812211970C4F8402238BD15F001050E
:104D80000AD084F85612D4F84022002A4CD00622C9
:104D900084F84E2280229DE7D4F840220132C4F8E4
:104DA0004022D4F844128A4202D384F84E525BE087
:104DB00094F85622012A1FD1022284F85622F122A9
:104DC0001A70D4F860321A795C4B1A70236994F81F
:104DD0003D217FE794F85612032955D11178080632
:104DE000FCD51A79564B1A70002384F85632D4F841
:104DF0004432013BC4F84032D4F8402223692244B3
:104E000092F83C2166E794F84E22D2B2022A27D1CA
:104E1000E90607D5072284F84E2280221A70E3683B
:104E200012228BE7E80701D50522B1E794F8561264
:104E3000012908D184F85622E1221A70D4F8603290
:104E40001A793E4B08E0032284F84E22D4F850220F
:104E5000012A0CBFE822E0221A7023691B786BE755
:104E600094F84E22042A95D194F84D22012A91D02B
:104E7000B0222FE794F856120229ABD11A79314BA0
:104E80001A70A368F02250E02F4A1B7912680121A2
:104E9000994011423FF450AF2A4A1370D4F860325F
:104EA0001A792A4B1A700023EA0684F856327FF5E5
:104EB00043AF072284F84E22A26880211170E26875
:104EC00012211170C4F8403238BDD4F83811D4F82A
:104ED0005022023191427BD094F84E22042A03D111
:104EE00094F85522002A73D0D4F83821D4F85032DF
:104EF00001329A4280F0878094F84E32042B6AD1B6
:104F000094F85532002B7ED165E0D4F860321A68EF
:104F10001B79928B12F0800F1AD094F85622022A35
:104F200016D1084A1370A368E8221A70032384F884
:104F3000563201E715510000215100001B8000404E
:104F40001C8000401F8000402C8000401E800040DC
:104F500094F85622032A26D13F4A1370002384F87E
:104F6000563294F84E22042A18BF84F84E32A368B1
:104F7000B0221A70D4F85032013BC4F83831D4F85A
:104F800038315A1CC4F8382122692344127883F836
:104F9000302094F84D32012B7FF4CEAE2023013B1C
:104FA0007FF4FDAF12E02D4A0121126899401142B1
:104FB0003FF4C2AE2A4A1370D4F860321A79294BF2
:104FC0001A70002384F8563284F84E32A368E1E662
:104FD000E8221A7088E7D4F838315A1CC4F838210E
:104FE00022692344127883F8302094F84E32042B3F
:104FF0007FF4A2AE94F85532002B7FF49DAE0123CE
:1050000084F8553298E694F84E220023042A84F856
:10501000553201D084F84E32A368B0221A70D4F809
:1050200038315A1CC4F8382122692344127883F895
:10503000302094F84D32012BD7D12023013B7FF44F
:10504000FDAFA36880221A70CFE70022C4F8342194
:10505000D4F838019847D8E51C8000402C800040E7
:105060001E8000401F80004001480021FFF794BDD2
:105070008087FF1F01480121FFF78EBDE889FF1FD0
:1050800010B5C3681B7803F02003044603F0FF0249
:10509000EBB990F84A3280F84E220BB912200AE0A0
:1050A000012B01D1112006E0032B01D11E2002E0CB
:1050B000042B02D11F20FDF795F9D4F858323BB3E9
:1050C0000022C4F83421D4F83801984710BD90F874
:1050D00054320133DBB2012B80F8543204D890F8FB
:1050E0004932012B00D110BD94F84A320BB912207D
:1050F0000AE0012B08BF112006D0032B08BF1E2099
:1051000002D0042B04D11F20BDE81040FDF76AB97E
:1051100010BDFFFF01480021FFF7B2BF8087FF1FCE
:1051200001480121FFF7ACBFE889FF1F70B50C4EA5
:105130000C4D0D4C30460021FEF7E4FE30460B4E80
:105140002246294601F06CFC30460121FEF7DAFECA
:10515000304629462246BDE8704001F061BC00BFE0
:10516000A892FF1FC93E00006087FF1F9492FF1F97
:1051700030B572B6254C09B9026812B921880023EE
:105180000FE003790F2BF9D821881941C907F5D50C
:1051900003F1007303F59063B2EB431FEED162B6E7
:1051A00030BD41FA03F212F0010227D101259D40E2
:1051B0002943218062B6164CD9B20171256845F0A9
:1051C0000205256054F8045C03F1007345F0020504
:1051D00044F8045C03F590630E4C5B018225256066
:1051E000A176A1772176E17703601A605A609A6010
:1051F000DA601A615A619A61DA6130BD0133102BAD
:10520000CFD162B600220260037130BDBC92FF1F95
:10521000408004400080004003790F2B10D8094AD9
:10522000137072B6084B0279012101FA02F2198853
:1052300021EA02021A8062B6102303710023036080
:10524000704700BF1A800040BC92FF1F08B503687A
:10525000C9B21B68984708BD08B50368C9B21B6886
:10526000984708BD08B50368C9B21B68984708BDD0
:1052700008B50368C9B21B68984708BD4B0803F11D
:10528000376000F5D830B0FBF1F000F07BB910B515
:105290004B0803F1376000F5D8301446B0FBF1F04D
:1052A00000F070F92046BDE8104000F0CFB900F0E2
:1052B000F7B9084600F028BA084600F069BA08466F
:1052C00000F03EBA08B5084600F088FA003018BF72
:1052D000012008BD08B5084600F0A2FA003018BF4A
:1052E000012008BD00F086BB00F0BEBB00F092BB01
:1052F00000F064BB00F0D0BB00F06ABB08B5084604
:1053000000F0B4FA012008BD08B5084600F0AEFA76
:10531000012008BD10B508461446114600F0F0FA09
:10532000204610BD38B508460D4603F0A9FA0446DC
:105330002146284600F0E4FA204638BD7047FFFFBA
:10534000044B00221A714FF47A711A73024A996061
:105350001A607047C092FF1F308B000008B50368C9
:10536000C9B21B68984708BD08B50368C9B21B6875
:10537000984708BD08B50368C9B21B68984708BDBF
:1053800008B50368C9B21B68984708BD4B0803F10C
:10539000376000F5D830B0FBF1F000F025BC10B557
:1053A0004B0803F1376000F5D8301446B0FBF1F03C
:1053B00000F01AFC2046BDE8104000F079BC00F077
:1053C000A1BC084600F0D2BC084600F013BD084658
:1053D00000F0E8BC08B5084600F034FD003018BF06
:1053E000012008BD08B5084600F04EFD003018BF8A
:1053F000012008BD00F02ABE00F062BE00F036BEFB
:1054000000F008BE00F074BE00F00EBE08B50846FD
:1054100000F058FD012008BD08B5084600F052FD17
:10542000012008BD10B508461446114600F094FD51
:10543000204610BD38B508460D4603F021FA044653
:105440002146284600F088FD204638BD7047FFFF02
:10545000044B00221A714FF47A711A73024A996050
:105460001A607047D092FF1F908B000008B5036848
:10547000C9B21B68984708BD08B50368C9B21B6864
:10548000984708BD08B50368C9B21B68984708BDAE
:1054900008B50368C9B21B68984708BD4B0803F1FB
:1054A000B76000F55840B0FBF1F000F0C9BE10B590
:1054B0004B0803F1B76000F558401446B0FBF1F01B
:1054C00000F0BEFE2046BDE8104000F0FBBE00F03C
:1054D00023BF084600F054BF084600F06EBF0846E0
:1054E00000F06ABF08B5084600F068FF003018BF3A
:1054F000012008BD08B5084600F082FF003018BF43
:10550000012008BD01F00CB801F044B801F018B852
:1055100000F0EABF01F056B800F0F0BF08B5084649
:1055200000F08CFF012008BD08B5084600F086FF9A
:10553000012008BD10B508461446114600F0C8FF0A
:10554000204610BD38B508460D4603F099F90446CB
:105550002146284600F0BCFF204638BD7047FFFFBB
:10556000044B00221A714FF47A711A73024A99603F
:105570001A607047E092FF1FF08B000003F0C8B87C
:1055800003F0CEB8234B1A6842F480621A60224AB4
:1055900000231370214A1370214A1370214A13709B
:1055A000214A1370214B1B782BB1152B07D140F2E8
:1055B00013321F4B02E01F4B40F213321A601E4B96
:1055C0001B78012B05D0052B07D14FF451721B4BD3
:1055D00002E01B4B4FF451721A601A4BC0F3443275
:1055E0001A70C0F347125A700221042200F01F0003
:1055F00098729A70D9745A7588221A743C22DA709B
:10560000114B40226FF44A711A700B444FF4005250
:105610001A607047348004407793FF1FF592FF1F94
:105620008093FF1F7893FF1FF492FF1F3693FF1F95
:1056300018C0044040A00440508CFF1F1CC0044010
:1056400044A0044000A006402DE400E0134A9378F3
:1056500000F0030103F0EC030B43410748BF43F0A4
:105660001003937000F00F03042B0C4903D18B79C6
:1056700043F040038B715379C20603F0EF03074AEE
:1056800048BF43F0100353719379810603F0EF0391
:1056900048BF43F010039371704700BF00A006405D
:1056A00008B5114B1B685B0500D408BD0F4B1A7879
:1056B00002F0FF0312B1FDF727FDF7E70C4A4FF4A4
:1056C000005111600B4A0C49D37040F203120A607A
:1056D0004A600A4A13700A4A13700A4B1B680BB1DE
:1056E00001221A7008BD00BF34800440F492FF1FED
:1056F00084E100E000A0064040A004407793FF1F33
:10570000F592FF1FF092FF1F38B50446094B1B7836
:1057100003F0FF05002BF9D120460121FCF7B8FE6C
:1057200020462946FCF786FE034B53F83420034BF2
:105730001A6038BDF492FF1FC48900007C93FF1FDC
:105740000F4A137898421AD00E490968490515D5B1
:10575000012B04D0052B05D100210B4B01E00B4B95
:1057600000211960012805D0052807D14FF4517197
:10577000054B02E0054B4FF45171196010707047F2
:10578000508CFF1F348004401CC0044044A00440DF
:105790000E4A1378984218D00D490968490513D567
:1057A0002BB1152B05D10B4B0021196001E00A49E3
:1057B0000B6028B1152807D140F21331054B02E0E8
:1057C000054B40F213311960107070473693FF1F7C
:1057D0003480044018C0044040A004400D4A38B54D
:1057E000146814F480624FF0000410D021280A4D90
:1057F0000AD80A4A012152F830302B60FCF748FEE3
:105800002B681C70012038BD2C60204638BD104626
:1058100038BD00BF34800440F092FF1FC4890000EF
:105820000E4B1B6813F4806316D012280C4B03D167
:1058300040F202310B4A04E0142809D10A4A40F22E
:10584000023111605A7B42F001025A730120704705
:105850005A7B02F0FE025A730020704734800440E5
:1058600000A006400CA0044014C00440F8B51D4B35
:105870001B685A05064633D51B4B1B680BB101222A
:105880001A701A4B1C780134402C1F4628BF002484
:10589000174D2B78A34218D1FCF7FEFB40280FDCF4
:1058A000144A13791B06F3D52B7813490133402B87
:1058B00028BF0023C95CDBB2C9B2D1712B70E7E706
:1058C000FF28E5DDFDF720FCE2E70B4BF6B21E55A5
:1058D0000A4B01221A70074BE4B2BC223C70DA700A
:1058E000F8BD00BF348004407C93FF1F8093FF1FEE
:1058F0007893FF1F00A00640F692FF1FF492FF1F4F
:10590000274B1B685A052DE9F04707468A4644D5C0
:10591000244B1B680BB101221A703D4607EB0A03AA
:105920009D4237D2DFF890801F4E98F8004096F8DD
:1059300000900134402C28BF00245FFA89F9A1456A
:105940001DD11A4BBC22DA70FCF7A6FB40280FDCF5
:10595000164A13791B060FD5337815490133402BAE
:1059600028BF0023C95CDBB2C9B2D171337003E038
:10597000FF2801DDFDF7C8FB33784B45E4D00C4B25
:1059800015F8012B1A550B4B0122E4B21A7088F856
:105990000040C3E7054BBC22DA70BDE8F08700BFCA
:1059A000348004407C93FF1F7893FF1F00A00640C3
:1059B000F692FF1FF492FF1F8093FF1F08B5034B61
:1059C0001B7813B1FDF7A0FBF9E708BDF492FF1FA8
:1059D000064A074B1B781078DBB2C0B283422CBF5B
:1059E0003F3000F1FF30C01A704700BF7893FF1FAF
:1059F0008093FF1F054B1878054B1B78C0B2DBB2B4
:105A0000984238BF4030C01A704700BF7793FF1FDD
:105A1000F592FF1F10B5104B10491A780B78D2B2CF
:105A2000DBB29A4214D00133402B28BF00230C482C
:105A3000DCB2C05C0C700B490968C0B251B19A422B
:105A400038BF4032D31A1A2B04DC00230B7010BD70
:105A50004FF0FF3010BD00BF7793FF1FF592FF1F7F
:105A60003793FF1FF092FF1F084B1A78084B1B78E3
:105A7000DBB29A4207D00133402B28BF0023054AEE
:105A8000D05CC0B270474FF0FF3070477793FF1F74
:105A9000F592FF1F3793FF1F0C4B1B685B0514D556
:105AA0000B4BDA7802F0CB02DA7040225A74DA78C3
:105AB00042F03402DA70074B1A78074BD2B21A70F0
:105AC000064B1B680BB100221A70704734800440EB
:105AD00000A00640F592FF1F7793FF1FF092FF1F73
