:1000000000800020BD0100005D16000029160000E0
:1000100029160000291600002916000029160000E4
:100020002916000029160000291600005D160000A0
:100030005D160000291600005D160000191600006C
:100040005D1600005D1600005D1600005D160000E4
:100050005D1600005D1600005D1600005D160000D4
:100060005D1600005D1600005D1600005D160000C4
:100070005D1600005D1600005D1600005D160000B4
:100080005D1600005D1600005D1600005D160000A4
:100090005D1600005D1600005D1600005D16000094
:1000A000F1420000FD4200005D1600005D160000F8
:1000B0005D1600005D1600005D1600005D16000074
:1000C0005D1600005D1600005D1600005D16000064
:1000D0005D1600005D1600005D1600005D16000054
:1000E0005D1600005D1600005D1600005D16000044
:1000F0005D160000F94B00005D16000099500000ED
:100100005D160000655400005D1600005D160000DD
:100110005D1600005D1600005D1600005D16000013
:100120005D1600005D1600005D1600005D16000003
:100130005D1600005D1600005D1600005D160000F3
:100140005D1600005D1600005D1600005D160000E3
:100150005D1600005D1600005D1600005D160000D3
:100160005D160000491D00005D1600005D160000D0
:100170005D1600005D1600005D1600005D160000B3
:100180005D1600005D1600005D1600005D160000A3
:100190005D1600005D1600005D1600005D16000093
:1001A0005D1600005D1600005D1600005D16000083
:1001B0005D1600005D1600005D160000574B4CF206
:1001C000205210B51A804DF628121A8000BF00BFC9
:1001D00001F048FA524B4FF010621A60514A9A608F
:1001E000514ADA60A3F53043203B1A6812F480725A
:1001F00004D14E490A604FF4A8521A604C4B1A7849
:10020000110703D51A7842F008021A70494B2A22C6
:100210001A700023484A49499818884204D248492C
:10022000595899500433F5E7464A474B9A424FF0E4
:10023000000302D242F8043BF7E74449444A5958C4
:1002400099500433B3F5DE7FF7D1424B802103F898
:10025000011B41498B42F9D1404B1A60404B0A22A5
:100260001A70A3F6FF7324221A70A02203F8012C3F
:100270003C4B1A789207FBD51A78D406FCD41A782E
:1002800002F00C02082AFAD1374B03221A704022DE
:100290005A70344B1A789006FBD51A785106FCD563
:1002A000324B334A1A6002225A60324B20221A70B3
:1002B0002C4B1B7803F00C030C2BF9D12E4B2F4A3F
:1002C0001A602F4B2F4A1A6000225A60072243F807
:1002D000042C2D4AC3F80C2D62B601F01DFC134B03
:1002E0001B68DA0705D5294801F08AFB284B294A03
:1002F0001A60294B1B785B0609D5254C254A2368D3
:10030000934204D1214801F07BFB0023236007F0D6
:10031000F7F801F0ADF901F0A7F8FEE70E2005406F
:1003200030800440823F04000100002B14D00340C1
:1003300002D0074000E007406087FF1F548DFF1F79
:10034000987C0000548DFF1FBC91FF1F000000002F
:100350000082FF1F00E400E05FE400E008ED00E041
:1003600000500640064006400440064044800440D9
:10037000000003010040064004800440C010050056
:1003800014E000E0FF76010000002020B265A856CE
:100390001CE00340A5C3945A00F00740FFFFFFFF95
:1003A000FFFFFFFFFFFFFFFFFFFFFFFFFFFFFFFF5D
:1003B000FFFFFFFFFFFFFFFFFFFFFFFFFFFFFFFF4D
:1003C000FFFFFFFFFFFFFFFFFFFFFFFFFFFFFFFF3D
:1003D000FFFFFFFFFFFFFFFFFFFFFFFFFFFFFFFF2D
:1003E000FFFFFFFFFFFFFFFFFFFFFFFFFFFFFFFF1D
:1003F000FFFFFFFFFFFFFFFFFFFFFFFFFFFFFFFF0D
:10040000FFFFFFFFFFFFFFFFFFFFFFFFFEFFFFFFFD
:1004100010B5054C237833B9044B13B10448AFF33E
:1004200000800123237010BD548DFF1F00000000C9
:10043000987C000008B5064B1BB106480649AFF38F
:1004400000800648036813B1054B03B1984708BD07
:1004500000000000987C0000588DFF1F548DFF1F86
:100460000000000038B5044608460D4607F026F99E
:10047000236802465B6820462946984738BD08B580
:10048000FFF7F0FF08BD9DF80010009101F044B89F
:1004900038B50446FFF7E6FF0546204600F0ECFFBE
:1004A000284438BD38B5044601F02EF805462046EC
:1004B00000F0E2FF284438BD37B59DF818100091D0
:1004C000044601F029F80546204600F0D5FF2844EF
:1004D00003B030BD13B50B460021427B009101698A
:1004E00003F04BFC02B010BD08B50368C9B21B682D
:1004F000984708BD13B5094C7621204603F0D4F97E
:1005000020461E21FFF7F0FF00230093627B216944
:100510002046012303F031FC02B010BDCC8FFF1F39
:100520002DE9F04385B0002580468DF80C508DF8FC
:100530000D501C4C762120466F0003F0B5F947F0B2
:10054000A0012046FFF7D0FF00212046FFF7C2FFA1
:10055000002601238DE84800617B20697622022372
:1005600003F020FC2069D0F83811D0F834219142F2
:1005700006F1010908D003F02DFC04AB53FA86F60E
:1005800006F8040C4E46EDE79DF80C209DF80D3062
:10059000013543EA0223072D28F80730C9D105B0F9
:1005A000BDE8F083CC8FFF1F0388C3F30B030380E8
:1005B0000023C3811A46511012F0010F15BF10F825
:1005C000111030F811104B4083EA1123082113F465
:1005D000004F01F1FF314FEA430318BF83F440534A
:1005E00011F0FF01F3D10132102AE4D1C3F303303B
:1005F0007047FFFF2DE9FF4141F2883001F078FAA2
:100600001B20002101F03AFA2020002101F036FAE7
:100610001820002101F032FA1F20012101F02EFAEA
:100620001F200121614C624E01F0FAF90D200121D9
:1006300001F024FA0D20012101F0F2F920465D4974
:100640000025FFF725FF042705232A46019302977B
:100650002B4629460095304602F0E3FC5649804679
:100660002046FFF70CFF2B4610224146204600F0A3
:1006700013FF204600F000FF50492046FFF708FF17
:10068000204600F0F9FE41F2883001F031FA3046A0
:10069000294602F067FC3046294602F022FB30462C
:1006A000294602F075FC3046072102F087FC3046EF
:1006B000032102F094FC3046394602F028FB304614
:1006C000022102F09DFC3E4A3E49304602F040FBCA
:1006D0003D4EFFF70FFF642001F00AFA3B49204628
:1006E000FFF7D6FE3046FFF71BFF20463849FFF7DD
:1006F000CFFE20463749FFF7C2FE31882046FFF77C
:10070000D1FE204634493788FFF7B9FE718820466C
:10071000FFF7C8FE20463149FFF7B1FEB1882046F9
:10072000FFF7C0FE20462E49FFF7A9FEF1882046BC
:10073000FFF7B8FE20462B49FFF7A1FE318920467E
:10074000FFF7B0FE20462849FFF799FE7189204641
:10075000FFF7A8FE20462549FFF791FEB189204604
:10076000FFF7A0FE3046FFF71FFF214E21493070F2
:100770002046FFF784FE2B4631780A22204600F0FF
:100780008BFE3F1320461C49FFF779FE39460A22AB
:100790002B46204600F080FE204600F06DFE4FF410
:1007A0007A7004B0BDE8F04101F0A2B9A88FFF1F34
:1007B0009C8DFF1FCC760000E376000003770000DD
:1007C000848DFF1F088EFF1FE48DFF1F147700002C
:1007D00034770000447700004A770000507700002B
:1007E000567700005C7700006277000068770000B1
:1007F000FC8DFF1F6E7700007A770000FFFFFFFF80
:10080000F7B5002507460E460846294606F058FE6D
:10081000274CA8B13146384606F04AFD06F000F8EC
:1008200005F022F820A3D3E9002306F04DF8024694
:100830000B4600201F4905F093FE06F027FB15E04C
:100840003046294606F01EFE90B13146384606F085
:100850002FFD05F0E5FF05F007F813A3D3E900230A
:1008600006F032F806F012FB00F10040206008E0CC
:100870003846294606F006FE10B10F4B236000E013
:1008800025600E490E48FFF7FAFD206805F0C8FF05
:100890000B460221024600910948FFF70DFE03B006
:1008A000F0BD00BFAFF30080F8C1631ADCA54C4077
:1008B0001C8EFF1F008056400000344388770000E4
:1008C000A88FFF1FAFF300802DE9F04F97B01446BB
:1008D0002A4A1593294B12685B680792274A0293AC
:1008E000264B926803920F460146D3F80CB080461F
:1008F00006F02AFC39460546384606F025FC014636
:10090000284606F019FB21460546204606F01CFC49
:100910000146284606F010FB05F082FF05F0A6F917
:1009200006F0B4FA0021824606F0A2FD002840F04D
:10093000B0822298014606F007FC0546239801463E
:1009400006F002FC0146284606F0F6FA0546249811
:10095000014606F0F9FB0146284606F0EDFA05F0DF
:100960005FFF05F083F906F091FA0021814606F059
:100970007FFD002840F08D8202E000BF6487FF1FEA
:100980000299079806F0E0FB03990990079806F092
:10099000DBFB59460A90079806F0D6FB05460298FD
:1009A000014606F0D1FB03990B90029806F0CCFBB0
:1009B00059460C90029806F0C7FB0D90039801462B
:1009C00006F0C2FB59460890039806F0BDFB594655
:1009D0000E90584606F0B8FB514606464FF07E5042
:1009E00006F066FC82465146404606F0ADFB514695
:1009F0000F90384606F0A8FB51461090204606F0AE
:100A0000A3FB494611904FF07E5006F051FC04467E
:100A10002146229806F098FB21460490239806F080
:100A200093FB21460590249806F08EFB06900498CF
:100A3000014606F081FA089981464FF07C5006F095
:100A400079FA314606F076FA12900598014606F0DA
:100A500073FA294680460C9806F06CFA13900698B3
:100A6000014606F069FA0A9907460D9806F064FAFD
:100A700012991490484606F067FB139904464046C5
:100A800006F062FB0146204606F056FA1499044629
:100A9000384606F059FB0146204606F04DFA0B9900
:100AA00004464FF07C5006F045FA294682460C98E1
:100AB00006F042FA0146484606F046FB3146054636
:100AC000504606F037FA0146404606F03DFB014627
:100AD000284606F031FA099905460E9806F02AFADA
:100AE0000146384606F030FB0146284606F024FA57
:100AF00021460546204606F027FB2946044628469F
:100B000006F022FB0146204606F016FA05F088FEA4
:100B100005F0ACF802460B460D980A990192009335
:100B200006F008FA099905460E9806F005FA0899A4
:100B30000446504606F0FEF929468246284606F04D
:100B4000FBF921460990204606F0F6F90A9007982D
:100B5000014606F0F9FA0B9906F0ECF9089906F04F
:100B6000E9F9314606F0E8F9019A009B0890194628
:100B7000104606F08BF9014606F0DEF929460646D6
:100B8000484606F0E1FA21468146404606F0DCFA86
:100B90000146484606F0D0F951468046384606F0F0
:100BA000D3FA0146404606F0C7F9014606F0C4F9FB
:100BB00012990746304606F0C7FA2946804638465D
:100BC00006F0C2FA0146404606F0B6F9139905460A
:100BD000304606F0B9FA21468046384606F0B4FAA7
:100BE0000146404606F0A8F914990446304606F03E
:100BF000ABFA51460646384606F0A6FA014630469C
:100C000006F09AF9A44B00221A6007465A609A60CF
:100C10000899109806F098FA0A990646119806F075
:100C200093FA0146304606F085F93946064605989E
:100C300006F08AFA21468046069806F085FA0146B3
:100C4000404606F077F90146304606F075F99349BB
:100C500006F07AFA0146159806F06EF9002106F0C2
:100C60006BF909990646119806F06EFA08998046C4
:100C70000F9806F069FA0146404606F05BF92946EE
:100C80008046069806F060FA39468146049806F0D8
:100C90005BFA0146484606F04DF90146404606F02B
:100CA0004BF97E4906F050FA0146209806F044F9C7
:100CB000002106F041F90A9907460F9806F044FA18
:100CC00009998046109806F03FFA0146404606F022
:100CD00031F921468046049806F036FA2946044642
:100CE000059806F031FA0146204606F023F9014640
:100CF000404606F021F9694906F026FA0146219896
:100D000006F01AF9002106F017F9654B80464FF0FE
:100D10007C51186806F018FA029B0546314603F12B
:100D2000004006F011FA39460446039806F00CFA22
:100D30000146204606F0FEF841460446584606F0B5
:100D400003FA0146204606F0F5F8294606F0FCF9BC
:100D50000146079806F0F0F83146044606F0F4F92B
:100D600041468146039806F0EFF90146484606F0F1
:100D7000E3F839468146584606F0E6F9014648460A
:100D800006F0D8F8294606F0DFF90146029806F089
:100D9000D3F839468246204606F0D6F941468146C8
:100DA000029806F0D1F90146484606F0C3F83146EC
:100DB0008146584606F0C8F90146484606F0BCF898
:100DC000294606F0C1F90146039806F0B5F84146F8
:100DD0008146204606F0B8F939468046029806F06A
:100DE000B3F90146404606F0A7F831460746039896
:100DF00006F0AAF90146384606F09CF8294606F0A6
:100E0000A3F90146584606F097F8214606462046C3
:100E100006F09AF951460546504606F095F9014606
:100E2000284606F089F849460546484606F08CF9FA
:100E30000146284606F080F831460546304606F061
:100E400083F90146284606F077F805F0E9FC04F03E
:100E50000DFF06F01BF801464FF07E5006F028FA11
:100E600005462946204606F06FF90E4A29461060CD
:100E7000504606F069F90B4B29465860484606F083
:100E800063F9084A29469060304606F05DF9054B43
:100E9000D86017B0BDE8F08F248EFF1F00002041FE
:100EA000948DFF1F6487FF1F2DE9F04F18208BB032
:100EB00000F0D6FDDFF81483AD4EAE4D00B3AE4C5E
:100EC000AE4F204601F08DFDB4F90010204601F030
:100ED0004FFC396806F02EF8B4F90210C8F800008B
:100EE000204601F045FC796806F024F8B4F90410B6
:100EF0003060204601F03CFCB96806F01BF8286021
:100F00001B2000F0ADFDDFF8C89210B39A4C9C4F47
:100F1000204601F09DFDB4F90610204601F031FC99
:100F2000396806F007F8B4F90810C9F8000020463F
:100F300001F027FC796805F0FDFF924BB4F90A1027
:100F40001860204601F01DFCB96805F0F3FF8E4BD8
:100F50001860202000F084FDC0B1874C204601F0CD
:100F600095FDB4F90C10204601F014FC874BB4F940
:100F70000E101860204601F00DFC854BB4F91010DE
:100F80001860204601F006FC824B186000F092FDCC
:100F9000814F824B044618603868201A06F07CF8AE
:100FA0007F4906F085F97F4B3C607F4C7F4F18608E
:100FB0000146206805F0C0FF3B6820600133D8F887
:100FC00000003B6005F02CFC67A3D3E9002305F08B
:100FD0007BFC0022764B05F0A1FD05F057FF804613
:100FE00030686A4E05F01CFC5FA3D3E9002305F0CE
:100FF0006BFC00226E4B05F091FD05F047FF009061
:101000002868634D05F00CFC57A3D3E9002305F0D5
:101010005BFC0022664B05F081FD05F037FF019077
:10102000336802932B6803935A4B1B680493554B08
:10103000D9F800001968544B1A684346FFF744FC7E
:101040005C4B1A685C4B1B68D31A5C4A642B1360B8
:10105000A04640F2DD815A4C30682968FFF7D0FB8A
:101060006368D4F808902668E568069318464946F0
:1010700006F06AF829468246304606F065F80146D1
:10108000504605F059FF014605F056FF05F0C8FB34
:1010900082468B463046314606F056F8069B064699
:1010A0001946184606F050F80146304605F044FF50
:1010B00049460646484606F047F80146304605F0E0
:1010C00039FF29460646284606F03EF801463046D6
:1010D00005F030FF05F0A4FB02460B46504659468A
:1010E00004F0C2FD05F0D2FE364DE168286060686C
:1010F00006F02AF8A1680646206806F025F80146A1
:10110000304605F017FF014605F016FF05F088FB95
:1011100004F056FD05F0BAFE2B4ED4F800C0D4F80A
:1011200004B0D4F808A0D4F80C9000F1004030606E
:1011300059466046CDF81CC006F006F849460346FD
:101140005046069306F000F8069B0146184605F047
:10115000F3FE014605F0F0FE05F062FBDDF81CC071
:10116000CDE90801614635E0182D4454FB210940C2
:101170007C8DFF1F148EFF1F9C8DFF1F088EFF1F8D
:10118000848DFF1FF88DFF1F988DFF1F188EFF1F86
:10119000708DFF1F208EFF1F808DFF1F048EFF1F8D
:1011A00000247449948DFF1F308EFF1F008EFF1F97
:1011B00000807640C08EFF1F748DFF1FDC8DFF1FE7
:1011C0006487FF1FE08DFF1F908DFF1F788DFF1F2D
:1011D000F48DFF1F604605F0B7FF59468446584618
:1011E000CDF81CC005F0B0FFDDF81CC0014660461C
:1011F00005F0A0FE51468346504605F0A5FF014686
:10120000584605F097FE49468246484605F09CFF41
:101210000146504605F090FE05F002FB02460B46E3
:10122000DDE9080104F020FD05F030FEDFF824A21E
:101230007D49CAF800007D48FFF721F9286805F0CC
:10124000EFFA4FF0020902460B46CDF800907748BE
:10125000FFF719F976497548FFF711F9306805F07D
:10126000DFFACDF8009002460B467048FFF70BF905
:101270006F496E48FFF703F9DAF8000005F0D0FA7D
:10128000CDF8009002460B466848FFF715F9306824
:1012900005F0C6FA60A3D3E9002305F015FB05F0BD
:1012A000F5FD3060286805F0BBFA5BA3D3E90023A5
:1012B00005F00AFB05F0EAFD05F0B2FA58A3D3E900
:1012C000002305F04DF905F0E1FD2860DAF8000093
:1012D00005F0A6FA50A3D3E9002305F0F5FA05F0CE
:1012E000D5FD5149CAF800005048FFF7C8F82868F2
:1012F00005F096FACDF8009002460B464B48FFF7F2
:10130000C2F84B494948FFF7BAF8306805F088FA47
:10131000CDF8009002460B464448FFF7B4F8444924
:101320004248FFF7ACF8DAF8000005F079FACDF89A
:10133000009002460B463D48FFF7BEF83D493B484A
:10134000FFF79DF8206805F06BFACDF80090024693
:101350000B463648FFF797F837493448FFF78FF8C0
:10136000606805F05DFACDF8009002460B462F4804
:10137000FFF789F831492D48FFF781F8A06805F09B
:101380004FFACDF8009002460B462848FFF77BF84D
:101390002B492648FFF773F8E06805F041FACDF8CD
:1013A000009002460B462148FFF786F825491F4862
:1013B000FFF765F8386805F06FFED8F8001005F003
:1013C00077FF05F02DFA0B460121024600911748E0
:1013D000FFF772F82C680021204606F071F810B96A
:1013E00004F1004000E0204617494FF0010506F0E7
:1013F00067F800B905460D20E9B200F011FB134B68
:101400001A68134B1A600023C8F8003000233B60B1
:101410000BB0BDE8F08F00BFF8C1631ADCA55C40DB
:101420009A99999999992B4049780000A88FFF1FA4
:10143000927700005C780000627800006978000014
:1014400070780000777800000000B442C08EFF1F63
:10145000748DFF1F348EFF1F024801216B221D2354
:1014600001F07EB99C8DFF1F08B5FFF7C3F8FFF7A9
:101470001BFD01F013F9FAE707B5064B1B88ADF821
:101480000430036801A95B680222984703B05DF845
:1014900004FB00BF8678000070B505468AB022B90B
:1014A0000368C9B21B6898472CE0012A08BF0A22CA
:1014B00021B930228DF82520212413E02124B1FB0D
:1014C000F2F002FB1011C9B209290AAE94BF303103
:1014D00037312644C9B206F8241C014610B1013C3C
:1014E000E4B2ECE733B1013CE4B20AAB23442D2271
:1014F00003F8242C2B6801A95B6828462144C4F119
:10150000220298470AB070BD0029BABF49422D2374
:1015100000230A22FFF7C0BF2DE9F3478046144697
:101520001D4610461946002200239DF8289005F01C
:101530003DFC20B105F100473D46012600E006468E
:10154000334B00270022F9B249450AD2104619460A
:101550002DA3D3E9002305F0B7F9013702460B4666
:10156000F1E72046294604F0FDFF0D46044605F04C
:101570006DFC07463346404639460A22FFF78CFF8A
:101580000646B9F1000F3BD0384605F027F9B9F10E
:10159000070F28BF4FF007090B4602462946204691
:1015A00004F0DEFF09F101092E238DF800305FFA07
:1015B00089F94FF0010A0022164B05F085F90D4616
:1015C000044605F043FC02AB5344C0B200F13002C4
:1015D00003F8082C05F012F90AF1010702460B4640
:1015E000FFB22046294604F0BBFF4F4501D0BA4662
:1015F000E1E7D8F8003040465B6869464A469847BC
:10160000304602B0BDE8F0879A9999999999B93F07
:101610000000E03F00002440024B1A6801321A60CB
:10162000704700BFC08EFF1F08B50B4C23685803DE
:1016300001D500F089FB2368590501D503F0DCFAD8
:1016400023681A0501D503F027FD2368DB04ECD5D8
:1016500003F008FFE9E700BF3480044008B5FFF756
:10166000E3FFFFFF014B10221A8070470020054066
:101670007047FFFF024A136818441060184670470D
:101680007487FF1FEFF313839BB9EFF3108098B9B2
:10169000EFF3058323B10F2B04D9084A985C01E0CE
:1016A0004FF48070EFF311833BB1834238BF18468B
:1016B00070474FF0FF30704718467047F0E300E086
:1016C00010B50023B0FBF2F402FB1400092894BF0C
:1016D00030303730C0B2C85420460CB10133F1E786
:1016E000CA18547022469A4206DA885CCC5C8C5444
:1016F000C8540132013BF6E7084610BD1F4B10B538
:101700001C681C60E00304D51D4B1A680AB11B68F5
:101710009847A10304D51A4B5A680AB15B689847E9
:10172000E20704D5164B1A6C0AB11B6C9847A30745
:1017300004D5134B5A6C0AB15B6C9847200704D54B
:101740000F4B9A6C0AB19B6C9847610704D50C4B00
:10175000DA6C0AB1DB6C9847220304D5084B5A6E49
:101760000AB15B6E9847630306D5054BD3F880201A
:1017700012B1D3F88030984710BD00BFA0A004403C
:10178000388EFF1F2C4B10B51C681C60200704D539
:101790002A4B5A6A0AB15B6A9847E10604D5274B7F
:1017A0009A6A0AB19B6A9847620604D5234BDA6AA3
:1017B0000AB1DB6A9847230604D5204B1A6B0AB19D
:1017C0001B6B9847A00604D51C4B5A6B0AB15B6B88
:1017D0009847E10704D5194BDA6B0AB1DB6B9847E0
:1017E000A20704D5154B9A6D0AB19B6D9847630704
:1017F00004D5124BDA6D0AB1DB6D9847A00504D50C
:101800000E4BDA6E0AB1DB6E9847E10504D50B4B3F
:101810001A6F0AB11B6F9847620504D5074B5A6FC0
:101820000AB15B6F9847230504D5044B9A6F0AB140
:101830009B6F984710BD00BFA0B00440388EFF1FBB
:101840001E4B10B51C681C60E00704D51C4B9A6841
:101850000AB19B689847210604D5194B5A690AB109
:101860005B699847E20604D5154B9A690AB19B69F2
:101870009847630704D5124BDA690AB1DB699847C8
:10188000200704D50E4B1A6A0AB11B6A9847A107B4
:1018900004D50B4B9A6B0AB19B6B9847A20604D5F3
:1018A000074B1A6D0AB11B6D9847630604D5044BAC
:1018B0005A6D0AB15B6D984710BD00BFA0C00440CF
:1018C000388EFF1F114B10B51C681C60E00404D556
:1018D0000F4BDA680AB1DB689847A10404D50C4BBA
:1018E0001A690AB11B699847A20604D5084B1A6EFB
:1018F0000AB11B6E9847E30606D5054BD3F8842042
:1019000012B1D3F88430984710BD00BFA0900440B6
:10191000388EFF1F094B10B51C681C60A20704D548
:10192000074B9A6E0AB19B6E9847E30704D5044BA8
:10193000DA6F0AB1DB6F984710BD00BFA0D004403A
:10194000388EFF1F212830B531D8042A2FD8DFE880
:1019500002F00709050B03000B2306E00A2304E04D
:10196000082302E00C2300E00923114A114D02EB89
:10197000C0025468104AC2F89C51104DC2F8A051E0
:101980000F4DC2F8A4510F4DC2F8A8510E4DC2F828
:10199000AC5172B622680D4D22F47022226042F0E2
:1019A000807242EA034345F82010236062B630BDDE
:1019B00088780000C51800000082FF1FFD16000097
:1019C000851700004118000015190000388EFF1F10
:1019D000094B03EBC0035A6872B6136823F0877390
:1019E00023F4803343F080731360044B002243F8E8
:1019F000202062B6704700BF88780000388EFF1F35
:101A0000044B054900221A600A60044A1060102243
:101A10001A60704714D0034004D0034000D0034044
:101A2000212810B518D80D4A52F8303093F880426A
:101A30003CB1012211B183F8802010BD83F8002150
:101A400010BD02EBC00043681A6811B142F00302F6
:101A500001E022F002021A6010BD00BF8878000089
:101A6000212806D8044B53F8303093F80002C0B256
:101A700070470020704700BF88780000212816D8E2
:101A80000B4A02EBC00301295B6852F8302004D1F5
:101A900082F880124FF4A27208E0002082F88002DF
:101AA00011B94FF4807201E040F203121A607047DE
:101AB0008878000072B60B4B0B491A680B4B1B68F9
:101AC000096862B6490102D5322A88BF0133C2F5DE
:101AD000BB326021FF32B2FBF1F24FF47A7000FBAF
:101AE0000320704718E000E004ED00E0C08EFF1F07
:101AF00038B50446FFF7DEFF054664B1FFF7DAFFAD
:101B0000401BB0F57A7F03D3013C04D005F57A750C
:101B100000F0C4FDF2E738BD1F4B4FF4000210B5D2
:101B20001A604FF080721A604FF000721A604FF026
:101B300080621A604FF000621A60184B184A194C04
:101B400000204BF6FF7118605960282313609360E2
:101B5000136193611362936213639363092222609A
:101B600004F58054043420606160A360236144F86C
:101B7000042C04F5FE2420600B4801600B490B6027
:101B80008B600B4B1A6002F0FBFD0420FFF7B0FFE7
:101B9000BDE8104000F0CEBB08E100E00480034047
:101BA0000C8003400080034008800B400C800B40F9
:101BB00000800B40F0B50C4B0C4C1A7842F002053B
:101BC00004EBC50682F00102706009481A700678BD
:101BD000002E0CBF8827C82786F0010647EA01417E
:101BE000067044F83510F0BD2C8FFF1F0080FF1FDA
:101BF000A48FFF1F431E032B10B510D872B6094ADD
:101C000052F8230048B1416842F82310064A01887F
:101C100032F81340611A22F8131062B610BD00208A
:101C200010BD00BF1C8FFF1FA891FF1F01380328A4
:101C30000AD872B6054B53F82030002013B101309A
:101C40005B68FBE762B6704700207047708FFF1F2C
:101C500010B572B60123174A1A4412F8012C120764
:101C60001CD59900144A52F831402CB902EB4313A9
:101C700008305860114B09E041F0010152F8314041
:101C800064B902EBC103083058600D4B42F83130A3
:101C90000C4B1A78013A1A7062B610BD0133052B4D
:101CA000D9D162B6074B00221A70BDE8104000F08F
:101CB000BDBB00BFD87A00000080FF1F8800400035
:101CC000C80040009A8FFF1F431E032B30B532D847
:101CD000194A400140F01000104472B6174CE25C03
:101CE000032A09D8DFE802F016021805083002229C
:101CF00013E00830042210E01148124A50F8234043
:101D000014B940F8231002E052F82300416042F871
:101D100023100FE0032200E00522E25410F0080F28
:101D200001F108030A8843600CBF8823C82343EAF3
:101D30000243036062B630BD0080FF1FD88EFF1FD4
:101D4000708FFF1F808FFF1F2DE9F84FAB4F3C783E
:101D5000E4B214F0040F3D4619D0A94B1B78A3B18F
:101D6000A84A117801F0FF0321B1013BDBB21370E7
:101D700003B900BEA44A117801F0FF0329B1013B69
:101D8000DBB213700BB900F065FC04233B7004F068
:101D9000080303F0FF02002B00F063829B4B9C4C76
:101DA0001A78D2B215094FEA920840F0E08104EBAC
:101DB000C803596854F83830C3F38303013B0C2B34
:101DC00000F2D281DFE813F091019101D001D0013E
:101DD000D001D001D001D001AC01D001D001D0019F
:101DE0000D008C4D0A684B688B486B6001218B4B52
:101DF00044F838302A60DFF85082017092B240F225
:101E0000816000238242C8F800302361A36117D8A3
:101E1000B2F5D06F80F01E81B2F5817F00F0CF80E7
:101E200006D8802A00F0BA80822A00F0BB802DE11B
:101E300040F202339A4200F0D180B2F5A06F1CE06C
:101E400042F22100824200F04D810ED8B2F5086FB7
:101E500000F09E80B2F5106F40F01881684B6C4E18
:101E6000AA781A7006F180090AE042F221218A421A
:101E700000F0088142F221339A4200F00B8105E123
:101E8000336A1B0603D5706A083800F0CFFA0836AB
:101E90004E45F5D10026B146DFF8B0A156F80A004C
:101EA00028B1D0F804B000F0C1FA5846F8E74AF873
:101EB00006005B4BDFF898A1F05056F80A0028B1F5
:101EC000D0F804B000F0B2FA5846F8E7554B4AF89B
:101ED0000600F050544B23F81900544B19F8032016
:101EE000023A032A08D8DFE802F0020402040022C2
:101EF00000E0012203F8092009F10109B9F1040FFA
:101F000006F10406C8D14A4B00221A7001269A46EF
:101F1000484A494B3244334412F8012C9B0012F0DA
:101F2000080F1A704FEA860925D000F061FA38B11F
:101F300004EB461308305860404B44F8393006E053
:101F40009AF8003044F8390001338AF8003000F084
:101F50004FFA49F0010338B104EBC3020830506076
:101F60002E4A44F8332006E044F833009AF8003053
:101F700001338AF8003049F00202013649F00309C2
:101F80000023052E44F8323044F83930C0D182E0C5
:101F90001B4B2B4C1B7823700B467FE0284C237087
:101FA00063707AE0AA88042A70D8254C92002370C6
:101FB0006370244B9B5C9E076FD521706DE0AA88EF
:101FC00002F07F03042B61DC6B88002B5ED1910053
:101FD0001C4A0A44117821F0020155E0AA8802F057
:101FE0007F03042B52DC6B88002B4FD19100154AE4
:101FF0000A44117841F0020146E000BF802007400A
:10200000A38FFF1F2D8FFF1FB88FFF1F902007404A
:102010000080FF1F908FFF1FA48FFF1FC80040008C
:10202000C88EFF1F808FFF1FA891FF1FD88EFF1F34
:102030009A8FFF1FD87A000030C801108800400036
:102040009B8FFF1FC0200740C48EFF1F1C8FFF1FE8
:10205000708FFF1F6A88A9889D4B53F8084CA3F125
:102060000C009CB133F80C6C964209D133F80A6C21
:102070008E4205D1120A032A0CBF237803890DE092
:102080000C33EAE7A978934A117004E0924B0F22CF
:102090001A7027E000231C4600E00223EE88B342BA
:1020A00038BF1E46402E34BF3546402520462946BF
:1020B000FFF780FD761B2C4403D1402D12D135460D
:1020C00003E0402E34BF3546402520462946FFF721
:1020D00071FD761B2C4401D1402D03D17F4AC8F8F5
:1020E0000040168001227E4B3DE07E4B1A8842F272
:1020F00021039A4210D100237B4AC85C98540133D3
:10210000072BF9D11368862B02D1784B0F221A7056
:1021100000200146FFF74EFD754B44F8383023E0B0
:10212000744E3568B5B1DFF8B481B8F80090B9F1F4
:10213000400F34BF4C46402428462146FFF73AFD65
:10214000C4EB09039BB2A8F800300BB9402C00D1B6
:102150002B193360634B1A88B2F5A06F04D10022AB
:102160005A709A78644B1A7001225D4B6CE004EB54
:10217000C806013D736802F00802A3F10800EDB241
:1021800002F0FF01002A36D000F050F95B485C4BAA
:1021900050F82520EAB1516840F8251002F10801F5
:1021A0007160595D03290BD8DFE801F002040608CD
:1021B000032104E0022102E0052100E00421595539
:1021C00016F0080F12880CBF8823C82343EA024385
:1021D00042E05A5D032A07D8DFE802F040400204DB
:1021E000002206E0012204E016F0080F0CBF0222D4
:1021F00003225A5532E054F83820120C23F8082CE8
:1022000022B3DFF82CE123F8061C43F8041C5EF827
:1022100025303C4913B94EF8250002E051F825302D
:102220005860394B41F8250033F815100A4423F85B
:10223000152000F0DDF810B10830706006E0334B77
:1022400044F838001A7801321A7007E0284B304AF7
:1022500016F0080F08BF134644F8383008233B70C7
:1022600074E5E0071FD51E4929482A4C02230B704C
:10227000294B1A70294B186098602948D8601A6158
:102280009A615C60144B0D2018702648FF23037080
:102290002B700274244A1370244B9F221A7001235E
:1022A0000B70BDE8F88F210604D50B4B0D221A7078
:1022B00080232B70A20705D51A4B1A78D2B21A7058
:1022C00002232B70E30644BF10232B70BDE8F88F68
:1022D000E87A0000C88FFF1FC0200740988FFF1FBB
:1022E00094200740908FFF1FB091FF1F2D8FFF1F7D
:1022F000C8004000C48EFF1F98200740708FFF1F4A
:10230000D88EFF1FC88EFF1FA891FF1F9A8FFF1F37
:1023100088004000DC8EFF1F2C8FFF1F0080FF1FF6
:10232000308FFF1F882007408C2007408420074003
:102330001C8FFF1F08B503F0EBF800221A4B002199
:10234000D15098180832882A4160F7D1174A10688E
:1023500040F48020106002F528326832C3F3072071
:102360001070C3F307401B0E10751376FF2302F89D
:102370001C3C02F8143C02F88C3C012302F8083C97
:1023800082F8641002F8183C094B70226FF4507107
:102390001A700B444FF400721A6003F1C04303F546
:1023A000C82310221A7008BD0080FF1F348004402B
:1023B00049E400E000F09EB800F05AB800F07EB8A2
:1023C00000F01AB9084600F00BB90846114600F0B3
:1023D0009FB87047044B00221A714FF47A711A7338
:1023E000024A99601A607047A88FFF1FA079000009
:1023F00072B60C4A1168B1FA81F30B2B02D962B69E
:10240000002070474FF00040D84021EA00011160E1
:1024100062B6054948225343C8180022CA50426098
:10242000704700BF7887FF1F0084FF1F0C4B4822B6
:10243000C31AB3FBF2F30B2B11D80A4A127822B15C
:10244000094A12780AB1FFF703BC72B6074A4FF087
:10245000004121FA03F311681943116062B6704715
:102460000084FF1F9A8FFF1FA38FFF1F7887FF1F16
:1024700010B5104C23686BB120684288531C02448D
:10248000147A0288934212D3FFF7D0FF094B00223F
:102490001A600DE0084B1B7813B94FF0FF3010BDE8
:1024A0000320FFF7A7FB20600028E5D1F5E7438074
:1024B000204610BDC48FFF1FA38FFF1F10B50B4C0C
:1024C000236813B123686BB902E0094B1B7813B979
:1024D0004FF0FF3010BD0320FFF78CFB2060002879
:1024E000F0D1F5E75A881344187A10BDC48FFF1F46
:1024F000A38FFF1F044B9888044B1B681BB11A88DD
:102500005B88D31A18447047A891FF1FC48FFF1F20
:102510002DE9F8432D4E012307460C463370002C5D
:102520004FD02B4D2B68A9462BBB4AF2F928294BDB
:102530001B7803F0FF020BB9327015E00420FFF79F
:1025400075FB072808D801233370FFF751FFC9F83E
:10255000000080B91D4B1870B8F101081E4B01D066
:102560001A782AB101221A704FF0FF30BDE8F883C3
:1025700000F094F8DBE72968174A488800231370B5
:10258000C0F14002944238BF224600F1080C1044CA
:102590008C444880A41A934204D0F85C0CF80300E1
:1025A0000133F8E71F444B883F2B06D940230B80AB
:1025B0000420FFF789FB00232B60084B05221A70CB
:1025C000ADE734702046BDE8F88300BFB98FFF1F28
:1025D000BC8FFF1FA38FFF1FC08FFF1FB88FFF1F70
:1025E00007B502AB012103F8010D1846FFF790FF74
:1025F00003B05DF804FBFFFF2DE9F041114B1B78A0
:10260000F3B1114E114B3468114D01271F709846DC
:102610004CB1002763882F70042023802146FFF7E8
:1026200053FB376009E0FFF7E3FE014620B10420C9
:102630002C70FFF749FB00E02F70002388F8003072
:10264000BDE8F081A38FFF1FBC8FFF1FB98FFF1F55
:10265000B88FFF1F38B50E4B1B7803F0FF05ABB9E1
:102660000C4C216831B14B880B800420FFF72CFB08
:10267000256038BDFFF7BCFE014620B10420BDE84F
:102680003840FFF721BB044B01221A7038BD00BF50
:10269000B98FFF1FBC8FFF1FB88FFF1F10B50E4CE7
:1026A0002378BBB901232370FFF724FF08B1FFF79C
:1026B00090FE02F041FA08B101F06EFF02F08CFCCE
:1026C00008B101F0DBFF02F081FE08B102F048F82A
:1026D0000023237010BD00BFC98FFF1F002AF0B573
:1026E0000CBF4FF064524FF0605200240F4E104F59
:1026F000A65B104D97FBF6F6B14255F8145004D383
:10270000190706D542F0806203E002342E2CEDD189
:10271000F6E75B0707D525F4704305F4704542F0F2
:10272000007243EA15152A430260F0BD307B0000B9
:10273000006CDC02607B000010B50446FFF7CEFFA2
:10274000204610BD054B4FF00042DA625863DA6A4A
:10275000002AFCDA014B986BC0B2704700C00240FF
:1027600010B580F82E1080F82C3080F82D2010BD88
:1027700010B50446084604F093FC616B04F0E4FCD9
:1027800010BD10B50446084604F08AFCA16B04F0A5
:10279000DBFC10BD10B50446084604F081FCE16B7B
:1027A00004F0D2FC10BDFFFF90F82F30012B05D0B4
:1027B00002D3022B04D07047034B02E0034B00E02E
:1027C000034B4363704700BF0000F53B00007A3CB9
:1027D00000007A3D10B5044690F83000042813D06C
:1027E00004F05AFC04F01CF80022094B03F0BAFE76
:1027F00002460B4603F0B6FE00224FF07C5304F075
:1028000063F804F043FB01E04FF06850A06310BD93
:102810000000F03F10B5044690F8310060B1800030
:1028200004F03EFC03F0FCFF00224FF07C5304F068
:102830004BF804F02BFB01E04FF06250E06310BD59
:1028400013B50446012190F82D00FFF717F994F80D
:102850002D000121FFF7E4F894F82C000121FFF787
:102860000DF994F82C000121FFF7DAF802F0A0FE30
:1028700008490122002301A8FFF75EFF019802F03A
:10288000D5FF012002F0DAFE042002F0EBFE02B0D8
:1028900010BD00BF00093D0070B5084615460C4646
:1028A00000211E46FFF7BCF805F03F00FFF74AFF86
:1028B0003046FFF747FF20460121BDE87040FFF793
:1028C000AFB8F8B508469DF818600D4600211446CB
:1028D0001F46FFF7A5F8012E96BF04F03F0044F015
:1028E000C00040F08000FFF72DFF0024B44205DA5D
:1028F0000020FFF727FF38550134F7E7284601216C
:10290000BDE8F840FFF78CB81FB5012300930DF127
:102910000F03FFF7D6FF9DF80F0005B05DF804FB2D
:102920007FB5084B0320597B0190002203900120C2
:102930000092029204901869134600F095FE07B0C9
:102940005DF804FBCC8FFF1FF7B5184C20461546E9
:102950000F461E4600F0A8FF236845F080011B6863
:10296000002520469847627B216900952B4620462A
:1029700001F003FA01238DE82800617B20699DF8AE
:1029800020303A4601F00EFA2069D0F83821D0F80C
:1029900034319A4205F1010705D001F01BFAEDB27E
:1029A00070553D46F0E703B0F0BD00BFCC8FFF1F70
:1029B00073B5154690F82E20012A0E4607D10093D4
:1029C00090F82D1032462B46FFF7BEFF07E032B9D4
:1029D000009390F82D1032462B46FFF772FF02B09D
:1029E00070BD13B506236A4628210446FFF7E0FFB1
:1029F0009DF801209DF8003043EA022323809DF8D2
:102A000003209DF8023043EA022363809DF80520ED
:102A10009DF8043043EA0223A38002B010BD73B5D1
:102A2000154690F82E20012A0E4607D1009390F803
:102A30002C1032462B46FFF787FF07E032B9009390
:102A400090F82C1032462B46FFF73BFF02B070BDCA
:102A500013B506236A4628210446FFF7E0FF9DF8D8
:102A600001209DF8003043EA0223E3809DF8032013
:102A70009DF8023043EA022323819DF805209DF84A
:102A8000043043EA0223638102B010BD13B506236C
:102A90006A4608210446FFF7C2FF9DF801209DF811
:102AA000003043EA0223A3819DF803209DF8023001
:102AB00043EA0223E3819DF805209DF8043043EAB0
:102AC0000223238202B010BD73B50C4C154620467C
:102AD0001E4600F0E9FE2946204600F0FBFA31468A
:102AE000204600F0F7FA00230093627B216920461C
:102AF000012301F042F902B070BD00BFCC8FFF1F6F
:102B0000134690F82E20012A30B50D4606D12A46EC
:102B100090F82D10BDE83040FFF7D6BF32B92A46F5
:102B200090F82D10BDE83040FFF7B6BE30BD2DE95E
:102B3000F0418E4604469046302172461F46BDF84D
:102B400018609DF81C50FFF7DBFF204632214FEA4A
:102B50001822FFF7D5FF204633215FFA88F2FFF7EE
:102B6000CFFF204634213A0AFFF7CAFF204635211D
:102B7000FAB2FFF7C5FF20463621320AFFF7C0FF41
:102B800020463721F2B2FFF7BBFF2046382115B1AE
:102B900045F0800200E02A46BDE8F041FFF7B0BFF3
:102BA00013B50F2204462021FFF7AAFF204621215A
:102BB0000022FFF7A5FF204622218822FFF7A0FF71
:102BC000204623210022FFF79BFF204624210022DC
:102BD000FFF796FF00220092019220462A21134619
:102BE000FFF7A5FF02B010BD134690F82E20012A72
:102BF00030B50D4606D12A4690F82C10BDE830407D
:102C0000FFF762BF32B92A4690F82C10BDE8304079
:102C1000FFF742BE30BD10B51F2104460022FFF76A
:102C2000E3FF204620215722FFF7DEFF2046212127
:102C30000022FFF7D9FF204622210422BDE81040E0
:102C4000FFF7D2BF10B5242104469422FFF7CCFF32
:102C5000204625210022FFF7C7FF2046262100221B
:102C6000FFF7C2FF204623210422FFF7BDFF2046C5
:102C700012210922BDE81040FFF7B6BF73B5104C12
:102C8000154620460E4600F00FFE29462046002538
:102C900000F020FA627B216900952B46204601F066
:102CA0006CF80123617B20698DE82800324601F031
:102CB00079F8206901F08EF8C0B202B070BD00BF93
:102CC000CC8FFF1F0A4690F82E10012903D190F8EF
:102CD0002D10FFF7D3BF19B990F82D10FFF714BED0
:102CE000704738B50D4623210446FFF7EBFF20F06F
:102CF000300040EA051223212046D2B2FFF700FF40
:102D000084F82F502046BDE83840FFF74DBD38B558
:102D10000D4620210446FFF7D5FF00F00F0040EAE2
:102D2000051220212046D2B2BDE83840FFF7E8BEA8
:102D30000A4690F82E10012903D190F82C10FFF7C5
:102D40009DBF19B990F82C10FFF7DEBD7047FFFF4B
:102D50002DE9F74F002588462421044616460095A4
:102D6000ADF80450FFF7AEFF40F040022421D2B28C
:102D70002046FFF7C5FE1420FEF7BAFE2E213F22A3
:102D80002046FFF7BDFE4FF47A70FEF7B1FE2046F5
:102D90002F21FFF797FFA94600F01F07AA46AB4671
:102DA000ABB2BB421FD26A46062320462821FFF75A
:102DB000FFFD9DF801209DF8003043EA02230BFA45
:102DC00083FB9DF803209DF8023043EA02230AFAB0
:102DD00083FA9DF805209DF8043043EA022309FA9E
:102DE00083F90135DCE79BFBF7F004F059F9616BDF
:102DF00004F0AAF9C8F800009AFBF7F004F050F9C3
:102E0000616B04F0A1F9C8F8040099FBF7F004F035
:102E100047F9616B04F098F92421C8F808002046AE
:102E2000FFF750FF242100F0BF022046FFF768FEA5
:102E30001420FEF75DFE002220462E21FFF760FEE3
:102E40001F212046FFF774FF40F040021F21D2B23D
:102E50002046FFF7C9FE1420FEF74AFE2E213F222E
:102E60002046FFF7C1FE4FF47A70FEF741FE204680
:102E70002F21FFF75DFF002500F01F08A946AA4695
:102E80002F46ABB243451FD26A460623204628216F
:102E9000FFF7C5FD9DF801209DF8003043EA0223AD
:102EA00007FA83F79DF803209DF8023043EA0223D6
:102EB0000AFA83FA9DF805209DF8043043EA0223BC
:102EC00009FA83F90135DCE797FBF8F79AFBF8F587
:102ED00099FBF8F8B8F1000FA06B0CDD03F0A0FC33
:102EE00002460B4600201E4903F018FE03F086FF41
:102EF000C0EB08080AE003F093FC02460B460020F2
:102F0000174903F00BFE03F079FF8044384604F0C4
:102F1000C7F8A16B04F018F93060284604F0C0F837
:102F2000A16B04F011F97060404604F0B9F8A16B90
:102F300004F00AF91F21B0602046FFF7F9FE1F21B7
:102F400000F0BF022046FFF74FFE1420FEF7D0FD31
:102F500020462E210022FFF747FE03B0BDE8F08F88
:102F60000000F03F38B50D4621210446FFF7E0FE92
:102F700020F0180040EAC50221212046D2B2FFF716
:102F800033FE84F830502046BDE83840FFF722BCBD
:102F900038B50D4625210446FFF7CAFE20F0600033
:102FA00040EA451225212046D2B2FFF71DFE84F8E3
:102FB00031502046BDE83840FFF72CBC38B50D46EF
:102FC00020210446FFF7B4FE00F00F0040EA05128E
:102FD00020212046D2B2BDE83840FFF705BE38B503
:102FE0000D4621210446FFF7A3FE00F07F0040EAD2
:102FF000C51221212046D2B2BDE83840FFF7F4BD0A
:1030000038B50D4624210446FFF792FE20F01C003F
:1030100040EA850224212046D2B2BDE83840FFF7BD
:10302000E3BD70B580F83130044680F82F1080F889
:103030003020FFF7B9FB2046FFF7ECFB2046FFF7F7
:10304000C9FB94F82E30012B03D12046FFF768FC12
:1030500003E013B92046FFF7F3FB20460F21FFF7EB
:1030600031FE0F2105462046FFF762FE0646204648
:10307000FFF796FD20469DF81010FFF748FE94F8E4
:103080002F102046FFF72DFE2046FFF7C4FD2046F7
:103090009DF81410FFF792FF94F830102046FFF7C8
:1030A00061FF2046FFF7CEFD20469DF81810FFF780
:1030B000A7FF204694F83110FFF76AFF45EA062083
:1030C00080B270BD0369D3F83801D3F83431C01A27
:1030D000704770470369D3F84422B2F5817F09D85D
:1030E000D3F84422501CC3F844021344012083F84F
:1030F0003C117047012303710020704730B504690B
:10310000D4F84432B3F5817F1DD8D4F84432D4F8D2
:103110004452C3F5817301332C449A4204F59E74E2
:1031200002D9012202711A460023934203D0CD5CDA
:10313000E5540133F9E70269D2F844121944C2F8A0
:103140004412184630BD01230371002030BDFFFF3B
:1031500038B5094B0360036993F84822022A0446F4
:1031600008D1D3F860522DB1284601F099F92846CC
:1031700001F064FB204638BDC0790000C3681A78AE
:103180009207FCD502221A707047FFFF002210B58B
:1031900002710273064A02604FF47A74054A846031
:1031A0004FF41A74417304FB0121016110BD00BF8B
:1031B000C07900007C87FF1FF8B5C3681B789B06A9
:1031C00004460E4600F19A80836880211970C36816
:1031D0001221197090F84932012B03D01AB980F8E6
:1031E000482200E01A46531E012B00F2898016B9CE
:1031F0004FF0807103E0012E03D14FF00071414B7D
:103200001960022A76D1D4F8605245B9082001F03D
:1032100013FB2946074601F0EFF8C4F86072D4F8B2
:10322000605265B12B79102B09D1284601F038F98D
:10323000284601F003FB0023C4F860325AE046BB85
:103240002B6831489A8B998B92B242F008029A838C
:103250002A792E4B02F1100143F8210053119B00F3
:1032600003F1604303F56143012102F01F0201FAFB
:1032700002F21A602B689A8B998B92B242F002028A
:103280009A832B7903F1804303F5043396221E7051
:1032900028E0012E27D12B681D489A8B998B92B27A
:1032A00042F008029A832A79184B02F1100143F880
:1032B000210053119B0003F1604303F5614302F0C9
:1032C0001F0296401E602B689A8B998B92B242F037
:1032D00002029A832B7903F1804303F50433002221
:1032E0001A7097221A70002384F85632022384F849
:1032F000483205E0012084F84802F8BD0020F8BDFE
:103300000120F8BD00E100E0F14200000082FF1F53
:10331000FD4200008C4B994210B5436804461BD116
:103320000D2A15D8DFE802F02628072C090B57597B
:103330005B0D0F611163552144E0192142E0132117
:1033400040E006213EE005213CE00120187053E0FA
:10335000002018700D224FE07C48814222D10C2AB7
:103360001CD8DFE802F007090B0D0F111315173EEB
:10337000194244002C2125E0242123E01E2121E0D4
:103380004F211FE015211DE00F211BE00E2119E048
:103390000C2117E00A2115E0042113E00020187029
:1033A0000C2229E06A48814229D10B2A21D8DFE882
:1033B00002F006080C0E10121416181A1C1E2721F3
:1033C00000E05A211970012016E01C21FAE785213E
:1033D000F8E71421F6E74521F4E70D21F2E70B2188
:1033E000F0E70921EEE70321ECE70221EAE70021FB
:1033F000E8E7002018700B22A36904218EE05548ED
:10340000814224D1092A1CD8DFE802F005070B0D00
:103410000F1113151719952100E05521197001207E
:1034200012E08521FAE71521F8E74521F6E70C219E
:10343000F4E70A21F2E70521F0E70221EEE7002197
:10344000ECE7002018700922A369032166E04248D6
:1034500081421FD1072A17D8DFE802F004060A0CC0
:103460000E1012141F2100E08521197001200EE0BA
:103470001421FAE74521F8E70B21F6E70521F4E7E7
:103480000221F2E70021F0E7002018700722A3696B
:10349000022143E03148814210D1052A0AD8DFE8F1
:1034A00002F00305071D21231D2118E0142116E059
:1034B000432114E00020187005221AE028488142B8
:1034C0001AD1032A12D801A151F822F0AD3400001C
:1034D000DD340000E5340000E93400000B211970F0
:1034E000012006E00321FAE70021F8E70020187028
:1034F0000322A369012111E01A48814210D122B1AF
:10350000012A4FF0000101D003E00B2119700120C6
:1035100002E0197000200122A369002119700FE058
:10352000114881424FF00000187007D10AB90120FC
:1035300000E00020A36900221A7001E0A36918705E
:1035400084F84C2210BD00BF00879303007E560311
:10355000006CDC020051250200366E010024F400EC
:1035600000127A0000093D0080841E00F8B51C4658
:103570009DF8183005462BB1C0680078800601D54B
:103580000020F8BD002C40F2032640F2646040F2B7
:10359000036708BF4FF4197608BF074685F84B420A
:1035A00071BB012A14D173B1002C14BF0221002178
:1035B0001220FEF763FA002C4FF0130014BF022113
:1035C0000021FEF75BFA012385F84A32224B13E013
:1035D00073B1002C14BF022100211120FEF74EFA16
:1035E000002C4FF0100014BF02210021FEF746FA14
:1035F000002385F84A32194B1E6043F8046C29E019
:10360000012927D1042A13D15BB1002C14BF022455
:1036100000241E202146FEF731FA1D202146FEF728
:103620002DFA042385F84A320D4B1F605F6011E0CC
:103630005BB1002C14BF022400241F202146FEF79A
:103640001DFA1A202146FEF719FA032385F84A329B
:10365000044BD1E70120F8BD04A004400CA00440B5
:1036600000D004402CB00440F7B5044616469DF83F
:1036700020009DF82C700D4621B92A4A116841F0AE
:10368000400105E0012904D1264A116841F080017A
:103690001160002284F84E2284F84962626936B9CA
:1036A0002023137023681E70E3691E7015E0002844
:1036B0000CBF202128211170216801D0834201D242
:1036C0005A0000E04200D2B20A70E26920B183429F
:1036D00034BF40005800C0B2107000232946009348
:1036E0009DF824209DF828302046FFF73FFF94F8EE
:1036F0004A32022B0CBF0C490C493A462046FFF7D0
:1037000009FE9DF8302020462946FFF755FD94F824
:103710004922A3680AB9802200E0C0221A7003B0CF
:10372000F0BD00BF3480044000D8B805006CDC0256
:1037300090F84A32042B2DE9F7430446894641D8D4
:10374000224AD55C224AD65C002E3BD0002D39D0CF
:1037500090F84B32002B14BF022100213046FEF7B7
:103760008DF928460121FEF75BF928460121FEF775
:1037700085F90B273046FEF773F9014618B9013F6A
:1037800017F0FF070CD1002184F84E12009194F835
:103790004A2294F84B3220464946FFF7E7FE11E0F3
:1037A00028464FF0A008FEF73BF94346013B7FF463
:1037B000FDAF01212846FEF733F9B8F101087FF487
:1037C000FCAFD7E703B0BDE8F08300BFD8790000B5
:1037D000DD7900002DE9F041044616461F460D46EE
:1037E000FEF768F9A3681A789206804602D5B422DB
:1037F0001A7027E0002E45D0FEF75CF9C8EB0000F8
:10380000B0423FD3A3681B789B060FD420462946BD
:10381000FFF78EFFE3681B7803F0200303F0FF023D
:1038200023B9A36884F84922B0221A70A3681B78D0
:1038300003F0200303F0FF0023B9042384F84E3281
:10384000BDE8F08194F84832013B012B17D8FDF711
:1038500019FF134B134A002D14BF1946114609785E
:1038600088420CDC0F2803DC01203870BDE8F081B1
:10387000002D14BF1D4615461038C0B22870012017
:10388000BDE8F081E3681A7802F0200202F0FF033D
:10389000002AAFD184F84932A368B0221A70B1E788
:1038A00019E400E018E400E00369490083F83C11E2
:1038B00003690122C3F844220022027183F84E22D8
:1038C0007047F7B51E4600238DF80730D0F8443214
:1038D00004461546002B00F0AF800EB9D0F86462A4
:1038E000E36812221A70204632460DF10703FFF7F3
:1038F00071FF002800F0A08094F8483213B19DF8C1
:10390000071021B3FEF7D6F8012384F84D5207467D
:1039100084F84E320025D4F844329D4206D2002E5F
:103920005FD0FEF7C7F8C01BB0425AD3D4F8443278
:103930009D4234BF0423002384F84E3294F84D3264
:10394000012B08BF8022A36818BFB02247E05A1E8F
:10395000012A71D80120022B84F84E0284F84D52BE
:10396000C4F8401235D1D4F84432042B31D9D4F8FC
:10397000602284F856021368D4F84452D97104F5D1
:103980009F761F6818711E605971136818725972FA
:103990009972D9721368033D6842D860A8B2DD8B72
:1039A000D8831368DA8AD882D4F860222069136831
:1039B000B0F1804F99711D691975186159751368B7
:1039C00033D3996889B3136800221A765A769A76A7
:1039D000DA76A368F0221A70236994F83C211A70F1
:1039E0002AE06219236992F83C211A702046FFF7F9
:1039F000C5FBE3681B78DBB2DA0608D5072384F839
:103A00004E32A36880221A70E368102209E0D907B9
:103A100009D50DB9052300E0062384F84E32A368CA
:103A200080221A7082E7013575E7002101201872A3
:103A300059729972D972C6E703B0F0BD2DE9F3410E
:103A40001646002204469DF82070099D8DF8072037
:103A5000002B00F01581B3F5827F03D3082380F893
:103A60004E320DE1C0F83421C0F85032C0F8382190
:103A70000DB9D0F86452E36812221A7020462A4623
:103A80000DF10703FFF7A6FE002800F0F98094F877
:103A900048321BB19DF80720002A40D0FEF70AF8F3
:103AA0007600022384F84E3246F00106236984F83A
:103AB0004D72F6B21E7080462046FFF75FFBE3684A
:103AC0001A78A368D2B212F0100F07D0072284F838
:103AD0004E2280221A70E368102205E0D20705D535
:103AE000052284F84E2280221A70C9E0032284F84D
:103AF0004E22D4F85022012A0CBFA822A0221A700C
:103B000023691B78D4F83821D4F850329A4280F0D7
:103B1000B78094F84E32032B40F0B28052E0591E29
:103B2000012900F2AD8002218B4284F84E1284F804
:103B30004D723DD1D4F85032042B39D9D4F86012EB
:103B40002069012384F856320B68B0F1804FDA7196
:103B50001D681A7118605A710B6801D39A682AB9E6
:103B60000022012018725A729A72DA72D4F8600236
:103B70000A680168D4F850520F6900231373537315
:103B80009373D3738B7104F130020A6102684B7531
:103B900001270F75177253729372D3720368013D38
:103BA0006A429A61AAB2D98BDA830368D98ADA8227
:103BB000A368F0221A707600236946F00106F6B277
:103BC0001E705DE02046FFF7D9FA002D56D0FDF7B4
:103BD00071FFC8EB0000A84234BF00230123D4F8D2
:103BE0003811D4F85022023191420FD013B194F819
:103BF00055225AB1D4F83811D4F8502201319142EB
:103C000019D23BB194F85522AAB903E0A268A821C1
:103C10001170EFE722691178D4F83821501C224442
:103C2000C4F8380182F83010002B3FF46BAF012349
:103C300084F8553266E7002284F85522A268B02144
:103C4000117022691178D4F83821501C2244C4F82C
:103C5000380182F830101BB1042284F84E2201E0B2
:103C600084F84E3294F84D22012ADDD12022013A07
:103C70007FF4FDAFA26880211170D5E72B46AEE737
:103C800002B0BDE8F081036993F84E32043B042B87
:103C90000AD8DFE803F0070E05070300012070478C
:103CA00003207047042070470079003018BF0120BE
:103CB00070470220704790F84E32B3B190F84E3200
:103CC000052B12D090F84E32062B0ED090F84E32C3
:103CD000072B0AD090F84E32042B06D090F84E02F3
:103CE000B0F108035842584170470120704770B541
:103CF000044615460AB9D0F86452FDF7DBFE0646C5
:103D00002046FFF7D8FF88BB002DF9D0FDF7D2FE83
:103D1000801BA842F4D3FDF7CDFE801BA8420ED332
:103D200094F84832022B0AD194F856323BB120461F
:103D3000FFF7C1FF0028FAD0042384F84E3294F82C
:103D40004E32012B15D094F84E32022B11D094F83C
:103D50004E32032B0DD08023013B7FF4FDAF94F84E
:103D60004E02D0F1010038BF002070BD002DE6D01A
:103D7000D1E7042384F84E32EDE7F8B5069C0746F8
:103D80000E461546084611461A462346FFF799FD8A
:103D9000304629462246FFF7AAFF3846BDE8F840DC
:103DA000FFF771BFF7B5099D04460E460BB9002019
:103DB0000EE09DF8207000970195FFF73FFE20462A
:103DC00031462A46FFF793FF0028F0D0D4F8380197
:103DD00003B0F0BDD0F83421D0F838319A4208D27F
:103DE000D0F834315A1CC0F83421184490F830000F
:103DF00070474FF0FF3070470069FFF7EBBFD0F816
:103E00003421D0F838319A423DBFD0F83431C0184F
:103E100090F830004FF0FF3070470069FFF7EFBFB8
:103E200038B5C268836815781978C9B2044688061F
:103E3000EDB217D5C9060AD594F85612022900F03A
:103E4000C38094F85612032940F0C580BCE094F872
:103E50005622022A00F09D8194F85622032A40F04F
:103E6000788196E115F0100F05F0400304D0102082
:103E70001070002B00F0A48003F0FF02002B53D041
:103E800094F84E320A2B04D1D4F85832002B40F06B
:103E9000208205F0040505F0FF03F5B1092384F83D
:103EA0004E320023C4F84432A368D0221A7023692A
:103EB0001B785B0884F84F32D4F85C3203B1984722
:103EC000D4F844320BB984F83C31236994F83C218E
:103ED0001A700123C4F8403272E094F84A2284F840
:103EE00054320AB9122002E0012A02D11120B3494A
:103EF00008E0032A02D11E20B14904E0042A04D1BB
:103F0000AF491F200322FDF71DFD0A2384F84E321E
:103F10000023C4F83831A368C0221A7023691B78C3
:103F20005B0884F84F324BE001F0100101F0FF0311
:103F3000F1B115F0010513D1D4F84022D4F8443280
:103F40009A4207D2D4F840325A1C2344C4F8402283
:103F500093F83C5123691D70A368D0221A702FE09A
:103F6000A368C021197023691B7884F84E2227E0CA
:103F700094F84A2284F854320AB9122002E0012A45
:103F800002D111208D4908E0032A02D11E208C495C
:103F900004E0042A04D18A491F200322FDF7D2FC41
:103FA00023691A78D4F83831B3F5817FD2B207D8B3
:103FB000D4F83831591C2344C4F8381183F8302020
:103FC000E36802221A7038BDD4F860321968898B10
:103FD000090643D592E094F84E22012A57D105F004
:103FE000100202F0FF016AB10022072184F8562274
:103FF00084F84E1280211970E36812211970C4F8F8
:10400000402238BD15F001050AD084F85612D4F8C4
:104010004022002A4CD0062284F84E2280229DE7BE
:10402000D4F840220132C4F84022D4F844128A4223
:1040300002D384F84E525BE094F85622012A1FD135
:10404000022284F85622F1221A70D4F860321A79CA
:104050005C4B1A70236994F83D217FE794F856125F
:10406000032955D111780806FCD51A79564B1A70D8
:10407000002384F85632D4F84432013BC4F840326D
:10408000D4F840222369224492F83C2166E794F850
:104090004E22D2B2022A27D1E90607D5072284F898
:1040A0004E2280221A70E36812228BE7E80701D5BE
:1040B0000522B1E794F85612012908D184F8562256
:1040C000E1221A70D4F860321A793E4B08E00322DC
:1040D00084F84E22D4F85022012A0CBFE822E022B4
:1040E0001A7023691B786BE794F84E22042A95D145
:1040F00094F84D22012A91D0B0222FE794F856125D
:104100000229ABD11A79314B1A70A368F02250E022
:104110002F4A1B7912680121994011423FF450AF98
:104120002A4A1370D4F860321A792A4B1A70002385
:10413000EA0684F856327FF543AF072284F84E2210
:10414000A26880211170E26812211170C4F8403217
:1041500038BDD4F83811D4F85022023191427BD0C6
:1041600094F84E22042A03D194F85522002A73D0E1
:10417000D4F83821D4F8503201329A4280F0878046
:1041800094F84E32042B6AD194F85532002B7ED12C
:1041900065E0D4F860321A681B79928B12F0800FB8
:1041A0001AD094F85622022A16D1084A1370A3682E
:1041B000E8221A70032384F8563201E79D43000079
:1041C000A94300001B8000401C8000401F8000406D
:1041D0002C8000401E80004094F85622032A26D1ED
:1041E0003F4A1370002384F8563294F84E22042A72
:1041F00018BF84F84E32A368B0221A70D4F8503237
:10420000013BC4F83831D4F838315A1CC4F838218D
:1042100022692344127883F8302094F84D32012B20
:104220007FF4CEAE2023013B7FF4FDAF12E02D4A98
:1042300001211268994011423FF4C2AE2A4A13701C
:10424000D4F860321A79294B1A70002384F8563258
:1042500084F84E32A368E1E6E8221A7088E7D4F8C1
:1042600038315A1CC4F8382122692344127883F863
:10427000302094F84E32042B7FF4A2AE94F85532DD
:10428000002B7FF49DAE012384F8553298E694F814
:104290004E220023042A84F8553201D084F84E328D
:1042A000A368B0221A70D4F838315A1CC4F83821E7
:1042B00022692344127883F8302094F84D32012B80
:1042C000D7D12023013B7FF4FDAFA36880221A7071
:1042D000CFE70022C4F83421D4F838019847D8E554
:1042E0001C8000402C8000401E8000401F80004049
:1042F00001480021FFF794BD7C87FF1F0148012181
:10430000FFF78EBDE489FF1F10B5C3681B7803F06B
:104310002003044603F0FF02EBB990F84A3280F81C
:104320004E220BB912200AE0012B01D1112006E028
:10433000032B01D11E2002E0042B02D11F20FDF728
:1043400047FBD4F858323BB30022C4F83421D4F8E8
:104350003801984710BD90F854320133DBB2012B7D
:1043600080F8543204D890F84932012B00D110BDA6
:1043700094F84A320BB912200AE0012B08BF112031
:1043800006D0032B08BF1E2002D0042B04D11F200F
:10439000BDE81040FDF71CBB10BDFFFF0148002128
:1043A000FFF7B2BF7C87FF1F01480121FFF7ACBFB9
:1043B000E489FF1F70B50C4E0C4D0D4C30460021AA
:1043C000FEF7E4FE30460B4E2246294601F046FA3F
:1043D00030460121FEF7DAFE304629462246BDE886
:1043E000704001F03BBA00BFE08FFF1F5131000069
:1043F0006087FF1FCC8FFF1F30B572B6254C09B9FF
:10440000026812B9218800230FE003790F2BF9D835
:1044100021881941C907F5D503F1007303F59063AD
:10442000B2EB431FEED162B630BD41FA03F212F097
:10443000010227D101259D402943218062B6164CF7
:10444000D9B20171256845F00205256054F8045C75
:1044500003F1007345F0020544F8045C03F5906332
:104460000E4C5B0182252560A176A1772176E1774C
:1044700003601A605A609A60DA601A615A619A6140
:10448000DA6130BD0133102BCFD162B60022026059
:10449000037130BDF48FFF1F408004400080004056
:1044A00003790F2B10D8094A137072B6084B0279A2
:1044B000012101FA02F2198821EA02021A8062B689
:1044C0001023037100230360704700BF1A8000406F
:1044D000F48FFF1F08B50368C9B21B68984708BD71
:1044E00008B50368C9B21B68984708BD08B50368DA
:1044F000C9B21B68984708BD08B50368C9B21B68F4
:10450000984708BD4B0803F1376000F5D830B0FB81
:10451000F1F000F095B910B54B0803F1376000F5E4
:10452000D8301446B0FBF1F000F08AF92046BDE81F
:10453000104000F0CBB900F0F3B9084600F01CBA07
:1045400000F0FABA00F022BB00F006BB00F0D8BAC7
:1045500000F034BB00F0DEBA08B5084600F028FAD7
:10456000012008BD08B5084600F022FA012008BD68
:1045700010B508461446114600F064FA204610BDF6
:1045800038B508460D4603F099F8044621462846FA
:1045900000F058FA204638BD7047FFFF044B002258
:1045A0001A714FF47A711A73024A99601A6070474F
:1045B000F88FFF1FF079000008B50368C9B21B68C7
:1045C000984708BD08B50368C9B21B68984708BD7D
:1045D00008B50368C9B21B68984708BD08B50368E9
:1045E000C9B21B68984708BD4B0803F1376000F556
:1045F000D830B0FBF1F000F073BB10B54B0803F1FD
:10460000376000F5D8301446B0FBF1F000F068FBDD
:104610002046BDE8104000F0A9BB00F0D1BB084621
:1046200000F0FABB00F0D8BC00F000BD00F0E4BC24
:1046300000F0B6BC00F012BD00F0BCBC08B50846E6
:1046400000F006FC012008BD08B5084600F000FC9B
:10465000012008BD10B508461446114600F042FC82
:10466000204610BD38B508460D4603F027F804462D
:104670002146284600F036FC204638BD7047FFFF33
:10468000044B00221A714FF47A711A73024A99602E
:104690001A6070470890FF1F407A000008B5036851
:1046A000C9B21B68984708BD08B50368C9B21B6842
:1046B000984708BD08B50368C9B21B68984708BD8C
:1046C00008B50368C9B21B68984708BD4B0803F1D9
:1046D000B76000F55840B0FBF1F000F051BD10B5E7
:1046E0004B0803F1B76000F558401446B0FBF1F0F9
:1046F00000F046FD2046BDE8104000F083BD00F00C
:10470000ABBD084600F0D4BD00F060BE00F088BE2E
:1047100000F06CBE00F03EBE00F09ABE00F044BE59
:1047200008B5084600F0E0FD012008BD08B50846C0
:1047300000F0DAFD012008BD10B508461446114608
:1047400000F01CFE204610BD38B508460D4602F0AC
:10475000B5FF04462146284600F010FE204638BD2D
:104760007047FFFF044B00221A714FF47A711A73DD
:10477000024A99601A6070471890FF1F907A0000F3
:1047800010B5204B2048214960221A70E1225A704E
:104790001F4B204A1C78204B082C01D1012402E039
:1047A0000A2C03D139240460132005E00C2C0CBF23
:1047B00035243D2404601220086014601860174BF3
:1047C00017491B78174A03B101230B601360164B7E
:1047D000164A1978164B012901D880210BE00429CB
:1047E00001D8842107E0082901D8852103E0102998
:1047F00094BF86218721116019600E4B01221A7027
:1048000010BD00BF0040074008B003400CB003409B
:104810004C8CFF1F08B00B400CB00B402990FF1FC1
:1048200020B0034020B00B404D8CFF1F24B003404C
:1048300024B00B402890FF1F02F088BE02F08EBE0D
:10484000194B1A6842F480621A60184A00231370E8
:10485000174A1370174A1370174A1370174A1370C8
:10486000174B40F213321A604FF451725A60154BD5
:10487000C0F344321A70C0F347125A700221042266
:1048800000F01F0098729A70D9745A7588221A74B1
:104890003C22DA700C4B40226FF44A711A700B44C0
:1048A0004FF400521A60704734800440AC90FF1FF0
:1048B0002B90FF1FB490FF1FAD90FF1F2A90FF1F8A
:1048C00040A0044000A006402DE400E0134A937885
:1048D00000F0030103F0EC030B43410748BF43F032
:1048E0001003937000F00F03042B0C4903D18B7954
:1048F00043F040038B715379C20603F0EF03074A7C
:1049000048BF43F0100353719379810603F0EF031E
:1049100048BF43F010039371704700BF00A00640EA
:1049200008B50E4B1B685B0500D408BD0C4B1A780C
:1049300002F0FF0312B1FDF7B1FEF7E7094A4FF4A9
:1049400000511160084A0949D37040F203120A600D
:104950004A60074A1370074A137008BD3480044048
:104960002A90FF1F84E100E000A0064040A0044020
:10497000AC90FF1F2B90FF1F38B50446094B1B78E6
:1049800003F0FF05002BF9D120460121FDF776F851
:1049900020462946FDF744F8034B53F83420034BD7
:1049A0001A6038BD2A90FF1F88780000B090FF1F62
:1049B000F8B51D4B1B685A05064633D51B4B1B68C3
:1049C0000BB101221A701A4B1C780134402C1F467F
:1049D00028BF0024174D2B78A34218D1FCF752FEB4
:1049E00040280FDC144A13791B06F3D52B781349A2
:1049F0000133402B28BF0023C95CDBB2C9B2D1719F
:104A00002B70E7E7FF28E5DDFDF748FEE2E70B4BFB
:104A1000F6B21E550A4B01221A70074BE4B2BC22B3
:104A20003C70DA70F8BD00BF34800440B090FF1FC6
:104A3000B490FF1FAD90FF1F00A006402C90FF1FF9
:104A40002A90FF1F274B1B685A052DE9F0470746A0
:104A50008A4644D5244B1B680BB101221A703D468F
:104A600007EB0A039D4237D2DFF890801F4E98F87B
:104A7000004096F800900134402C28BF00245FFAD3
:104A800089F9A1451DD11A4BBC22DA70FCF7FAFD59
:104A900040280FDC164A13791B060FD533781549C9
:104AA0000133402B28BF0023C95CDBB2C9B2D171EE
:104AB000337003E0FF2801DDFDF7F0FD33784B454F
:104AC000E4D00C4B15F8012B1A550B4B0122E4B224
:104AD0001A7088F80040C3E7054BBC22DA70BDE8C5
:104AE000F08700BF34800440B090FF1FAD90FF1FDF
:104AF00000A006402C90FF1F2A90FF1FB490FF1FBC
:104B000008B5034B1B7813B1FDF7C8FDF9E708BDE5
:104B10002A90FF1F064A074B1B781078DBB2C0B201
:104B200083422CBF3F3000F1FF30C01A704700BFF6
:104B3000AD90FF1FB490FF1F054B1878054B1B78F5
:104B4000C0B2DBB2984238BF4030C01A704700BFD5
:104B5000AC90FF1F2B90FF1F094B0A4A197813785E
:104B6000DBB2994208D00133402B28BF002306490D
:104B7000C85CDBB2137070474FF0FF30704700BF66
:104B8000AC90FF1F2B90FF1F6C90FF1F084B1A78F3
:104B9000084B1B78DBB29A4207D00133402B28BF69
:104BA0000023054AD05CC0B270474FF0FF30704719
:104BB000AC90FF1F2B90FF1F6C90FF1F0A4B1B68D0
:104BC0005B050FD5094BDA7802F0CB02DA70402290
:104BD0005A74DA7842F03402DA70054B1A78054BD1
:104BE000D2B21A70704700BF3480044000A0064063
:104BF0002B90FF1FAC90FF1F30B5304B1A7912F08D
:104C0000300F23D072B69A7D02F0FF0122B9DA7913
:104C100040225A7462B619E062B6294B29481A78C4
:104C20000478D2B2E4B21846244BDD79531C402BF1
:104C300028BF0023A342EDB202D0234AD5541A461E
:104C40004B1E13F0FF01EFD1D2B202701B4BD9788B
:104C5000C9B20C0620D51B7918061DD51B4B1C4A62
:104C60001D781378EDB2DBB21046AB420CD0134A7C
:104C70000133402B1479174C28BF0023E45CE4B2C5
:104C8000D471127D072AF0D9DBB203700B4B1A796D
:104C9000120644BF7C22DA704B060ED5074B1A79F8
:104CA00012F0400F194608D00B4B00221A700B4B24
:104CB0001B6803B11A703C23CB7030BD00A00640C6
:104CC000AC90FF1F2B90FF1F6C90FF1FB490FF1F35
:104CD000AD90FF1F2C90FF1F2A90FF1FB090FF1F69
:104CE000194B1A6842F400621A60184A00231370C4
:104CF000174A1370174A1370174A1370174A137024
:104D0000174B40F213321A604FF451725A60154B30
:104D1000C0F344321A70C0F347125A7000F01F00FB
:104D20000422022198729A70D9745A7588221A74D2
:104D30003C22DA700C4B40221A70A3F22B334FF452
:104D400000421A60704700BF348004401F91FF1F6B
:104D5000B690FF1F2891FF1F2091FF1FB590FF1FE6
:104D60000CB0044000B006402FE400E0134A9378F2
:104D700000F0030103F0EC030B43410748BF43F08D
:104D80001003937000F00F03042B0C4903D18B79AF
:104D900043F040038B715379C20603F0EF03074AD7
:104DA00048BF43F0100353719379810603F0EF037A
:104DB00048BF43F010039371704700BF00B0064036
:104DC00008B50E4B1B681B0500D408BD0C4B1A78A8
:104DD00002F0FF0312B1FDF761FCF7E7094A4FF457
:104DE00000411160084A0949D37040F203120A6079
:104DF0004A60074A1370074A137008BD34800440A4
:104E0000B590FF1F84E100E000B006400CB0044004
:104E10001F91FF1FB690FF1F38B50446094B1B7842
:104E200003F0FF05002BF9D120460121FCF726FEF7
:104E300020462946FCF7F4FD034B53F83420034B7E
:104E40001A6038BDB590FF1F887800002491FF1FBD
:104E5000F8B51D4B1B681A05064633D51B4B1B685E
:104E60000BB101221A701A4B1C780134282C1F46F2
:104E700028BF0024174D2B78A34218D1FCF702FC61
:104E800040280FDC144A13791B06F3D52B781349FD
:104E90000133282B28BF0023C95CDBB2C9B2D17112
:104EA0002B70E7E7FF28E5DDFDF7F8FBE2E70B4BAA
:104EB000F6B21E550A4B01221A70074BE4B2BC220F
:104EC0003C70DA70F8BD00BF348004402491FF1FAD
:104ED0002891FF1F2091FF1F00B00640B790FF1FD1
:104EE000B590FF1F274B1B681A052DE9F0470746B1
:104EF0008A4644D5244B1B680BB101221A703D46EB
:104F000007EB0A039D4237D2DFF890801F4E98F8D6
:104F1000004096F800900134282C28BF00245FFA46
:104F200089F9A1451DD11A4BBC22DA70FCF7AAFB06
:104F300040280FDC164A13791B060FD53378154924
:104F40000133282B28BF0023C95CDBB2C9B2D17161
:104F5000337003E0FF2801DDFDF7A0FB33784B45FC
:104F6000E4D00C4B15F8012B1A550B4B0122E4B27F
:104F70001A7088F80040C3E7054BBC22DA70BDE820
:104F8000F08700BF348004402491FF1F2091FF1F51
:104F900000B00640B790FF1FB590FF1F2891FF1F7C
:104FA00008B5034B1B7813B1FDF778FBF9E708BD93
:104FB000B590FF1F064A074B1B781078DBB2C0B2D2
:104FC00083422CBF273000F1FF30C01A704700BF6A
:104FD0002091FF1F2891FF1F054B1878054B1B7868
:104FE000C0B2DBB2984238BF4030C01A704700BF31
:104FF0001F91FF1FB690FF1F094B0A4A19781378BB
:10500000DBB2994208D00133402B28BF0023064968
:10501000C85CDBB2137070474FF0FF30704700BFC1
:105020001F91FF1FB690FF1FDF90FF1F084B1A78DC
:10503000084B1B78DBB29A4207D00133402B28BFC4
:105040000023054AD05CC0B270474FF0FF30704774
:105050001F91FF1FB690FF1FDF90FF1F0A4B1B68B9
:105060001B050FD5094BDA7802F0CB02DA7040222B
:105070005A74DA7842F03402DA70054B1A78054B2C
:10508000D2B21A70704700BF3480044000B00640AE
:10509000B690FF1F1F91FF1F30B5304B1A7912F0E9
:1050A000300F23D072B69A7D02F0FF0122B9DA796F
:1050B00040225A7462B619E062B6294B29481A7820
:1050C0000478D2B2E4B21846244BDD79531C402B4D
:1050D00028BF0023A342EDB202D0234AD5541A467A
:1050E0004B1E13F0FF01EFD1D2B202701B4BD978E7
:1050F000C9B20C0620D51B7918061DD51B4B1C4ABE
:105100001D781378EDB2DBB21046AB420CD0134AD7
:105110000133282B1479174C28BF0023E45CE4B238
:10512000D471127D072AF0D9DBB203700B4B1A79C8
:10513000120644BF7C22DA704B060ED5074B1A7953
:1051400012F0400F194608D00B4B00221A700B4B7F
:105150001B6803B11A703C23CB7030BD00B0064011
:105160001F91FF1FB690FF1FDF90FF1F2891FF1FA9
:105170002091FF1FB790FF1FB590FF1F2491FF1FC5
:10518000174B1A6842F480521A60164A00231370B3
:10519000154A1370154A1370154A1370154A137087
:1051A000154A40F2133111604FF451715160134AA6
:1051B000C0F344311170C0F3471100F01F0051706B
:1051C0009072937013742C23D3700D4B40226FF4A4
:1051D0004B711A700B444FF400321A60704700BFD5
:1051E000348004409391FF1F2A91FF1F9C91FF1F61
:1051F0009491FF1F2991FF1F08C0044000C0064082
:1052000031E400E0134A937800F0030103F0EC036B
:105210000B43410748BF43F01003937000F00F03A6
:10522000042B0C4903D18B7943F040038B715379E4
:10523000C20603F0EF03074A48BF43F0100353715F
:105240009379810603F0EF0348BF43F01003937195
:10525000704700BF00C0064008B50E4B1B68DB045A
:1052600000D408BD0C4B1A7802F0FF0312B1FDF711
:1052700015FAF7E7094A4FF400311160084A094965
:10528000D37040F203120A604A60074A1370074A5B
:10529000137008BD348004402991FF1F84E100E0B1
:1052A00000C0064008C004409391FF1F2A91FF1FD1
:1052B00038B50446094B1B7803F0FF05002BF9D1E4
:1052C00020460121FCF7DAFB20462946FCF7A8FB23
:1052D000034B53F83420034B1A6038BD2991FF1F4C
:1052E000887800009891FF1FF8B51D4B1B68DA0401
:1052F000064633D51B4B1B680BB101221A701A4BA3
:105300001C780134282C1F4628BF0024174D2B7809
:10531000A34218D1FCF7B6F940280FDC144A1379E0
:105320001B06F3D52B7813490133282B28BF002304
:10533000C95CDBB2C9B2D1712B70E7E7FF28E5DDAC
:10534000FDF7ACF9E2E70B4BF6B21E550A4B012212
:105350001A70074BE4B2AC223C70DA70F8BD00BFA3
:10536000348004409891FF1F9C91FF1F9491FF1F70
:1053700000C006402B91FF1F2991FF1F38B504463E
:105380004518AC4204D014F8010BFFF7ADFFF8E765
:1053900038BDFFFF08B5034B1B7813B1FDF77EF94D
:1053A000F9E708BD2991FF1F064A074B1B781078C3
:1053B000DBB2C0B283422CBF273000F1FF30C01AED
:1053C000704700BF9491FF1F9C91FF1F054B1878F9
:1053D000054B1B78C0B2DBB2984238BF4030C01AD0
:1053E000704700BF9391FF1F2A91FF1F094B0A4A84
:1053F00019781378DBB2994208D00133402B28BFCB
:1054000000230649C85CDBB2137070474FF0FF30D1
:10541000704700BF9391FF1F2A91FF1F5391FF1FF9
:10542000084B1A78084B1B78DBB29A4207D001333D
:10543000402B28BF0023054AD05CC0B270474FF014
:10544000FF3070479391FF1F2A91FF1F5391FF1F59
:10545000024B1A78024BD2B21A7070472A91FF1F82
:105460009391FF1F10B5214B1A7992060FD5204A50
:10547000D87913781F490133402B097828BF0023BE
:105480008B42C0B203D01C49C854DBB21370174A18
:10549000D178C9B20C0616D51379180613D5174B57
:1054A00017481C780378DBB29C4202D16C23D3707E
:1054B00009E00133282B28BF0023124CE45CDBB247
:1054C000E4B2D47103704B060ED5084B1A7912F072
:1054D000400F194608D00C4B00221A700B4B1B686A
:1054E00003B11A702C23CB7010BD00BF00C0064062
:1054F0009391FF1F2A91FF1F5391FF1F9C91FF1F44
:105500009491FF1F2B91FF1F2991FF1F9891FF1F5F
:105510001FB572B6154B70221A70154A41211170D1
:105520000F2102F8011C80221A701A781206FCD58D
:10553000104B186862B6104B984298BF0A2301AC12
:1055400098BF584321460A22FCF7BAF80023E15CD1
:105550000A4A29B102EB430001330A2B4180F6D1FC
:1055600001335B00137004B010BD00BF00000240A7
:1055700007000240080002407F969800D68CFF1F6B
:10558000094BDA68824210B50DD01A6812F4804FC8
:1055900040F0804102D0D860196110BD034C1C60FE
:1055A000D86019611A6010BD00C0024001401F00A0
:1055B000164B1A6842F480521A60154B154A1A604D
:1055C000154ADA6002F180421A61144A1A60144BDB
:1055D0001B78DA0755BF134A134A4FF410714FF482
:1055E000007113F0020F11600CBF104910495B07E6
:1055F0004FF4007254BF0F4B0F4B0A6054BF4FF46F
:1056000010724FF400721A60704700BF3C80044073
:1056100000C0024001401F000110003800001F8040
:105620009D91FF1F18B0044008C004401CB0044006
:105630000CC0044014B0044004C00440074B1A6876
:1056400042F480521A60064BDB6810B943F0807058
:1056500001E023F08070FFF793BF00BF3C8004405F
:1056600000C00240604A6149136843F4805330B57A
:105670001360136843F480531360CB68C96813F058
:10568000807F01F00F010CBF0023202301290AD9DC
:10569000042902D843F0010305E0062994BF43F032
:1056A000020343F0030351490C68640440F1958000
:1056B00009680029C0F2948018431368DA0406D4FC
:1056C000494A43F480531360484B494ADA6010F06A
:1056D000400504D1454B1A6842F480421A60454B9C
:1056E000454A10F0200F08BF1A46030748BF42F092
:1056F000806210F0040F00F003030CD00BB93F4B95
:1057000002E0012B02D13E4B13431BE0022B0CBFE6
:105710003C4B3D4BF8E723B942F4805343F001037F
:1057200010E0012B04D142F4804343F0040309E06C
:10573000022B0BBF42F4C04342F4E04343F00603A4
:1057400043F00703294AD16801F000410B43D168B7
:1057500099420BD011684C0401D5D36006E041F4A6
:10576000804444F001041460D3601160274B1F4A49
:1057700010F0100F08BF4FF4F8130DB31360244B53
:105780001B78D90705D402F5F8324FF4107118329E
:1057900002E0204A4FF4007113F0020F11600CBFB9
:1057A0001D491E495B074FF4007254BF1C4B1D4B33
:1057B0000A6054BF4FF410724FF400721A6030BD8B
:1057C00043F4804343F001031360174A4FF4A2737C
:1057D0001360536042F8043C30BD43F0400367E778
:1057E00043F0100368E700BF3C80044000C0024063
:1057F00001100138000001380000013901010002E8
:1058000004040002060600020707000200001F80D1
:105810009D91FF1F08C004401CB004400CC0044010
:1058200014B0044004C0044018B00440094B1A6886
:1058300042F480521A60084BDB6803F0E0629B017F
:1058400005D520F4704300F4704043EA1010104373
:10585000FFF796BE3C80044000C002400346084665
:10586000194601F037BEFFFF2DE9F04FB64B21F08E
:1058700000469E4283B004460D4689460FDDB3497B
:105880008E4200F3B38000F0AE80B9F1000F40F318
:10589000EF8091A1D1E9000103B0BDE8F08FAC4BDE
:1058A0009E4200F3BD80A3F1DE739E4240F3A780C9
:1058B0004FF0FF3C22462B4620462946CDF804C037
:1058C00001F002F802460B4682468B4600F0FCFFD0
:1058D00083A3D3E9002306460F4600F0F5FF82A319
:1058E000D3E9002300F03EFE32463B4600F0ECFFD9
:1058F0007FA3D3E9002300F035FE32463B4600F09B
:10590000E3FF7DA3D3E9002300F02CFE32463B46A3
:1059100000F0DAFF7AA3D3E9002300F023FE324639
:105920003B4600F0D1FF78A3D3E9002300F01AFE34
:1059300052465B4600F0C8FF75A3D3E900238246B8
:105940008B463046394600F0BFFF73A3D3E90023EE
:1059500000F006FE32463B4600F0B6FF70A3D3E9E6
:10596000002300F0FDFD32463B4600F0ADFF6EA384
:10597000D3E9002300F0F4FD32463B4600F0A4FFDB
:105980006BA3D3E9002300F0EBFD32463B4600F069
:105990009BFFDDF804C0BCF1FF3F02460B466BD015
:1059A000504659464FEACC0600F0DCFD22462B4615
:1059B00000F08AFF674F684B37441E44D6E9002346
:1059C00000F0CEFD22462B4600F0CAFD02460B46F3
:1059D000D7E9000100F0C4FDB9F1000F0CDA01F1C4
:1059E0000045294608E000283FF44FAF20462946ED
:1059F00022462B4600F0B6FD03B0BDE8F08F4EA363
:105A0000D3E9002300F0AEFD0022544B01F0ECF985
:105A100000283FF44DAF2046294603B0BDE8F08F83
:105A200000F0CAF84E4B9E4204460D4633DCA3F507
:105A300050239E4200F3A58002460B4600F092FDE3
:105A40000022464B00F08CFD002206460F46204601
:105A500029464FF0804300F085FD02460B46304654
:105A6000394601F05BF84FF0000C04460D4621E783
:105A700033A1D1E90001BFE75046594600F072FD5D
:105A800022462B4600F020FF02460B4620462946C0
:105A900000F066FDB0E7334B9E4267DC0022324BDC
:105AA00000F05EFD002206460F46204629462E4B9A
:105AB00000F00AFF0022294B00F054FD02460B467D
:105AC0003046394601F02AF84FF0020C04460D46E4
:105AD000F0E600BFAFF30080182D4454FB21F93FDE
